:020000040800F2
:100000002820002049010008C12000089D1E00088A
:1000100000000000000000000000000000000000E0
:10002000000000000000000000000000B9240008EB
:10003000000000000000000007010008ED26000895
:100040005B0100085B0100085B0100085B01000820
:100050005B0100085B0100085B010008D107000894
:100060005B01000811070008210700085B01000878
:100070005B0100085B0100085B0100085B010008F0
:100080005B0100088D2700085B0100085B01000888
:100090005B0100085B0100085B0100085B010008D0
:1000A0005B0100085B0100085B010008552E000899
:1000B0005B010008652E00085B01000803488546C7
:1000C00000F0A2FA00480047B939000828200020B3
:1000D000084B19680868203080F30988022080F3F3
:1000E0001488BFF36F8F3FBCAE4608BC04BC62B639
:1000F0001847000034000020EFF3108072B67047FC
:1001000080F310887047EFF309800E4B1A6820388F
:100110001060F0C044464D4656465F46F0C008B5F4
:1001200072B604F0EBFB62B60CBC116808681030C4
:10013000F0C8A046A946B246BB4680F309882038DD
:10014000F0C818473400002004488047044800479E
:10015000FEE7FEE7FEE7FEE7FEE7FEE77D27000895
:10016000BD00000830B50B460146002020220124C6
:1001700009E00D46D5409D4205D31D469540491BDB
:100180002546954040191546521E002DF1DC30BD24
:10019000F0B51FB40646002082B005464024019108
:1001A00000901BE0019922460F46304600F054F8BB
:1001B000049A059B801A994110D31046194622468D
:1001C00000F03AF8361A8F410197224601200021AB
:1001D000009F00F031F838184D4100902046641E11
:1001E0000028DFDC019B00982946324607B0F0BDAD
:1001F00003460B439B0703D009E008C9121F08C040
:10020000042AFAD203E00B780370401C491C521EEA
:10021000F9D27047D2B201E00270401C491EFBD2F5
:1002200070470022F6E710B513460A460446194601
:10023000FFF7F0FF204610BD10B5202A04DB014671
:10024000203A9140002010BD914020239C1A034683
:10025000E3401943904010BD10B5202A04DB084646
:10026000203AD040002110BD0B46D340D04020247E
:10027000A21A91400843194610BD0000F0B5074688
:100280000846584087B0C00F049048000E465900F9
:1002900040084908BC1A884105D2384631461E46F6
:1002A00017460B4602465800400810434CD0300D0C
:1002B000039040055900400D490D0590401A0290E9
:1002C000402872DA18030121000B09050843019048
:1002D00004980092002805D00199524200208841DC
:1002E00000920190029840210A1A01990098FFF7A4
:1002F000A3FF05460C466B4607CB00F097F9C019E3
:100300007141039A0E0D0023D71756401A467A40C2
:10031000164344D0049A002A2DD0029A012A039A47
:1003200015DC1205C01A914101263605001C7141E9
:10033000D20F059ED2070093019202962A462346C9
:1003400000F094F907B0F0BD38463146FAE71605DB
:10035000224A0F46B218C01AB74101210905001CF4
:100360004F4100187F41114618187941E20F1043A0
:100370006D19644113E0E2076D0815436408C20774
:100380001443039A01261205C01A91413605001C38
:100390007141CE07400830434908C01851412A46F0
:1003A000234600F056F9CDE7FFE70498012240000C
:1003B000C117121A00238B4104983146C417381A0A
:1003C000A141EEE730B40124E407634030BC55E7B7
:1003D00030B40124E407614030BC4FE70000E0FF87
:1003E000F0B51FB488B00B990998002448400999CA
:1003F000C00F490049080991C0070B9900904900B6
:1004000049080B9109990898A64608431CD00B99F6
:100410000A98084318D0099801244000420D48006A
:10042000410D099824050003000B204309900B9807
:100430000003000B20430B9050181C494018002269
:1004400001901446104605E0002001460DB0F0BDB5
:10045000032801DA034600E003239C46C11A0AAED2
:100460000AE05F0008ADED5B4F00F75B7D430027BE
:10047000AA187C41491C5B1E6145F2DD410004ABBA
:100480005A522104120C0A43240C401C0828DFDBBA
:10049000019802900099704601910090059B049A82
:1004A0000799069800F0E2F8D0E700000DFCFFFF86
:1004B000F0B50C465C4085B0E40FE40703944C00B3
:1004C00000266408590094464908024602962243D1
:1004D00021D062460A431ED06200570D4A000E0327
:1004E0002303550D012402462C492405781B1B0BC0
:1004F000360B401823432643614600901C46501A91
:10050000B44103D30098401C009002E09218009878
:100510005B41002803DA0020014605B0F0BD002051
:10052000012109050746864611E064461D46141B55
:10053000B54106D36546521BB341744607430C438D
:10054000A646CD0740084908284392185B41054656
:100550000D43EAD11046184313D060461946504067
:100560007140084306D06046101AB34106D20122FA
:10057000002306E000220123DB0702E00122D24330
:100580005310009874460105381C6141029C039D7C
:100590000019694100F05DF8BFE70000FD030000AD
:1005A0004A0009030123090B1B0519430A4B10B527
:1005B000520D9A4202DA0020014610BD064B343338
:1005C0009A4203DC9A1AFFF747FE10BD034BD2187C
:1005D000FFF732FE10BD0000FF030000CDFBFFFF60
:1005E00010B5002904DB0124E40740428C41214678
:1005F000002B04DB1C460123DB075242A341994236
:1006000000D1904210BD0000064C0125064E05E0C9
:10061000E36807CC2B430C3C98471034B442F7D323
:10062000FFF750FDD0540008F054000810B5202A00
:1006300006DBCB170846203A1041C1170B4306E0F2
:100640000B461341D0402024A21A9140084319467A
:1006500010BD10B5002B08DA0024401C614192182F
:100660005B411A4301D14008400010BDF0B51FB4F2
:1006700082B005460C0003D0084602F083FC02E07D
:1006800002F080FC20300246009021462846FFF709
:10069000D3FD049B059A04460F46184311430843B3
:1006A00014D0184610431BD0009840210A1A18464F
:1006B0000599FFF7D1FD05460E46009A0599049865
:1006C000FFF7BAFD084305D0012004E02046394673
:1006D00007B0F0BD0020C11705430E432C4337433C
:1006E00000990E986305401A7905E40A00220C432C
:1006F000FD0A0A3002D500200146E9E7010510197C
:1007000069410C9C0D9D00196941FFF7A2FFDFE7CD
:1007100010B5024800F0ECF810BD00004C020020BB
:1007200010B5024800F0E4F810BD0000A802002057
:1007300010B50446006C09498008800040186064C8
:10074000207814210838FFF70DFD04498031A16499
:10075000C106C90E01208840E06410BD00080240B7
:100760000179084B8906890E8A00D2180265054A6C
:100770004432491E42658A07920F012191408165EA
:1007800070470000FC080240F0B5846CC56C6560E1
:10079000046D002C02D0446D856D65600B4C65685E
:1007A000066C1C273E400127B7403D436560046846
:1007B00063608368102B036803D099600068C2608F
:1007C000F0BD9A600068C160F0BD0000000002400A
:1007D00010B5402000F082F90120000300F07EF9FE
:1007E0000120400300F07AF90120800300F076F93F
:1007F0000120C00300F072F910BD72B6FEE70000E0
:10080000F0B5002808D0014620314A79022A05D0E7
:100810000422C263002008710120F0BD0268136841
:100820000E24A3431360426C1468FF2301339C43DE
:100830001460026814686408640014600C4A556807
:10084000066C1C24264001242746B7403D435560D2
:10085000826CC56C5560026D002A05D015689D43F9
:100860001560826D406D42604C7100200871F0BDD2
:1008700000000240F8B500240246203251790229D6
:1008800003D00421C16301242DE001680B680E250B
:10089000AB430B6001680B685B085B000B60416C4D
:1008A0000B68FF250135AB430B6010494D68066CA2
:1008B0001C231E4001231F46B7403D434D60816C01
:1008C000C56C4D60016D002906D00E681D02AE4357
:1008D0000E60416D856D4D60537100211171816B0A
:1008E000002900D088472046F8BD000000000240E3
:1008F000F0B42C490C6802681368056C1C273D4055
:100900000426AE40264211D05E070FD513689B0621
:1009100003D4146804239C4314604B68046C0422C1
:100920003C40A24013434B60016B1CE00227AF40E8
:10093000064627402036002F19D09F0717D5136889
:100940009B0605D413680A24A34313600122727125
:100950004B68046C1C2214400222A24013434B60DB
:1009600000213171C16A00291AD0F0BC084708275C
:10097000AF40274214D01B0712D513680E24A3439F
:1009800013604B68046C1C22144001221546A540DC
:100990002B434B60C263727100213171416BE2E7FE
:1009A000F0BC70470000024070B504003FD02548FD
:1009B000256814212818FFF7D5FB80002064022049
:1009C00026462036707128681F4908402860E16873
:1009D000A06862690843216911430843A16908437B
:1009E000E1690843216A084321680A6810430860E6
:1009F0002046FFF79DFE0121A0688903002588425B
:100A000000D165602079616C8006800E0860A06C62
:100A1000E16C41606068401E03280AD82046FFF759
:100A20009FFE206D0560606DA16D416004E00120B6
:100A300070BD25656565A565E5630120707135713B
:100A4000002070BDF8FFFDBF0F80FFFFF8B5044622
:100A50008C4620300179002501290BD00126067132
:100A600041790027012907D08021E1630771012521
:100A70002846F8BD0220F8BD02214171E7632068D5
:100A8000016849084900016061462046FFF77CFE85
:100A9000206B00282068016801D00E2205E00422A6
:100AA00091430160206801680A2211430160606C73
:100AB0000168CA03074902D502680A430260206D33
:100AC000002802D002680A430260206801683143AE
:100AD0000160CDE7000100007047000070B5084DCF
:100AE0000446E868204203D0EC60204600F00AF893
:100AF0002869204203D02C612046FFF7EDFF70BD2E
:100B00000018024070470000FCB5002301259AE060
:100B100022462C469C4022406FD04E68012E05D0C4
:100B2000022E03D0112E01D0122E16D18668032773
:100B3000B4465E00B646B7406646BE43B446CF688C
:100B40007646B7406646374387604668A6430C79C9
:100B5000E406E40F9C4034434460C6685F0003240D
:100B6000BC40A446A6438C68BC403443C4604C6877
:100B7000022C01D0122C14D1DC08A40024180194FA
:100B8000266A5C07B646E60E0F24B4400096764609
:100B9000A643B6460C69009EB44076462643019CA7
:100BA000266204686646B4430E79B607B60FBE40A7
:100BB000264306604C68E40044D59E08254CB600E8
:100BC0003419A446246E9E07F60E0F27B740BC4387
:100BD00005273F07B84201D1002710E01E4FB84259
:100BE00001D101270BE01D4FB84201D1022706E0D9
:100BF0001B4FB84202D1032701E023E00527B7408D
:100C0000274364462766134E803634684F68944302
:100C1000FF0300D51443346074684F689443BF03E6
:100C200000D5144374600B4C26684F689643FF024E
:100C300000D51643266066684F689643BF0200D50C
:100C4000164366605B1C0A681446DA4000D05FE712
:100C5000FCBD0000001802400004005000080050D5
:100C6000000C00500069084000D001207047002AA5
:100C700001D081617047816270470000014880683F
:100C8000704700002400002002488168027889181B
:100C9000816070472400002010B5084800240168D6
:100CA000821511430160204600F00AF8002801D0A7
:100CB000012401E000F040F8204610BD0020024071
:100CC00000B5014687B00022112000F05FF8112026
:100CD00000F050F81348C26B10210A43C263C06B86
:100CE0000840059004A9684600F016FA00F030FAB2
:100CF0000D49FFF737FA0E490C4A0A600D4A401EAB
:100D0000CA604860002008618860084600F07FFCE7
:100D1000002802D0012007B000BD054800F09EFC6D
:100D2000F9E700000010024040420F0000100040B0
:100D300004030020E703000008B50D480168012204
:100D40001143016000681040009009484038C26BB0
:100D500001040A43C263C06B0022084003210090D3
:100D6000481F00F013F80320400200F043FC08BDC8
:100D700040100240002805DBC106C90E0120884052
:100D8000014908607047000000E100E010B502F082
:100D90001DF910BD10B50F4C21680322520291437A
:100DA00001432160C11FFF39FA390ED10A480621DB
:100DB000006848430949FFF7D5F9401C02E00028C4
:100DC00005D0401E61694905F9D4002010BD0320FB
:100DD00010BD0000007000403000002040420F00B5
:100DE000FEB5044600680027704D714E800355D54E
:100DF00000200090F06BC00007D4F16BA805014300
:100E0000F163F16B0140012000906A48016882158E
:100E100011430160FFF732FF019005E0FFF72EFF5D
:100E20000199401A022825D862480068C005F5D506
:100E3000E8690321090208400FD0216B81420CD0E0
:100E4000E86903210902EA698843012109040A4388
:100E5000EA61EA698A43EA61E861C0070FD0FFF7F7
:100E60000DFF019008E0FFF709FF0199411A524870
:100E7000814201D9032709E0E8698007F3D5E869D1
:100E8000032109028843216B0843E8610098002888
:100E900004D0F16B012000078143F1632078C00783
:100EA00005D068696168800880000843686120781F
:100EB000800705D568690C218843A16808436861EB
:100EC0002078C00606D56869032189028843E16855
:100ED000084368612088800506D568690321890474
:100EE0008843A169084368612088400506D5686980
:100EF000032109058843E169084368612078800679
:100F000006D568690321090388432169084368619C
:100F1000208840040ED56869216A80008008084353
:100F200068610121206A8907884203D1F06889132A
:100F30000843F0602068000305D5686940218843B4
:100F4000616A08436861206881021C480BD56969A1
:100F50008210A36A914319436961A16A914202D147
:100F6000F1680143F160216849020AD56969E26AC2
:100F7000814311436961E16A814202D1F168014311
:100F8000F160208800050FD5686903218903884333
:100F9000616908436861012160698903884203D15E
:100FA000F06889000843F0603846FEBD40100240FA
:100FB0000010024000700040881300000000000193
:100FC000F8B50F46060043D04D4D28684007400F46
:100FD000B84213D22868C008C00038432860FFF721
:100FE0004DFE044605E0FFF749FE011B45488142DE
:100FF00061D828684007400FB842F4D13068424CAD
:1010000081070DD5400704D5A068072109030843CF
:10101000A060A0680F2109028843B1680843A0605E
:101020003078C00732D0706801280AD002280BD06F
:1010300000280FD03449403103280ED0C9698907F0
:1010400004E02168890301E021688901002906DBA9
:101050000120F8BD21684905F8E7096AEFE7A168B2
:10106000C908C9000143A160FFF708FE009006E02F
:10107000FFF704FE0099411A224881421BD8A0685C
:10108000382108407168C9008842F1D128684007BA
:10109000400FB84217D91A480168C908C900394336
:1010A0000160FFF7EBFD054607E0FFF7E7FD411B99
:1010B0001448814201D90320F8BD11480068400757
:1010C000400FB842F1D13078400706D5A06807211B
:1010D00009038843F1680843A06000F04DF8A16857
:1010E0003C2289091140094A515CC906C90EC84011
:1010F0000749086007480068FFF7E2FDF8BD0000F7
:1011000000200240881300000010024064540008D0
:10111000300000202800002010B5072202600A4A93
:1011200093685B075B0F436093680F24240223409E
:101130008360926807231B031A40C260034800685B
:101140004007400F086010BD001002400020024020
:101150000648074900688968064A4904490F89001A
:10116000515CC906C90EC84070470000300000201D
:1011700000100240A454000810B5204CA068204A7A
:101180008006400F16D0A0688006410F501001293C
:101190000FD0A1688906490F022912D0A0688006E5
:1011A000400F042823D0A0688006400F032821D0D8
:1011B000002010BD206801218004400F81401046AE
:1011C00012E0E1688B07E1689B0F4906490F491C53
:1011D000032B00D01046FEF7C5FFE1684904490E15
:1011E0004843E168490F491CFEF7BCFF10BD0120D0
:1011F000C00310BD7D20000210BD000000100240A1
:101200000024F400F8B504007ED020783827C00709
:10121000EF4D002846D0A868E96838408907890F53
:10122000102802D008280BD001E0032908D00120A3
:101230006268000482420AD129680143296015E0EE
:10124000286880032ED560680028DDD02AE00523B9
:1012500001211B0489049A422A6802D10A432A60A8
:10126000EAE782432A60286888432860606800288B
:101270000CD0FFF703FD064604E0FFF7FFFC801BE0
:10128000642873D828688003F7D50BE0FFF7F6FCD5
:10129000064604E0FFF7F2FC801B6428F1D82868BA
:1012A0008003F7D42078800769D5A868E9683840BA
:1012B0008A070721920FC902102802D0002813D0F4
:1012C00001E0022A10D0E068002846D02868884350
:1012D0002169084328602868FF21013108432860FC
:1012E000FFF7CCFC06462CE02A68520502D5E268DE
:1012F000002A89D06A687F231B029A4363691B0214
:101300001A436A60002800E08DE00ED12868884307
:10131000216908432860286801218004400F81402A
:10132000AC48FEF71FFFAC490860AC480068FFF707
:10133000C7FC002877D122E0FFF7A0FC801B022821
:101340009FD828684005F7D568687F21090288433F
:10135000616909020843686011E02968FF200130D3
:1013600081432960FFF78AFC064605E098E0FFF715
:1013700085FC801B022884D828684005F7D4207893
:10138000974E00072ED5A8688006400F03280AD084
:10139000A0690028306A16D0012108433062FFF7A7
:1013A0006DFC07460BE0306A80071BD5A06900285A
:1013B0009FD017E0FFF762FCC01B022870D8306A8C
:1013C0008007F7D50EE0400840003062FFF756FC7A
:1013D000074604E0FFF752FCC01B022860D8306AC1
:1013E0008007F7D4207840076CD5A86800278006CE
:1013F000400F042818D0E86BC00008D4E96B012026
:1014000000070143E963E96B01400127009175483A
:101410000168C90519D40168821511430160FFF7FD
:101420002DFC00900DE083E0F06980074AD5A068AC
:1014300000287DD046E0FFF721FC0099401A0228E1
:101440002ED868480068C005F5D5A168012910D0DC
:1014500004200529F16911D049084900F161F169B9
:101460008143F161A068002816D0FFF707FC0090C7
:101470000EE0F06901210843F061F3E70143F161F7
:10148000F7E7FFF7FBFB0099411A574881426FD8F5
:10149000F0698007F5D50EE0FFF7F0FB009007E05C
:1014A00066E0FFF7EBFB0099411A4F4881425FD895
:1014B000F0698007F5D4002F04D0E86B01210907FB
:1014C0008843E863E06900287FD0A9688906490F4E
:1014D000022953D001263606022828680DD0B043D1
:1014E0002860E86880088000E860E8683F490840B4
:1014F000E860FFF7C3FB04463CE0B0432860FFF719
:10150000BDFB074604E0FFF7B9FBC01B02282FD83C
:1015100028688001F7D4616A206AA26A0843E16AF8
:10152000120211430843216B0843616B084300E03A
:1015300049E0E9682E4A11400843E86028683043D2
:101540002860E868012109070843E860FFF796FB77
:10155000044604E0FFF792FB001B022808D8286825
:101560008001F7D531E0FFF789FB001B022801D984
:101570000320F8BD28688001F5D426E00128F8D0C2
:10158000E868226A8107890F91421CD17021626A42
:101590000140914217D17F21A26A09020140120243
:1015A000914210D11F214904E26A014091420AD1BF
:1015B00007214906226B0140914204D1400F616B23
:1015C0004007884201D00120F8BD0020F8BD00008E
:1015D000001002400024F400300000202800002009
:1015E000401002400070004088130000FFFFFEEE34
:1015F0008C80C11103490A6803235B029A430243AA
:101600000A6070470000014070477047704770B52E
:10161000040005D025462035687F002802D006E06A
:10162000012070BD00202877204600F016F8022027
:101630006877211D206801F0B1F801224034227240
:10164000AA77EA7722706270A270E27022716271EA
:10165000A271E2716A77002070BD704701462031A7
:101660004A7F012A01D00120704702224A7701688F
:10167000CB6801221343CB6000680C49884208D034
:101680009107884205D00A49884202D00949884218
:1016900007D18168084B1940062905D0DB1F994204
:1016A00002D001681143016000207047002C014006
:1016B00000040040004001400700010070470000A6
:1016C00070B50446006801690025C94389070029EF
:1016D00015DBC168C943890711D4E91E01610120E6
:1016E0002077206880698007204602D0FFF7E6FF58
:1016F00004E000F0A7F8204600F0A5F82577206860
:101700000169C943490717D4C168C943490713D4BC
:101710000421C94301610220207720688069800587
:10172000800F204602D0FFF7C9FF04E000F08AF8DE
:10173000204600F088F8257720680169C943090729
:1017400016D4C168C943090712D40821C9430161ED
:10175000042020772068C0698007204602D0FFF768
:10176000ADFF04E000F06EF8204600F06CF825773D
:1017700020680169C943C90617D4C168C943C906AD
:1017800013D41021C9430161082020772068C06963
:101790008005800F204602D0FFF790FF04E000F0A4
:1017A00051F8204600F04FF8257720680169C943B9
:1017B000C90708D1C168C943C90704D1891E01619D
:1017C000204600F041F820680169C943090609D4A0
:1017D000C168C943090605D48021C9430161204677
:1017E000FFF713FF20680169C943C90508D4C16820
:1017F000C943090604D4124901612046FFF704FFDA
:1018000020680169C943490609D4C168C94349062A
:1018100005D44021C9430161204600F01FF820682B
:101820000169C943890609D4C168C943890605D439
:101830002021C94301612046FFF7E8FE70BD00008A
:10184000FFFEFFFF7047704710B5006802498842ED
:1018500001D1FFF719FA10BD00100040704710B514
:10186000014680310A78012A15D001220A7024220B
:101870004A600268136814686408640014600122F6
:1018800052079343002242660068036020204860AC
:101890000A70104610BD022010BD7047704770B529
:1018A000044605468034207801281AD00120207093
:1018B00024206060286806680268520852000260AE
:1018C0002868826807235B069A430A438260284699
:1018D00000F0AEFF286806602020606000202070C5
:1018E00070BD022070BD70B5044605468034207876
:1018F000012819D001202070242060602868066823
:10190000026852085200026028688268D200D20839
:101910000A438260284600F08BFF2868066020207A
:1019200060600020207070BD022070BD704770475D
:1019300010B5094A016891420DD108490A69521C43
:1019400080300A61C068486101200870C8690028B9
:1019500001D002F0ADF910BD004C004000000020A5
:10196000F8B503680446D96918689A68914D0E461F
:101970002E4025468035002E6CD08F4E8F4F16405E
:10198000074037437FD0CF0706D0C70504D50127CE
:101990001F62EB683B43EB608B0708D5D30706D08B
:1019A000276802233B62EB6804273B43EB604B074D
:1019B00008D5D30706D0276804233B62EB680227CB
:1019C0003B43EB600B0709D520230340334305D08D
:1019D000266808233362EE681E43EE600B0509D5C6
:1019E000430107D501232668DB023362EB6820261A
:1019F0003343EB60EB68002B3AD089060AD52021EF
:101A00000840C9050A40104304D0216F002901D0C5
:101A100020468847E86821688968490602D4282159
:101A200008422AD0204601F03BF820688168490628
:101A30001FD5826840218A438260E06F002818D059
:101A40005F498163E06FFEF715FF002810D0E06F5B
:101A5000816B0CE08E0616D5012720263F07064035
:101A600017403E430FD0216F7FE00CE020468847AF
:101A7000F8BD2046FFF75CFFF8BD2046FFF758FF92
:101A80000020E860F8BDE66E012E59D1CE0657D58C
:101A9000C60655D510221A62206881682646490676
:101AA000403600292BDAE36F196849680904090CEC
:101AB000E8D0B78B8F42E5D9F183196809688906A8
:101AC00018D40168130199430160206881684908AE
:101AD000490081602068816840239943816020200B
:101AE000A8600020E0662068016891430160E06F13
:101AF000FEF786FEB08BF18B401A81B21CE0B18BF1
:101B0000F38BC91AF38B89B2002BBBD00029B9D053
:101B10000368FF262136B343036020688368264E9E
:101B2000F643334083602020A8600020E0662067F1
:101B300020680368934303602046FFF7AEFEF8BDBC
:101B4000CE0208D5560206D50120000518622046AF
:101B5000FFF7EDFEF8BD0E060BD501278026FF0529
:101B600006403A40164304D0616F002900D07DE75B
:101B7000F8BD4A060DD542060BD51A68204640210D
:101B80008A431A60202169600021616700F085F9AD
:101B9000F8BD0A0205D5420003D52046FFF7C6FE70
:101BA000F8BDC901FCD50028FADA2046FFF776FE19
:101BB000F8BD00000F080000010000102001000423
:101BC000C129000870B5040005D025468035686835
:101BD000002802D006E0012070BD002028702046B9
:101BE00000F026F824206860206801684908490050
:101BF0000160204600F080FF0128EDD0A06A002897
:101C000002D0204600F044FE206841680922D2023A
:101C100091434160206881682A2291438160206855
:101C20000168012211430160204600F097FE70BD5B
:101C3000F0B587B0064614216846FEF7F2FA404D2B
:101C4000326800243F4801210223AA4237D13D4A8D
:101C5000403217688D032F43176012682A4005929F
:101C6000426B0A434263406B6A460840059003207A
:101C7000400219C204910520039469460007FEF74B
:101C800043FF324D30482860AC603220EC60686021
:101C90006C618020AC61286120202C62E8612846BC
:101CA000FEF782FE002801D0FEF7A7FDF5670022AF
:101CB00003211B20AE62FFF769F81B203CE0244D96
:101CC000AA423BD1C56B0122D2041543C563C56B43
:101CD00015400595426B0A434263406B0291C00771
:101CE000C00F059003200090042004900520039469
:101CF000019369460007FEF707FF1348134D1430A0
:101D00005C352860AC603820EC6068606C618020D5
:101D1000AC61286120202C62E8612846FEF744FE71
:101D2000002801D0FEF769FDF567002203211D2080
:101D3000AE62FFF72BF81D20FFF71CF807B0F0BDCF
:101D40000038014000100240080002404C02002010
:101D5000004C004070B5034680339C68202C19D19C
:101D600000290BD0002A09D0012584682D03AC423C
:101D700006D10469002C03D1CC0701D0012070BD2D
:101D80001C78012C06D001241C700023C36600F0CF
:101D9000D1FF70BD022070BD10B5006806498842B1
:101DA00009D106488069002805D0044900231A4655
:101DB000491C01F0B1FE10BD004C004000000020A5
:101DC0007047FFB5064604468036706883B00D46FE
:101DD000202860D1002D0CD00598002809D00120C2
:101DE000A1680003814207D12069002804D1E807D7
:101DF00002D0012007B0F0BD307801284BD001207F
:101E000030700020F06021207060FEF737FF0190F5
:101E1000274640370598B8820598F8820120A168C6
:101E20000003814202D12069002804D002950025D8
:101E30000020307015E000200290F9E70022802198
:101E4000204600F0B9FF002818D10298002817D0CA
:101E50002168007888620298401C0290F88A401E2F
:101E6000F882F88A019B002806980090E6D10022AB
:101E70004021204600F0A0FF002808D00320B9E749
:101E800028882168C005C00D8862AD1CE6E72020C7
:101E900070600020AEE70220ACE77047FEE700006C
:101EA00008B50C48816B012211438163806B0321CB
:101EB0001040009000220920FEF768FF0920FEF77D
:101EC00059FF002203210A20FEF760FF0A20FEF7D7
:101ED00051FF08BD0010024010B5044A002104481B
:101EE00001F00EFF0349086210BD000028540008ED
:101EF0002925000800000020F0B587B014216846AD
:101F0000FEF78FF92C48416B012631434163416B49
:101F100031400591416B022529434163416B2940C2
:101F20000591426B04210A434263406B0022084042
:101F300005900520FC210007FEF799FE1F4F0022A7
:101F400039461F48FEF793FEFC2000900024052030
:101F500069460196029503940007FEF7D5FD694690
:101F600017480097019602950394FEF7CDFDE8020D
:101F7000009014480190694602941148FEF7C4FD90
:101F800007204003104D00906946019502940C48CB
:101F9000FEF7BAFD402000906946019502940B4877
:101FA000FEF7B2FD002203210720FEF7EFFE072017
:101FB000FEF7E0FE07B0F0BD00100240070C000085
:101FC0000004005000001110000031100008005003
:101FD00010B5184816490160E1214902416000210D
:101FE0008160C16001618161C16101620C22416255
:101FF00042618162FFF7E6FD002801D0FEF7FDFB9C
:1020000000210C48FFF76FFC002801D0FEF7F5FB1C
:1020100000210848FFF743FC002801D0FEF7EDFB44
:102020000448FFF71CFC002801D0FEF7E6FB10BDBA
:10203000003801402C01002010B50D480B4901600B
:10204000E1214902416000218160C160016181613B
:10205000C16101620C22416242618162FFF7B2FDFF
:10206000002801D0FEF7C9FB10BD0000004C004065
:10207000BC01002030B503460A480B4C0CE01A782E
:10208000504000225B1CC50702D04008604000E0C1
:102090004008521C082AF6DB0A46491E89B2002A6B
:1020A000EDD130BDFFFF000001A0000010B50348D6
:1020B000C069002801D001F0FBFD10BD0000002028
:1020C000FEE70000FEB5544C054660680E46401C15
:1020D0006060287819281AD10A4629464FA001F0D5
:1020E00009FCB01E81B22846FFF7C4FF0346A819B9
:1020F0001E38417F007F0A020243934208D0A06845
:10210000401CA060009647A0616801F03DFCFEBD48
:102110006E78062E08D0042E39D0314650A0626861
:1021200001F032FC012144E0E878A978000208437C
:1021300041BA68792A790002104347BA002903D0CE
:1021400052A001F021FC33E0384600F09FFE062249
:1021500029466846FEF74CF806216846FFF78AFFD5
:1021600069468871000AC871322308225048FFF777
:1021700028FE002804D0E1684EA0491CE1603CE044
:10218000394657A0626801F0FFFB08223EE0E8787C
:10219000A9780002084341BA68792A7900021043FD
:1021A00042BA002901D1012A07D058A001F0ECFB66
:1021B0000221304600F082F9FEBD00F0EDF8054640
:1021C0001920694608700420487002208870280A87
:1021D000C8700D7105216846FFF74CFF69464871CC
:1021E000000A8871322307223148FFF7EAFD0028F0
:1021F00006D0E16850A0491CE16001F0C5FBFEBDBE
:10220000294658A0626801F0BFFB0722694660A01A
:1022100001F070FBFEBD0000000000205B52585D25
:10222000000000005B4D4F444255535D2043524334
:1022300020455252206672616D6523256C753A20E7
:10224000676F743D3078253034582063616C633D8E
:10225000307825303458206C656E3D25750D0A00A8
:102260005B4D4F444255535D20496C6C6567616C12
:102270002046433D30782530325820286672616D03
:102280006523256C75290D0A000000005B4D4F4445
:102290004255535D204643303620696C6C6567615A
:1022A0006C20616464723D3078253034580D0A002A
:1022B000BC0100205B4D4F444255535D20545820D3
:1022C0004552522028464330362920746F74616C81
:1022D0005F74785F6572723D256C750D0A000000B1
:1022E0005B4D4F444255535D204643303620777254
:1022F00069746520307825303458206F6B2028664B
:1023000072616D6523256C75290D0A005B4D4F4484
:102310004255535D204643303420696C6C656761DB
:102320006C20616464723D307825303458207174BB
:10233000793D25750D0A00005B4D4F444255535DB4
:1023400020545820455252202846433034292074C6
:102350006F74616C5F74785F6572723D256C750D8A
:102360000A0000005B4D4F444255535D2046433008
:1023700034207265616420307825303458206F6BCA
:1023800020286672616D6523256C75290D0A000091
:102390005B54585D00000000F8B5052636070024A0
:1023A00080213046FEF75EFC012800D10124404D1B
:1023B00001212846FEF756FC012801D102200443E2
:1023C00002212846FEF74EFC012801D104200443D7
:1023D00004212846FEF746FC012801D108200443C9
:1023E0000127BF0239462846FEF73CFC012801D1EF
:1023F000102004430121C9022846FEF733FC0128BE
:1024000001D12020044308213046FEF72BFC01288F
:1024100001D14020044304213046FEF723FC01286B
:1024200001D18020044320213046FEF71BFC012807
:1024300001D10002044340213046FEF713FC01287D
:1024400001D14002044310213046FEF70BFC012865
:1024500000D13C430126360331462846FEF702FCF4
:10246000012801D1C00204430121C9032846FEF717
:10247000F9FB012800D1344340210E48FEF7F2FB5E
:1024800001267603012800D134430127BF033946D2
:102490002846FEF7E7FB012800D13C433146284699
:1024A000FEF7E0FB012801D1C00304432046F8BD3C
:1024B0000004005000080050704700007CB50D4635
:1024C00004461920694608708020204348708D70AA
:1024D00003216846FFF7CEFD6946C870000A0871FF
:1024E000322305220448FFF76CFC2A46214603A04C
:1024F00001F04AFA7CBD0000BC0100205B4D4F4456
:102500004255535D20457863657074696F6E20464F
:10251000433D307825303258206578633D3078254A
:102520003032580D0A000000A6B000220121202000
:1025300001F0BCFA3B4D0022A8611146012001F0D8
:1025400063FBE8610122691C3748FFF703FC364F43
:1025500038680168102211430160192133A001F08D
:1025600013FA5DE00321E86901F020FB28780028D8
:102570003CD0002028706E690446A86901F002FB77
:1025800028490122491C2848FFF7E4FB3868016804
:10259000102211430160F00601D532A000E032A004
:1025A000310701D531A100E02FA1720701D531A279
:1025B00000E02DA2B30701D52FA300E02AA30390CA
:1025C000009301920291F00701D02CA300E026A312
:1025D00032462BA0296901F0D7F9C3E7802C06D237
:1025E0006846007C3055641CA4B200E005AE0023B0
:1025F0001A4604A9A86901F025FA0028EED0002C9B
:10260000B0D0082C214603D305A8FFF75BFD07E0F7
:1026100029A001F0B9F9224605A932A001F06AF912
:1026200000249FE700000020BC0100200D0A5B424F
:102630004F4F545D204D6F6462757320736C6176EB
:102640006520307825303258207265616479202801
:1026500055415254342031313532303020384E31EA
:10266000290D0A0020444D4100000000204F524532
:102670000000000020464500204E45002050450047
:102680005B55415254345D20455252207265636F50
:1026900076657265642023256C753A20636F6465E6
:1026A0003D30782530326C5825732573257325739A
:1026B00025730D0A000000005B4D4F444255535DE9
:1026C0002053686F7274206672616D6520257520D5
:1026D00062797465732C20646973636172646564E4
:1026E0000D0A00005B53484F52545D0010B504487A
:1026F000006902F0D5FC012801D002F043F910BDB9
:1027000000E000E010B5A0B038216846FDF789FD73
:1027100000241B941C941D9434210EA81E94FDF7D4
:1027200080FD01204002FEF735FB02200090C00131
:10273000039040200590049407946846FEF762FDDC
:10274000002801D072B6FEE707201B901C941D9450
:1027500000211E941BA8FEF733FC002801D072B69E
:10276000FEE701200E900F940EA8FEF739FB00281B
:1027700001D072B6FEE720B010BD00000120024972
:10278000C00688607047000000ED00E010B5024808
:10279000FEF796FF10BD000004030020F0B50268AC
:1027A0001D4B0124A4071D4D984203D0A04201D027
:1027B000A84203D17026B2434E683243184E194FD7
:1027C00098420DD0A0420BD0A84209D0164CA0428E
:1027D00006D0B04204D0B84202D0144CA04204D17A
:1027E00003242402A243CC6822438024A2434C69E0
:1027F000224302608A68C2620A688262984206D0F6
:10280000B04204D0B84202D0084A904201D10969CE
:10281000016301214161F0BD002C01400004004032
:1028200000400140004401400020004000480140B9
:10283000F0B513A106C985B00192009112A206CA93
:10284000039202910446416E4034002915D000687D
:102850008168806809014D0F400F02AE315C6F4600
:10286000385CC000FDF77EFC6085785D715DC0005E
:10287000FDF778FC208505B0F0BD01206085F9E703
:10288000010101030701000008040204080101011D
:1028900010B5018DC90707D001684A6801235B04A0
:1028A0009A43C36A1A434A60018D890707D50168B4
:1028B0004A6801231B049A43036B1A434A60018D43
:1028C000490707D501684A6801239B049A43436B73
:1028D0001A434A60018D090707D501684A68012338
:1028E000DB039A43836B1A434A60018DC90607D5FF
:1028F0000268916801231B039943C36B19439160DC
:10290000018D890607D501688A6801235B039A4314
:10291000036C1A438A60018D490612D503685A6810
:1029200001210905446C8A4322435A60426C8A4261
:1029300007D10268516803235B059943836C1943EF
:102940005160018D090607D501684A680123DB043F
:10295000C06C9A4302434A6010BD0000FEB50546B4
:10296000002680350446EE60FEF788F90190206865
:102970000068124F000709D5012100970022490580
:102980002046019B00F018FA00280DD1206800684D
:1029900040070BD501210097002289052046019BA5
:1029A00000F00AFA002801D00320FEBD2020686054
:1029B000A860E6662E700020FEBD0000FFFFFF014C
:1029C00010B5806A002201464031CA83CA82FEF7F0
:1029D000AFFF10BDF8B5846A2046803041680546D7
:1029E00086682068806800270006002806DA21290A
:1029F00004D156200753204600F06EF82068806806
:102A0000400606D5222E04D15E200753204600F052
:102A100047F8E86810210843E8602046FEF788FF81
:102A2000F8BD10B501460968806A096889061DD499
:102A300000225E210A5201680A68FF2301339A438B
:102A40000A6001688A68520852008A6001688A68D0
:102A500040239A438A60202288210A50C16E0129AE
:102A600004D101680A6810239A430A60C16E0129E3
:102A700002D0FFF791F910BD5C21095AFEF70DFF56
:102A800010BD10B5806AC16E012902D0FFF798F918
:102A900010BD5C21095A4908FEF7FFFE10BD000079
:102AA00001680A68FF2321339A430A6001688A6833
:102AB000084B1A408A60C16E012904D101680A6876
:102AC00010239A430A60202288210A500021C166FF
:102AD00001677047FEFFFFEF01680A68C0239A4351
:102AE0000A6001688A680123DB059A438A60202115
:102AF0008030416070470000F8B504462269A16843
:102B0000E5691143626900262A431143626E006839
:102B10000A437C4B01687C4D2940114301602068C9
:102B20004168032212039143E26811434160216826
:102B3000A069994201D0226A10438A68734D2A40E5
:102B400002438A602068C16A626A09090901114367
:102B5000C1626F4922686F488A420AD14069800782
:102B6000800F1AD001283DD0022839D0032827D160
:102B700024E069498A420AD140690C2108400CD0FE
:102B800004282FD008282BD00C2819D116E063492F
:102B90008A4202D062498A4201D1002111E09A4260
:102BA0000ED141690320800201400AD00120800239
:102BB000091A17D0091A13D0814201D1082100E067
:102BC00010210120574D584FC0039A423BD1002994
:102BD0000AD0022911D0042909D008297ED10BE09E
:102BE0000221EEE70421ECE7FEF7B2FA01E0FEF77E
:102BF000C3FA050001D17AE00546606A4000395AFF
:102C000028460091FDF7AEFA67687900791881428D
:102C100069D83903814266D3002328461946009AB1
:102C2000FDF7B6FA020E09020302780811431818DC
:102C3000002251413A460023FDF7AAFA0321090276
:102C4000411A3A4A4DE0E269824228D1002906D071
:102C5000022907D0042907D0082944D108E0FEF74B
:102C600077FA03E0284603E0FEF786FA00283ED014
:102C7000616A4900795AFDF775FA616840004A08AF
:102C80008018FDF76FFA80B202462949103A8A424D
:102C900029D8491C01400007400F084325E00029BE
:102CA00006D0022907D0042907D008291BD108E043
:102CB000FEF74EFA03E0284603E0FEF75DFA00282F
:102CC00015D0616A4900795AFDF74CFA61684A08E3
:102CD0008018FDF747FA80B2014600E003E0144A8D
:102CE0001039914201D9012601E02168C8602046CF
:102CF0000121403041850185002020676067304612
:102D0000F8BD000000800040F369FFCFFFF4FF1121
:102D1000003801404010024000440040004800409C
:102D2000004C00400024F4004C540008FFFC0F004D
:102D3000EFFF0000F8B504468165403000262546C7
:102D400082838035EE602220A860E06F00281AD0D0
:102D50001649C162E16F16480863E16F1548486380
:102D6000E06F13468663A76D21683A462431E06F11
:102D7000FDF76CFE002806D01020E8602E702020A1
:102D800068600120F8BD2E7020680168FF220132C2
:102D9000114301602068816801221143816020682D
:102DA00081684022114381600020F8BD232A000879
:102DB000832A0008D5290008FFB581B005460F46D3
:102DC000044680350A9E38E0701C36D0FDF756FF69
:102DD0000499401AB04221D8002E1FD02068016803
:102DE00049072AD5C069C043000526D401202168BF
:102DF000C002086220680168FF22A132914301608D
:102E00002068816849084900816020206860A860C6
:102E1000E86000202870032005B0F0BD206801683C
:102E2000FF22A1329143016020688168490849006E
:102E3000816020206860A860EBE72068C16938469F
:102E4000884305D0002103988142BDD00020E3E7EC
:102E50000121F8E710B50248FEF782FD10BD000021
:102E60002C01002010B508480068C169C90606D5C4
:102E70000168C90603D510210162FFF717F902485E
:102E8000FEF76EFD10BD0000BC01002070B5C2074A
:102E9000052504462D07D20F80212846FDF7E7FEC1
:102EA000A0071F4EC20F01213046FDF7E0FE60076C
:102EB000C20F02213046FDF7DAFE2007C20F0421BF
:102EC0003046FDF7D4FEE006C20F012189023046EC
:102ED000FDF7CDFEA006C20F0121C9023046FDF765
:102EE000C6FE6006C20F08212846FDF7C0FE200678
:102EF000C20F04212846FDF7BAFEE005C20F2021CB
:102F00002846FDF7B4FEA005C20F40212846FDF774
:102F1000AEFE6005C20F10212846FDF7A8FE70BD69
:102F2000000400500FB41CB50246002007AC002975
:102F30000BD0491E01910092064B6A462146069825
:102F400000F030F9009A002111701CBC08BC04B0DC
:102F500018470000DD3800087CB515460246002001
:102F60001C4600290BD0491E00920191044B6A4671
:102F70002146284600F016F9009A002111707CBD08
:102F8000DD3800082021020C01D010211046020A71
:102F900001D010460839020901D01046091F8208E5
:102FA00001D01046891E420801D0881E7047081AB9
:102FB000704730B47446641E2578641CAB4200D25E
:102FC0001D46635D5B00E31830BC18478307FF2292
:102FD000DB0E9A408907090E9940002808DB830818
:102FE00009489B001B1818689043084318607047F5
:102FF0000007000F0838830804489B001B18D86995
:1030000090430843D861704700E400E000ED00E021
:1030100002E008C8121F08C1002AFAD170477047A1
:10302000002001E001C1121F002AFBD170470000FF
:10303000F0B51FB486B00998089A030D0021024329
:1030400014D05148514A18185043051411980128BA
:1030500010981AD0281A401C00264D4F4D49009652
:1030600001910490002812DA444211E011980124E1
:1030700049A3012801D11098C1430698119A846090
:103080000360C26041600BB0F0BD4042E4E704461B
:10309000210500203F4A001C51410391029012E09B
:1030A000E00707D032463B4601990098FDF798F9B2
:1030B0000191009032463B4610461946FDF790F9C3
:1030C00006460F466410002CEAD10498039B0028A2
:1030D000029A0999089806DAFDF782F9019B009A8D
:1030E000FDF77EF905E0FDF7E3F9019B009AFDF796
:1030F000DFF904460E460022284BFDF771FA03D88B
:103100000020C043014607E00022254B20463146FF
:10311000FDF7B4F8FDF744FA102409E0002C0ADBAF
:103120000A220023FDF734F8079B30321A55641E3B
:1031300002460A43F2D11122641C079B121B1C1980
:10314000119B012B03D0012308430ED10AE0084351
:1031500004D0112010900020119077E71098151AD4
:103160006D1E0BE01098824202DD00236D1C03E00F
:10317000824201DA00236D1E002BEED006981199D1
:103180008260C16030C07EE701FCFFFF104D00008F
:10319000000014400000F03F300000000000F04349
:1031A0000000E03FFFB597B00646002518E225284D
:1031B00077D100242746FD49049400E00443761C9F
:1031C00032780120203A90400842F7D130782A28FE
:1031D0000ED00222307801463039092916D80499D8
:1031E0000A235943303940181443761C0490F1E700
:1031F000189802C804911890002904DA01204003AD
:1032000004434842049002200443761C30782E2860
:1032100014D1042004437078761C2A2809D1189808
:10322000761C80C8189009E00A214F43303FC71927
:10323000761C3078014630390929F5D930786C2868
:1032400010D006DC4C281AD068280ED06A2817D176
:1032500004E0742813D07A2812D110E00120400530
:1032600004430CE00121090501E0032109050C4399
:103270007178814203D1012000052418761C761C48
:103280003078119066280BD013DC58287DD009DCEB
:1032900000287BD04528F6D04628F4D047281AD1FC
:1032A000A5E118E0632835D0642870D0652812D1D4
:1032B0009DE170286CD008DC6728F1D069287BD0AC
:1032C0006E280DD06F2806D1BAE073282ED075284D
:1032D00071D0782859D01A9A199990476D1C7EE1BF
:1032E0006002400F022809D003280DD00428189846
:1032F00001680DD00D60001D189070E11898EA1754
:1033000001680D604A60F6E7189801680D80F2E7E1
:103310000D70F0E718986A4601781172001D189038
:103320000020507202A80090012005E0189802C801
:10333000189000200091C04361070DD5002101E0E5
:103340000199491C0191B94212DA8142F8DB009AD5
:10335000515C0029F4D10BE0002101E00199491CE6
:1033600001918142FADB019A0099895C0029F5D12B
:10337000019904981A9B471A21463846199A00F079
:1033800097FA0199401945180BE04FE02CE113E042
:103390004EE0009800990078491C00911A9A1999FA
:1033A00090470198401E0190401CF2D121463846BA
:1033B0001A9B199A10E137E00A2000210090019130
:1033C0006002410F022907D0189A01CA1892C21749
:1033D0009446032908D00AE01898C01DC108C90006
:1033E00005C91891944607E000B2C2179446042913
:1033F00002D140B2C1178C4600226146944506DADC
:103400000A460021404291418C462D2102E02105CF
:1034100004D52B216A461173012103E0E10701D095
:103420002021F7E7029155E00A200AE0102008E089
:10343000102000900021042004430191082703E09C
:1034400008200021019100906002410F022907D05D
:10345000189A01CA189200229446032908D008E05D
:103460001898C01DC108C90005C91891944603E009
:1034700080B2042900D1C0B200210291210729D5D0
:103480001199702906D0009A1021019B4A401A43D5
:1034900005D00EE040216A461173012108E0614623
:1034A000014306D030216A461173119951730221EC
:1034B0000291009A0821019B4A401A430AD16146B1
:1034C000014301D1610705D530216A4611730121FD
:1034D0007F1E02911199582904D035A10E910DA992
:1034E0000D910DE037A1F9E76146019B009AFCF7C9
:1034F0004FFE0E9B8C469B5C0D9A521E0D921370D4
:1035000061460143F0D10D9805A9081A20300190B9
:10351000600703D501200004844300E001270198DF
:10352000874201DD381A00E000200199009041181F
:10353000029809180498401A0490E00306D4214622
:103540001A9B199A049800F0B3F94519002706E070
:1035500003A81A9AC05D199990476D1C7F1C0298A8
:103560008742F5DBE0030CD521461A9B199A049893
:1035700000F09EF9451904E01A9A302019999047F5
:103580006D1C0099481E00900029F5DC08E00D989C
:103590000D990078491C0D911A9A199990476D1C44
:1035A0000199481E01900029F1DC63E1092801001E
:1035B00030313233343536373839616263646566A9
:1035C000000000003031323334353637383941426B
:1035D000434445460000000000F05AF94519761CA6
:1035E0003078002800D0E2E528461BB0F0BD600727
:1035F00000D406271898C01DC108C90048680A6889
:103600000831C30FDB071891190001D09CA108E015
:10361000210501D59BA104E0E10701D09AA100E0BA
:103620009AA1430011985B08109165280CD006DC24
:10363000452809D046281DD0472841D141E06628B9
:1036400018D067283CD13CE00021112F01DB11206C
:1036500000E0781C0191009008A911A8FFF7E8FC90
:10366000139905910021119A15927F1C12980197C8
:10367000009150E00120C00703900120019008A9AB
:10368000009711A8FFF7D4FC139A14990592002211
:10369000119B009212981593059A0192002901D06E
:1036A000104602E0791C40180190381A01D50198A3
:1036B00004E04042401E0090781C0190C01B029024
:1036C00043E0012F00DA01270021112F01DD112035
:1036D00000E038460191009008A911A8FFF7A8FC66
:1036E00013990591119A0021129815920091019752
:1036F00021070CD40599B94201DB019900E0019141
:10370000012904DD159A491E515C302906D0B842C2
:1037100001DA011D05DA0121029115E00199491E26
:10372000EDE7002805DC0099411800910199091A7C
:1037300003E0019A411C914200DD01910099401A79
:10374000401C02900120C0070390200706D4029974
:103750000198814202DB0020C043029000206946AC
:10376000C87707AF012103980337C907884224D0DF
:10377000022011902B201290039800280CDA40426E
:1037800003902D20129007E00A210398FCF7EAFC31
:1037900030317F1E039039701199481E1190002915
:1037A000F2DC03980028EFD1791E12980870307867
:1037B000202108404530BF1E387006A8C01BC01D20
:1037C000039010980078002800D00120019941183A
:1037D0000298C0170918039809180498401A401E47
:1037E0000490E00306D421461A9B199A049800F02D
:1037F0005FF8451910980078002803D01A9A199993
:1038000090476D1CE00324D521461A9B199A049811
:1038100000F04EF845191CE00098002807DB0099DD
:103820000598884203DD1598405C199901E01999C3
:1038300030201A9A904700986D1C401C0090029806
:10384000401E0290002804D11A9A2E201999904700
:103850006D1C0199481E01900029DDDC05E03878D7
:103860001A9A7F1C199990476D1C0399481E039062
:103870000029F4DC21461A9B199A0498ACE6000052
:103880002D0000002B0000002000000000000000C0
:10389000F8B5044600251E461746880404D405E002
:1038A00039462020B0476D1C641EF9D52846F8BD66
:1038B000FFB50446002581B01E46C80301D5302758
:1038C00000E02027880404D505E038460399B04776
:1038D0006D1C641EF9D5284605B0F0BD4A68002A63
:1038E00006D00A68531C0B6010704868401E486080
:1038F00070470000F7B59AB01646034600921BA227
:10390000602101A8FFF70EFB0446102E02D91027F4
:10391000002502E0374600250BE01B9815A2435D09
:103920006020011B01A80019FFF7FCFA04196D1CA7
:10393000ADB2BD42F1D3102E07D96020011B01A802
:1039400000190EA2FFF7EEFA04196020011B01A86E
:1039500000190BA2FFF7E6FA001982B2C82301A9E9
:103960000848FEF72EFA1DB0F0BD000025735B2558
:10397000755D3A002025303258000000202E2E00C0
:103980000D0A00002C0100200FB410B503AB8021FC
:103990000748029AFFF7E0FA002805DD82B26423A7
:1039A00003490448FEF70DFA10BC08BC04B01847E0
:1039B000AC0000202C010020FDF76EF9FEF7A2FEFE
:1039C000FEF79AFAFEF76CFAFEF702FBFEF734FBFD
:1039D00000F006F8FEF780FA00F016F8FEE70000A7
:1039E000EFF30580002802D00520C043704705484A
:1039F0000168002902D00020C04370470121016006
:103A0000002070478400002010B5EFF305800028E7
:103A100002D00520C04310BD08480168012902D02A
:103A20000020C04310BD0649CA691202120ACA61C9
:103A30000221016000F026FF002010BD840000205C
:103A400000ED00E0F8B51D460024EFF30583221FCA
:103A5000561C002B14D0002820D000291ED0002D89
:103A60001CD1002200926A4601F0C3F9012817D147
:103A70000098002815D001200B490007486010E08D
:103A800000280BD0002909D02A4601F031F901287D
:103A900007D0002D04D00124E44302E0144600E0E6
:103AA00034462046F8BD000000ED00E0F8B51446AD
:103AB0000025EFF30582002A2BD1002829D0002908
:103AC00027D0002C19D0A368E268002B0DD0502A13
:103AD0001FD32269002A1CD0074666694F43BE42A5
:103AE00017D3009500F0A1FF0AE0002A11D1226946
:103AF000002A0ED16269002A0BD1002200F07BFF60
:103B0000050006D0002C01D0216800E0002100F063
:103B1000F1FD2846F8BD0000F8B51D460024EFF37E
:103B20000583221F561C002B15D0002822D0002907
:103B300020D0002D1ED10022134600926A4601F0CB
:103B400056F8012818D10098002816D001200C49F9
:103B50000007486011E000280CD000290AD000239B
:103B60002A4600F0B8FF012807D0002D04D0012418
:103B7000E44302E0144600E034462046F8BD00006D
:103B800000ED00E010B5EFF30581002902D0052417
:103B9000E44305E0002805D00024214600F065FF3D
:103BA000204610BD0324E443FAE70000F8B50D46B3
:103BB0000024211F4E1C002805D0EFF30582002AA7
:103BC00012D0002D01D00C4619E000216A46009168
:103BD00001F00FF9012811D1009800280FD0012021
:103BE0000849000748600AE0294601F03EF901282B
:103BF00005D0002D02D00124E44300E034462046E5
:103C0000F8BD000000ED00E0F8B5144603460E468E
:103C10000025EFF30580002847D1002B45D09E42B8
:103C200043D8002C0AD0A0680028E06803D05028B0
:103C30003BD3012003E0002801D036E00020012B17
:103C400006D0002824D01846A26800F0BFFE22E06B
:103C5000002808D003200090002211460120A3680C
:103C600000F0E3FE04E003220021012000F0C3FE87
:103C700005001AD0002E10D000231A46194600F075
:103C80002AFF012809D0284600F046FD00250CE057
:103C9000184600F089FE050007D0002C01D02168ED
:103CA00000E00021284600F025FD2846F8BD000070
:103CB00038B50024E51E00280BD0EFF3058100295C
:103CC00012D000210091694600F0D8FF012812D1DE
:103CD00002E00324E4430FE0009800280CD0012008
:103CE00006490007486007E000231A46194600F01D
:103CF000F2FE012800D02C46204638BD00ED00E041
:103D0000F0B58C4685B000210391EFF305810029C1
:103D10003FD100283DD0802518210024002A2CD036
:103D20001368002B00D01C469369002B03D0194662
:103D30005B1E382B02D21379DB0702D0002005B0BE
:103D4000F0BD5669002E00D0B5089768D368002FE3
:103D50000ED05C2B1DD31269002A1AD0002E18D069
:103D60006E4686C663462A46214601F076F90FE084
:103D7000002B0ED11269002A0BD103AA01920091E7
:103D8000AAB26346214601F03FF9012801D0002084
:103D900003900398D3E70000F8B5134C0F46E6688C
:103DA00005462068001D00F0EBFB681C07D1002FC2
:103DB00005D021680D48091D00F032FCF8BD2068CF
:103DC000751945602168B54204D2A06B091D00F049
:103DD0000FFCF8BD606B091D00F00AFCA06A85426B
:103DE000F7D2A562F8BD0000340000204008002092
:103DF000F8B5054600F020FC294CA068401CA060E6
:103E00002068284F002803D06069002825D02AE0C8
:103E10002560A068012826D1002614207043C0190F
:103E200000F0D8FB761C382EF7D31F4800F0D2FBE9
:103E30001D48143000F0CEFB1B48283000F0CAFBB0
:103E400019483C3000F0C6FB1748503000F0C2FB68
:103E5000154860631430A06305E02068E96AC06A11
:103E6000884200D82560606A401C60626864E86A25
:103E70002169884200D9206114214843C019291DB5
:103E800000F0CEFB00F0E4FB6069002806D020685B
:103E9000E96AC06A884201D200F020FCF8BD000047
:103EA0003400002090030020F007002038B500F017
:103EB000C3FB114C206800281AD1104800F08AFB7F
:103EC0000E48143000F086FB0C48E06014300B4BB9
:103ED00020610020F03B1A460090503210210A2049
:103EE00000F0A3FD2060002802D005A100F002FC34
:103EF00000F0AEFB38BD0000700000204409002037
:103F0000546D72510000000010B5026C0C46002A7E
:103F10000CD0C1688B18C36081688B4201D21946EE
:103F200001E00168C1602046FCF762F910BDF8B5F8
:103F3000856B174604460026026C002A11D0002F1C
:103F400019D0E068FCF754F9E168206C091AE160C7
:103F50002268914202D2A168081AE060022F17D0AD
:103F600019E02068002816D1A06801F00DF9064676
:103F70000020A0600FE06068FCF73AF9216C6068EF
:103F800040186060A168884205D32068606002E044
:103F9000002D00D06D1E6D1CA5633046F8BD10B518
:103FA00004464030407E002805D0012806D0022873
:103FB00007D072B6FEE7206B00F058FB204600F0F9
:103FC00055FB10BD03210E488902420705D0C01DD4
:103FD000C0080B4AC000821A891A0A4A00234118F5
:103FE00009C20839C908C900203A11604B600B604A
:103FF0000B1A0AC093600120C007536050617047DC
:1040000024100020A00000200F4E104C104F11E093
:1040100000F012FBF068C568281D00F0B1FAA06836
:10402000401EA0606068401E606000F011FB2846E2
:10403000FFF7B5FF60680028EAD138680128F9D990
:1040400000F04CFBF6E700002C08002034000020B4
:104050009003002070B5049C1D46002909D0226001
:104060002164E0630121204600F0FFFC4034257309
:1040700070BD2460F4E7FFB581B097000C9C0D463D
:104080000A9EA5223946206BFCF7C4F8206B3F1F1F
:10409000C019C008C0000090400701D072B6FEE70A
:1040A000274640370021002D0CD0002023182A5C21
:1040B00020331A752A5C002A02D0401C1028F5D340
:1040C000F97001E034200155382E00D33726E6621E
:1040D000E6640D46201D216500F087FA2046183061
:1040E00000F083FA24613820801B6462A06165655A
:1040F0003D76049A0199009800F032FA20600B98FE
:10410000002800D0046005B0F0BD000030B51149B2
:1041100000E011460A688242FBD34B685C18844277
:1041200003D1406818184860084643681C18944238
:1041300009D1084C183C2468A24209D052689A1848
:1041400042600A6812680260814200D0086030BD97
:104150000460F9E7A000002070B5002441600B4D19
:104160000061914206D8D11A8269914206D2011D9E
:10417000286907E09A4203D2994201D3012403E05F
:10418000011DE86800F034FA204670BD7000002080
:1041900010B5044600F050FAA06B002804D00024AB
:1041A00000F056FA204610BD0124F9E7F0B587B0BB
:1041B0000125374E63E00198002806DA029A049937
:1041C000039890470198002859DB039C60690028F8
:1041D00002D0201D00F0D4F905A800F0BFF8024677
:1041E00001980300FEF7E5FE0A060606282E3F06A4
:1041F00006282E4B27462037387A284338720298F3
:10420000A169034641182046FFF7A6FF002836D0D3
:10421000216A20468847387A400730D50020009030
:104220000298A169002342181946204601F0D2F8ED
:10423000002824D172B6FEE72034207A40084000DE
:1042400020721CE020462030017A29430172029836
:10425000A061002805D0811813462046FFF77CFF97
:104260000DE072B6FEE720462030017A8A0703D4BB
:10427000204600F0FBF902E04908490001720022E3
:1042800001A9306800F034FD002894D107B0F0BDDA
:1042900070000020FEB50E46044600F027FB01A882
:1042A00000F05CF805460198002802D001F00EF8F5
:1042B000FEBD214F002E10D038690068002838D08C
:1042C0000026611B3246386800F04AFA00F0FEFF13
:1042D0000028EDD100F002FAFEBDAC42F1D800F0AA
:1042E000F5FFF8682E46C068C568281D00F048F93B
:1042F00029462031087A420714D5A86923460119B6
:1043000032462846FFF728FF00280ED0002003463B
:10431000014600902246284601F05CF8002804D1AE
:1043200072B6FEE7400840000872296A28468847AE
:10433000FEBD0126C5E70000700000200648416B65
:104340000968002905D0416BC968C968496881625C
:1043500070470021C943FAE73400002070B50546D4
:1043600000F0AEFE064E0446B068844203D200F070
:1043700009F8012000E0002028602046B46070BDEC
:1043800070000020F8B5174D21E0C068C4680668C9
:10439000201D00F0F5F8216A204688472820005D9E
:1043A000400714D5A0698019B04206D92461606025
:1043B000211DE86800F01CF909E0002003460146D1
:1043C00000903246204601F005F8002807D0E86842
:1043D00001680029D9D12969E9602861F8BD72B660
:1043E000FEE700007000002003480068401C72B621
:1043F00000D0FEE7FEE70000A8000020074CE068C0
:104400000168002907D0C06800210068FFF742FF5B
:10441000FFF7CCFEF3E701210020F7E77000002052
:10442000F8B5044600F008F9254640350526AE5794
:10443000274624370BE0606A00280AD0384600F08F
:1044400013FF002801D000F0B5F9761E76B2002ED9
:10445000F1DC0027FF436F7100F0FAF800F0ECF890
:104460000426AE572046103000900BE0206900284B
:104470000AD0009800F0F8FE002801D000F09AF968
:10448000761E76B2002EF1DC2F7100F0E1F8F8BD57
:10449000F8B50546002700F029FA2A4E30680028B2
:1044A00001D1FFF78FFD7069054242D1002D40D048
:1044B0000835680708D06807400F0821081A451911
:1044C000680701D072B6FEE7002D32D070688542D1
:1044D0002FD81C48183001460C6801E020460C46D5
:1044E0006168A94202D221680029F7D131688C4263
:1044F0001FD007682168016060680837411B1029D8
:1045000008D96019420701D072B6FEE741606560C4
:10451000FFF7FCFD61687068401A7060B2689042F5
:1045200000D2B06070690143002003C4F068401CF1
:10453000F06000F0CBFE780701D072B6FEE7384697
:10454000F8BD00008800002004490868002803D056
:104550000868026D521C026508687047340000202C
:1045600010B50124031F24061C601B1F1960191FAE
:10457000024B0B60143940380A6010BDE943000853
:104580004368826801699A60836842685A604A6831
:10459000824201D182684A60002202610868401E9E
:1045A0000860086870470000034B036018465C30E1
:1045B00008608020106070476C090020044B036085
:1045C00018465C300860FF20013010607047000022
:1045D000C80B00200146083100224160D243C1606F
:1045E0008260016100210160704700210161704714
:1045F00030B50B685A1C02D00246083202E002694C
:1046000004E02246546825689D42FAD953684B60FD
:1046100099608A60516008610168491C016030BD81
:1046200042684A6093688B60936859609160086142
:104630000168491C0160704772B604480168491C52
:104640000160BFF34F8FBFF36F8F7047A80000204A
:1046500005490868002804D0401E086000D162B6F1
:10466000704772B6FEE70000A800002070B5002871
:104670001DD004460E4D083C60686969084201D1AE
:1046800072B6FEE72268002A01D072B6FEE78843C0
:10469000606000F02BF96068696840186860204627
:1046A000FFF734FD2869401C286100F00FFE70BD43
:1046B0008800002010B5074C00202061A06106484A
:1046C0007D21C9000068FBF74DFD401E6061072099
:1046D000206110BD00E000E030000020012004490E
:1046E00000074860BFF34F8FBFF36F8F7047000024
:1046F00000ED00E010B5074B0022D4001C59002C3F
:1047000003D0521C082AF8D310BDD2009950D118FA
:10471000486010BD5003002010B5040009D000F01F
:104720000BF84620005D002802D12046FFF79EFFCF
:1047300010BD72B6FEE70000084A0021CB009B18AE
:104740005B68834205D10020C90050508918486039
:104750007047491C0829F1D370470000500300201E
:1047600070B515460E460446FFF766FF20464030FA
:10477000042282560021521C00D10171052282566A
:10478000521C00D14171FFF763FFA06B002805D1D7
:1047900020462A463146243000F024F82046FFF710
:1047A0003FFE70BD02490A6A0260C96841607047F5
:1047B0003400002001490120C86170473400002006
:1047C00010B50C46002809D0054909681831FFF7D3
:1047D0000FFF01212046FFF7DFFA10BD72B6FEE79A
:1047E0003400002070B514460D4600280DD008494D
:1047F00009681831FFF714FF002C01D00025ED43A4
:1048000021462846FFF7C8FA70BD72B6FEE70000E1
:104810003400002070B504002FD0226D002A0ED085
:10482000E06C884200D30146E06A884225D0012A24
:1048300023D1124D2A68944203D172B6FEE772B6B4
:10484000FEE7E162A269002A02DB3822511AA16167
:1048500014220B4E50436169801981420DD1201DF5
:10486000FFF78EFEE06A2969884200D92861142189
:1048700048438019211DFFF7D3FE70BD340000208E
:104880009003002030B587B00024039405AA04A942
:1048900003A80494FFF788FE0499039800940191FB
:1048A000029000230DA10F48059A00F0D6FB0E4D93
:1048B0000028E86210D000F061FD012803D0401C00
:1048C0000AD172B6FEE772B60020C043A86201208A
:1048D0006861EC6000F03EF807B030BD49444C45DB
:1048E0000000000009400008340000200248016B6D
:1048F000491C0163704700003400002010B51348C4
:10490000016B002902D00121C16110BD0021C161EC
:1049100001690F4A02E0002915D0491E14234B43B8
:10492000D358002BF7D014234B439A1853681446DE
:104930005B6808345360A34201D15B685360DA6856
:104940000260016110BD72B6FEE700003400002075
:104950009003002010B50948016AFF221204114398
:104960000162016A120211430162FFF7A3FE0449CA
:1049700000200860FBF7ACFB002010BD00ED00E05C
:10498000A800002010B5FBF7B7FB044600F09EFB23
:10499000002803D001200349000748602046FBF7A8
:1049A000AFFB10BD00ED00E010B50C46002803D0B1
:1049B000844203D972B6FEE772B6FEE702220021F6
:1049C00000F019F8002800D0846310BD38B50C46FB
:1049D000002803D0844203D972B6FEE772B6FEE720
:1049E0000221134600220091114600F01EF8002813
:1049F00000D0846338BDF8B517460E46050012D0C6
:104A000070435030FFF744FD04000AD000214620D7
:104A10000155224650323B46314628460094FFF766
:104A200019FB2046F8BD72B6FEE7F8B5069D0028D2
:104A300006D0002B06D0002A08D0002904D009E0B7
:104A400072B6FEE772B6FEE772B6FEE7002901D045
:104A500072B6FEE750241C46012640339E712B4659
:104A60000094FFF7F7FA2046F8BD70B50D46040034
:104A700025D0FFF7E1FD216CE06B48432168411828
:104A8000A1600021A16321686160E06B216C401E80
:104A9000484321684118E1600021C9432046403065
:104AA000017141713038002D0BD0FFF793FD204686
:104AB0002430FFF78FFDFFF7CBFD012070BD72B6EC
:104AC000FEE721690029F6D000F0CEFB0028F2D0E5
:104AD000FFF704FEEFE7FFB5002683B01D46040094
:104AE00003D00498002802D006E072B6FEE7206CDE
:104AF000002801D072B6FEE7022D04D1E06B012838
:104B000001D072B6FEE700F0CBFA0027002804D1EE
:104B10000598002801D072B6FEE7FFF78DFDA06B67
:104B2000E16B884207D3022D05D00598002817D0E5
:104B3000002E18D01BE02A4620460499FFF7F7F90B
:104B4000616A002903D02046243000F08DFB002844
:104B500001D0FFF7C3FDFFF77BFD012007B0F0BDDB
:104B6000FFF776FD22E06846FFF71CFE0126FFF7FF
:104B70006FFDFFF7BBFEFFF75FFD204640300421CD
:104B80004156491C00D1077105214156491C00D1ED
:104B90004771FFF75DFD05A9684600F007FA002898
:104BA00006D02046FFF73CFC00F090FB0020D5E744
:104BB000FFF742FDA06BE16B884210D1FFF748FD83
:104BC000204610300599FFF7FBFD2046FFF728FC33
:104BD00000F07CFB0028A0D1FFF780FD9DE7FFF7E8
:104BE00037FD2046FFF71CFC00F070FB95E7FFB592
:104BF00081B01E46040003D00298002802D006E0CF
:104C000072B6FEE7206C002801D072B6FEE7022ED5
:104C100004D1E06B012801D072B6FEE7FBF76CFA15
:104C20000090A06BE16B884208D3022E06D00024CE
:104C30000098FBF765FA204605B0F0BD20464030ED
:104C4000052545570746A06B324620460299FFF7D7
:104C50006EF9681C03D06D1C7D710124E8E7606A61
:104C60000028FAD02046243000F0FEFA0028F4D0C4
:104C700003980028F1D001210160EEE770B50D46E0
:104C8000040004D0206C002803D072B6FEE772B690
:104C9000FEE72068002804D1A068002801D072B681
:104CA000FEE7FBF729FAA26B0646E06B904219D9A2
:104CB0002146403105200856521CA263421C03D0F5
:104CC000401C487101240EE0606A0028FAD020469A
:104CD000243000F0C9FA0028F4D0002DF2D00120D1
:104CE0002860EFE700243046FBF70AFA204670BD43
:104CF000F7B5002582B0040003D00398002802D045
:104D000006E072B6FEE7206C002801D072B6FEE71E
:104D100000F0C6F90026002804D10498002801D02C
:104D200072B6FEE7FFF788FCA76B002F15D0204670
:104D30000399FFF7E9F87F1EA7632069002807D0D1
:104D40002046103000F090FA002801D0FFF7C6FC92
:104D5000FFF77EFC012005B0F0BD0498002802D0CA
:104D6000002D03D006E0FFF773FC27E06846FFF74D
:104D700019FD0125FFF76CFCFFF7B8FDFFF75CFCA0
:104D80002046403004214156491C00D106710521BE
:104D90004156491C00D14671FFF75AFC04A96846E8
:104DA00000F004F9002820460AD0FFF739FB00F094
:104DB0008DFA2046FFF7ECF90028B3D00020CAE7AF
:104DC000FFF7E6F900280ED0204624300499FFF7BB
:104DD000F7FC2046FFF724FB00F078FA0028A1D169
:104DE000FFF77CFC9EE72046FFF71AFB00F06EFA07
:104DF00098E7F7B582B0040003D00398002802D0EA
:104E000006E072B6FEE7206C002801D072B6FEE71D
:104E1000FBF772F90090A66B002E1FD020464030A1
:104E200004254557074620460399FFF76DF8761E7F
:104E3000A663681C03D06D1C3D7101240FE020693E
:104E40000028FAD02046103000F00EFA0028F4D0E6
:104E500004980028F1D001210160EEE700240098B9
:104E6000FBF74EF9204605B0F0BDF3B5002683B040
:104E7000041E354604D0206C002803D072B6FEE72D
:104E800072B6FEE700F00CF90027002804D1049860
:104E9000002801D072B6FEE7FFF7CEFBA06B00281A
:104EA00017D0401EA0632068002802D1FFF74CFBFA
:104EB000A0602069002807D02046103000F0D4F907
:104EC000002801D0FFF70AFCFFF7C2FB012005B064
:104ED000F0BD0498002802D0002E07D00AE0002D73
:104EE00001D072B6FEE7FFF7B3FB5CE06846FFF760
:104EF00059FC0126FFF7ACFBFFF7F8FCFFF79CFB22
:104F00002046403004214156491C00D1077105213B
:104F10004156491C00D14771FFF79AFB04A9684626
:104F200000F044F80028204614D0FFF779FA00F08A
:104F3000CDF92046FFF72CF90028ADD0002D32D056
:104F4000FFF77AFB606A002828D0206B38210068C0
:104F5000091A24E0FFF71CF9002819D0206800285E
:104F600007D1FFF769FBA06800F042F90546FFF79B
:104F70006FFB204624300499FFF722FC2046FFF700
:104F80004FFA00F0A3F9002886D1FFF7A7FB83E7CB
:104F90002046FFF745FA00F099F97DE70021A06867
:104FA000FFF738FC9FE7002091E70000F8B50C46BA
:104FB000050012D0002C12D0FFF73EFB114BDA682F
:104FC0006E682068911B471C0BD02F681B6A9F429C
:104FD0000CD096420AD8012404E072B6FEE772B6FD
:104FE000FEE70024FFF734FB2046F8BD884205D9D0
:104FF000401A20602846FFF7D5FBF2E7002020602A
:10500000E9E7000034000020FFB585B016469000A7
:105010000F9FFFF73DFA05001CD05C20FFF738FA20
:10502000040014D000205921256308550E990091E1
:105030000390019702943246089B06990598FFF762
:105040001AF82046FEF7D4FE012009B0F0BD28462C
:10505000FFF70CFB0020C043F7E7F0B585B007462B
:105060000B9D0C9C0A98002D15D0002C15D05C26A9
:105070002563022559263555002504AE009001967A
:10508000039502943846FEF7F6FF2046FEF7B0FE81
:10509000049805B0F0BD72B6FEE772B6FEE70000F8
:1050A00006484169002904D0006B002803D0002085
:1050B0007047012070470220704700003400002034
:1050C0000148C0687047000034000020F8B52C4C3F
:1050D0000027206B002804D0A069401CA06138463E
:1050E000F8BDE668761CE6600ED1606B00680028AB
:1050F00001D072B6FEE7606BA16B6163A063206AAA
:10510000401C2062FFF71AF9A06A86420AD3606B3E
:105110000068002814D0606BC068C5686868864263
:1051200011D2A06220681421C06A4843154908586A
:10513000012800D90127E0690028D0D00127CEE757
:105140000020C043EDE7281DFFF71AFAA86A0028DF
:1051500003D028461830FFF713FAE86A216988421D
:1051600000D920611421484306494018291DFFF742
:1051700057FAE86A2168C96A8842C8D30127C6E796
:10518000340000209003002070B500210446002860
:1051900028D0154D2868844201D072B6FEE7206DF4
:1051A000002808D0401E2065E36CE26A9A4219D0BC
:1051B000002802D016E072B6FEE7201DFFF7E0F9E6
:1051C000E06C3821E062081AA061E06A296988422F
:1051D00000D928611421484304494018211DFFF7D4
:1051E0001FFA0121084670BD340000209003002002
:1051F00070B504460020002C2AD0194DE16A2A68B7
:10520000D26A914225D2A069002804DB286838219F
:10521000C06A081AA061E06A1422124E5043616904
:105220008019814210D1201DFFF7AAF92868C06AB1
:10523000E0622969884200D9286114214843801915
:10524000211DFFF7EDF902E02868C06AE062012045
:1052500070BDE16C2A68D26A9142F8D370BD00003B
:10526000340000209003002070B5C068C468002C92
:105270000BD0204618300646FFF782F9104D286BF8
:10528000002804D031460F480EE072B6FEE7201D1C
:10529000FFF776F9E06A2969884200D9286114216C
:1052A000484309494018211DFFF7BAF9E06A296807
:1052B000C96A884202D90120E86170BD002070BD32
:1052C000340000201808002090030020F8B5284C76
:1052D0000025206B2E46002808D0FFF7ADF9206B83
:1052E000401E2063206B002802D03CE072B6FEE72F
:1052F000A168204F00291CD135E0F868C568284610
:105300001830FFF73DF9281DFFF73AF9E86A2169DF
:10531000884200D920611421484317494018291DAB
:10532000FFF77EF9E86A2168C96A884201D3012043
:10533000E06138680028E0D1002D01D0FEF7FEFFC3
:10534000A569002D09D00127FFF7C0FE002800D075
:10535000E7616D1EF8D10020A061E069002802D04D
:105360000126FFF7BBF9FFF773F93046F8BD0000DF
:1053700034000020180800209003002010B586B0EB
:10538000FEF794FD0F4C2068002819D000200390F0
:10539000049005AA04A903A8FFF710F90220039AB4
:1053A0000499009002920191002307A10848059AF0
:1053B000FFF753FE6060002802D0012006B010BD48
:1053C00072B6FEE770000020546D722053766300C1
:1053D000FD430008F0B51D4685B0034600200A9E37
:1053E000002B13D00F4C2768002F0DD068460EC03D
:1053F000062910DAFFF754FE022809D000231A46C6
:1054000069462068FFF767FB05B0F0BD72B6FEE79E
:1054100000233246F4E700232A4669463846FFF760
:10542000E6FBF1E770000020C45400080000000013
:105430000000000000000000000000000004000068
:105440001800000000000000000000000100020041
:105450000400060008000A000C00100020004000B4
:1054600080000001000000000000000000000000BB
:10547000000000000000000000000000000000002C
:105480000000000001000000020000000300000016
:1054900004000000060000000700000008000000F3
:1054A00009000000000000000000000000000000F3
:1054B00000000000010000000200000003000000E6
:1054C0000400000064656661756C745461736B0060
:1054D000F054000800000020AC000000103000086C
:1054E0009C550008AC0000207C1F00002030000804
:1054F00000000000000000000000000000000000AC
:10550000000000000000000000000000000000009B
:105510000000000001000000040000000000000086
:105520000024F40000000000000000000000000063
:10553000000000000000000000000000000000006B
:10554000000000000000000000000000000000005B
:10555000000000000000000000000000000000004B
:10556000000000000000000000000000000000003B
:10557000000000000000000000000000000000002B
:10558000000000000000000000000000000000001B
:0C5590000000000000000000AAAAAAAA67
:04000005080000BD32
:00000001FF
