:020000040800F2
:10000000901F002049010008111C0008011A000877
:1000100000000000000000000000000000000000E0
:10002000000000000000000000000000091E0008A1
:10003000000000000000000007010008651E000825
:100040005B0100085B0100085B0100085B01000820
:100050005B0100085B0100085B0100086103000808
:100060005B010008A1020008B10200085B01000862
:100070005B0100085B0100085B0100085B010008F0
:100080005B010008051F00085B0100085B01000818
:100090005B0100085B0100085B0100085B010008D0
:1000A0005B0100085B0100085B010008CD2500082A
:1000B0005B010008DD2500085B0100080348854658
:1000C00000F0DCF80048004703270008901F0020DC
:1000D000084B19680868203080F30988022080F3F3
:1000E0001488BFF36F8F3FBCAE4608BC04BC62B639
:1000F000184700001C000020EFF3108072B6704714
:1001000080F310887047EFF309800E4B1A6820388F
:100110001060F0C044464D4656465F46F0C008B5F4
:1001200072B603F069F962B60CBC11680868103049
:10013000F0C8A046A946B246BB4680F309882038DD
:10014000F0C818471C0000200448804704480047B6
:10015000FEE7FEE7FEE7FEE7FEE7FEE7F51E000826
:10016000BD00000830B50B460146002020220124C6
:1001700009E00D46D5409D4205D31D469540491BDB
:100180002546954040191546521E002DF1DC30BD24
:10019000F0B51FB40646002082B005464024019108
:1001A00000901BE0019922460F46304600F054F8BB
:1001B000049A059B801A994110D31046194622468D
:1001C00000F03AF8361A8F410197224601200021AB
:1001D000009F00F031F838184D4100902046641E11
:1001E0000028DFDC019B00982946324607B0F0BDAD
:1001F00003460B439B0703D009E008C9121F08C040
:10020000042AFAD203E00B780370401C491C521EEA
:10021000F9D27047D2B201E00270401C491EFBD2F5
:1002200070470022F6E710B513460A460446194601
:10023000FFF7F0FF204610BD10B5202A04DB014671
:10024000203A9140002010BD914020239C1A034683
:10025000E3401943904010BD10B5202A04DB084646
:10026000203AD040002110BD0B46D340D04020247E
:10027000A21A91400843194610BD0000064C012502
:10028000064E05E0E36807CC2B430C3C984710343E
:10029000B442F7D3FFF716FF503D0008703D000849
:1002A00010B5024800F0ECF810BD0000B4010020C9
:1002B00010B5024800F0E4F810BD00001002002064
:1002C00010B50446006C094980088000401860643D
:1002D000207814210838FFF745FF04498031A164D4
:1002E000C106C90E01208840E06410BD000802402C
:1002F0000179084B8906890E8A00D2180265054AE1
:100300004432491E42658A07920F0121914081655E
:1003100070470000FC080240F0B5846CC56C656055
:10032000046D002C02D0446D856D65600B4C6568D2
:10033000066C1C273E400127B7403D4365600468BA
:1003400063608368102B036803D099600068C26003
:10035000F0BD9A600068C160F0BD0000000002407E
:1003600010B5402000F082F90120000300F07EF972
:100370000120400300F07AF90120800300F076F9B3
:100380000120C00300F072F910BD72B6FEE7000054
:10039000F0B5002808D0014620314A79022A05D05C
:1003A0000422C263002008710120F0BD02681368B6
:1003B0000E24A3431360426C1468FF2301339C4353
:1003C0001460026814686408640014600C4A55687C
:1003D000066C1C24264001242746B7403D43556047
:1003E000826CC56C5560026D002A05D015689D436E
:1003F0001560826D406D42604C7100200871F0BD47
:1004000000000240F8B5002402462032517902294A
:1004100003D00421C16301242DE001680B680E257F
:10042000AB430B6001680B685B085B000B60416CC1
:100430000B68FF250135AB430B6010494D68066C16
:100440001C231E4001231F46B7403D434D60816C75
:10045000C56C4D60016D002906D00E681D02AE43CB
:100460000E60416D856D4D60537100211171816B7E
:10047000002900D088472046F8BD00000000024057
:10048000F0B42C490C6802681368056C1C273D40C9
:100490000426AE40264211D05E070FD513689B0696
:1004A00003D4146804239C4314604B68046C042236
:1004B0003C40A24013434B60016B1CE00227AF405D
:1004C000064627402036002F19D09F0717D51368FE
:1004D0009B0605D413680A24A3431360012272719A
:1004E0004B68046C1C2214400222A24013434B6050
:1004F00000213171C16A00291AD0F0BC08470827D1
:10050000AF40274214D01B0712D513680E24A34313
:1005100013604B68046C1C22144001221546A54050
:100520002B434B60C263727100213171416BE2E772
:10053000F0BC70470000024070B504003FD0254871
:10054000256814212818FFF70DFE80002064022082
:1005500026462036707128681F4908402860E168E7
:10056000A06862690843216911430843A1690843EF
:10057000E1690843216A084321680A68104308605A
:100580002046FFF79DFE0121A068890300258842CF
:1005900000D165602079616C8006800E0860A06CD7
:1005A000E16C41606068401E03280AD82046FFF7CE
:1005B0009FFE206D0560606DA16D416004E001202B
:1005C00070BD25656565A565E563012070713571B0
:1005D000002070BDF8FFFDBF0F80FFFFF8B5044697
:1005E0008C4620300179002501290BD001260671A7
:1005F00041790027012907D08021E1630771012596
:100600002846F8BD0220F8BD02214171E763206849
:10061000016849084900016061462046FFF77CFEF9
:10062000206B00282068016801D00E2205E004221A
:1006300091430160206801680A2211430160606CE7
:100640000168CA03074902D502680A430260206DA7
:10065000002802D002680A43026020680168314322
:100660000160CDE7000100007047000070B5084D43
:100670000446E868204203D0EC60204600F00AF807
:100680002869204203D02C612046FFF7EDFF70BDA2
:100690000018024070470000FCB5002301259AE0D5
:1006A00022462C469C4022406FD04E68012E05D039
:1006B000022E03D0112E01D0122E16D186680327E8
:1006C000B4465E00B646B7406646BE43B446CF6801
:1006D0007646B7406646374387604668A6430C793E
:1006E000E406E40F9C4034434460C6685F00032482
:1006F000BC40A446A6438C68BC403443C4604C68EC
:10070000022C01D0122C14D1DC08A400241801946E
:10071000266A5C07B646E60E0F24B440009676467D
:10072000A643B6460C69009EB44076462643019C1B
:10073000266204686646B4430E79B607B60FBE401B
:10074000264306604C68E40044D59E08254CB6005C
:100750003419A446246E9E07F60E0F27B740BC43FB
:1007600005273F07B84201D1002710E01E4FB842CD
:1007700001D101270BE01D4FB84201D1022706E04D
:100780001B4FB84202D1032701E023E00527B74001
:10079000274364462766134E803634684F68944377
:1007A000FF0300D51443346074684F689443BF035B
:1007B00000D5144374600B4C26684F689643FF02C3
:1007C00000D51643266066684F689643BF0200D581
:1007D000164366605B1C0A681446DA4000D05FE787
:1007E000FCBD00000018024000040050000800504A
:1007F000000C00500069084000D001207047002A1A
:1008000001D08161704781627047000001488068B3
:10081000704700000C0000200248816802788918A7
:10082000816070470C00002010B508480024016862
:10083000821511430160204600F00AF8002801D01B
:10084000012401E000F040F8204610BD00200240E5
:1008500000B5014687B00022112000F05FF811209A
:1008600000F050F81348C26B10210A43C263C06BFA
:100870000840059004A9684600F016FA00F030FA26
:100880000D49FFF76FFC0E490C4A0A600D4A401EE5
:10089000CA604860002008618860084600F07FFC5C
:1008A000002802D0012007B000BD054800F09EFCE2
:1008B000F9E700000010024040420F000010004025
:1008C0006C020020E703000008B50D480168012212
:1008D0001143016000681040009009484038C26B25
:1008E00001040A43C263C06B002208400321009048
:1008F000481F00F013F80320400200F043FC08BD3D
:1009000040100240002805DBC106C90E01208840C6
:10091000014908607047000000E100E010B501F0F7
:10092000BFFE10BD10B50F4C216803225202914347
:1009300001432160C11FFF39FA390ED10A4806214F
:10094000006848430949FFF70DFC401C02E00028FD
:1009500005D0401E61694905F9D4002010BD03206F
:1009600010BD0000007000401800002040420F0041
:10097000FEB5044600680027704D714E800355D5C2
:1009800000200090F06BC00007D4F16BA805014374
:10099000F163F16B0140012000906A480168821503
:1009A00011430160FFF732FF019005E0FFF72EFFD2
:1009B0000199401A022825D862480068C005F5D57B
:1009C000E8690321090208400FD0216B81420CD055
:1009D000E86903210902EA698843012109040A43FD
:1009E000EA61EA698A43EA61E861C0070FD0FFF76C
:1009F0000DFF019008E0FFF709FF0199411A5248E5
:100A0000814201D9032709E0E8698007F3D5E86945
:100A1000032109028843216B0843E86100980028FC
:100A200004D0F16B012000078143F1632078C007F7
:100A300005D0686961688008800008436861207893
:100A4000800705D568690C218843A168084368615F
:100A50002078C00606D56869032189028843E168C9
:100A6000084368612088800506D5686903218904E8
:100A70008843A169084368612088400506D56869F4
:100A8000032109058843E1690843686120788006ED
:100A900006D5686903210903884321690843686111
:100AA000208840040ED56869216A800080080843C8
:100AB00068610121206A8907884203D1F06889139F
:100AC0000843F0602068000305D568694021884329
:100AD000616A08436861206881021C480BD5696916
:100AE0008210A36A914319436961A16A914202D1BC
:100AF000F1680143F160216849020AD56969E26A37
:100B0000814311436961E16A814202D1F168014385
:100B1000F160208800050FD56869032189038843A7
:100B2000616908436861012160698903884203D1D2
:100B3000F06889000843F0603846FEBD401002406E
:100B40000010024000700040881300000000000107
:100B5000F8B50F46060043D04D4D28684007400FBA
:100B6000B84213D22868C008C00038432860FFF795
:100B70004DFE044605E0FFF749FE011B4548814252
:100B800061D828684007400FB842F4D13068424C21
:100B900081070DD5400704D5A06807210903084344
:100BA000A060A0680F2109028843B1680843A060D3
:100BB0003078C00732D0706801280AD002280BD0E4
:100BC00000280FD03449403103280ED0C969890765
:100BD00004E02168890301E021688901002906DB1E
:100BE0000120F8BD21684905F8E7096AEFE7A16827
:100BF000C908C9000143A160FFF708FE009006E0A4
:100C0000FFF704FE0099411A224881421BD8A068D0
:100C1000382108407168C9008842F1D1286840072E
:100C2000400FB84217D91A480168C908C9003943AA
:100C30000160FFF7EBFD054607E0FFF7E7FD411B0D
:100C40001448814201D90320F8BD114800684007CB
:100C5000400FB842F1D13078400706D5A06807218F
:100C600009038843F1680843A06000F04DF8A168CB
:100C70003C2289091140094A515CC906C90EC84085
:100C80000749086007480068FFF7E2FDF8BD00006B
:100C9000002002408813000000100240E43C0008DD
:100CA000180000201000002010B5072202600A4A38
:100CB00093685B075B0F436093680F242402234013
:100CC0008360926807231B031A40C26003480068D0
:100CD0004007400F086010BD001002400020024095
:100CE0000648074900688968064A4904490F89008F
:100CF000515CC906C90EC8407047000018000020AA
:100D000000100240243D000810B5204CA068204A85
:100D10008006400F16D0A0688006410F50100129B0
:100D20000FD0A1688906490F022912D0A068800659
:100D3000400F042823D0A0688006400F032821D04C
:100D4000002010BD206801218004400F8140104622
:100D500012E0E1688B07E1689B0F4906490F491CC7
:100D6000032B00D01046FFF7FDF9E1684904490E56
:100D70004843E168490F491CFFF7F4F910BD012011
:100D8000C00310BD7D20000210BD00000010024015
:100D90000024F400F8B504007ED020783827C0077E
:100DA000EF4D002846D0A868E96838408907890FC8
:100DB000102802D008280BD001E0032908D0012018
:100DC0006268000482420AD129680143296015E063
:100DD000286880032ED560680028DDD02AE005232E
:100DE00001211B0489049A422A6802D10A432A601D
:100DF000EAE782432A602868884328606068002800
:100E00000CD0FFF703FD064604E0FFF7FFFC801B54
:100E1000642873D828688003F7D50BE0FFF7F6FC49
:100E2000064604E0FFF7F2FC801B6428F1D828682E
:100E30008003F7D42078800769D5A868E96838402E
:100E40008A070721920FC902102802D0002813D068
:100E500001E0022A10D0E068002846D028688843C4
:100E60002169084328602868FF2101310843286070
:100E7000FFF7CCFC06462CE02A68520502D5E26852
:100E8000002A89D06A687F231B029A4363691B0288
:100E90001A436A60002800E08DE00ED1286888437C
:100EA000216908432860286801218004400F81409F
:100EB000AC48FFF757F9AC490860AC480068FFF749
:100EC000C7FC002877D122E0FFF7A0FC801B022896
:100ED0009FD828684005F7D568687F2109028843B4
:100EE000616909020843686011E02968FF20013048
:100EF00081432960FFF78AFC064605E098E0FFF78A
:100F000085FC801B022884D828684005F7D4207807
:100F1000974E00072ED5A8688006400F03280AD0F8
:100F2000A0690028306A16D0012108433062FFF71B
:100F30006DFC07460BE0306A80071BD5A0690028CE
:100F40009FD017E0FFF762FCC01B022870D8306A00
:100F50008007F7D50EE0400840003062FFF756FCEE
:100F6000074604E0FFF752FCC01B022860D8306A35
:100F70008007F7D4207840076CD5A8680027800642
:100F8000400F042818D0E86BC00008D4E96B01209A
:100F900000070143E963E96B0140012700917548AF
:100FA0000168C90519D40168821511430160FFF772
:100FB0002DFC00900DE083E0F06980074AD5A06821
:100FC00000287DD046E0FFF721FC0099401A022856
:100FD0002ED868480068C005F5D5A168012910D051
:100FE00004200529F16911D049084900F161F1692E
:100FF0008143F161A068002816D0FFF707FC00903C
:101000000EE0F06901210843F061F3E70143F1616B
:10101000F7E7FFF7FBFB0099411A574881426FD869
:10102000F0698007F5D50EE0FFF7F0FB009007E0D0
:1010300066E0FFF7EBFB0099411A4F4881425FD809
:10104000F0698007F5D4002F04D0E86B012109076F
:101050008843E863E06900287FD0A9688906490FC2
:10106000022953D001263606022828680DD0B04345
:101070002860E86880088000E860E8683F49084028
:10108000E860FFF7C3FB04463CE0B0432860FFF78D
:10109000BDFB074604E0FFF7B9FBC01B02282FD8B1
:1010A00028688001F7D4616A206AA26A0843E16A6D
:1010B000120211430843216B0843616B084300E0AF
:1010C00049E0E9682E4A11400843E8602868304347
:1010D0002860E868012109070843E860FFF796FBEC
:1010E000044604E0FFF792FB001B022808D828689A
:1010F0008001F7D531E0FFF789FB001B022801D9F9
:101100000320F8BD28688001F5D426E00128F8D036
:10111000E868226A8107890F91421CD17021626AB6
:101120000140914217D17F21A26A090201401202B7
:10113000914210D11F214904E26A014091420AD133
:1011400007214906226B0140914204D1400F616B97
:101150004007884201D00120F8BD0020F8BD000002
:10116000001002400024F4001800002010000020AD
:10117000401002400070004088130000FFFFFEEEA8
:101180008C80C11103490A6803235B029A4302431E
:101190000A6070470000014070477047704770B5A3
:1011A000040005D025462035687F002802D006E0DF
:1011B000012070BD00202877204600F016F802209C
:1011C0006877211D206800F0A5FE012240342272BC
:1011D000AA77EA7722706270A270E270227162715F
:1011E000A271E2716A77002070BD7047014620311C
:1011F0004A7F012A01D00120704702224A77016804
:10120000CB6801221343CB6000680C49884208D0A8
:101210009107884205D00A49884202D0094988428C
:1012200007D18168084B1940062905D0DB1F994278
:1012300002D001681143016000207047002C01407A
:10124000000400400040014007000100704700001A
:1012500070B50446006801690025C9438907002963
:1012600015DBC168C943890711D4E91E016101205A
:101270002077206880698007204602D0FFF7E6FFCC
:1012800004E000F0A7F8204600F0A5F825772068D4
:101290000169C943490717D4C168C943490713D431
:1012A0000421C943016102202077206880698005FC
:1012B000800F204602D0FFF7C9FF04E000F08AF853
:1012C000204600F088F8257720680169C94309079E
:1012D00016D4C168C943090712D40821C943016162
:1012E000042020772068C0698007204602D0FFF7DD
:1012F000ADFF04E000F06EF8204600F06CF82577B2
:1013000020680169C943C90617D4C168C943C90621
:1013100013D41021C9430161082020772068C069D7
:101320008005800F204602D0FFF790FF04E000F018
:1013300051F8204600F04FF8257720680169C9432D
:10134000C90708D1C168C943C90704D1891E016111
:10135000204600F041F820680169C943090609D414
:10136000C168C943090605D48021C94301612046EB
:10137000FFF713FF20680169C943C90508D4C16894
:10138000C943090604D4124901612046FFF704FF4E
:1013900020680169C943490609D4C168C94349069F
:1013A00005D44021C9430161204600F01FF82068A0
:1013B0000169C943890609D4C168C943890605D4AE
:1013C0002021C94301612046FFF7E8FE70BD0000FF
:1013D000FFFEFFFF7047704710B500680249884262
:1013E00001D1FFF719FA10BD00100040704710B589
:1013F000014680310A78012A15D001220A70242280
:101400004A6002681368146864086400146001226A
:101410005207934300224266006803602020486020
:101420000A70104610BD022010BD7047704770B59D
:10143000044605468034207801281AD00120207007
:101440002420606028680668026852085200026022
:101450002868826807235B069A430A43826028460D
:1014600000F0A2FD28680660202060600020207047
:1014700070BD022070BD70B50446054680342078EA
:10148000012819D001202070242060602868066897
:10149000026852085200026028688268D200D208AE
:1014A0000A438260284600F07FFD286806602020FD
:1014B00060600020207070BD022070BD70477047D2
:1014C00070470000F8B503680446D96918689A683F
:1014D000914D0E462E4025468035002E6CD08F4E05
:1014E0008F4F1640074037437FD0CF0706D0C70540
:1014F00004D501271F62EB683B43EB608B0708D5DF
:10150000D30706D0276802233B62EB6804273B43DE
:10151000EB604B0708D5D30706D0276804233B624E
:10152000EB6802273B43EB600B0709D52023034000
:10153000334305D0266808233362EE681E43EE600D
:101540000B0509D5430107D501232668DB02336269
:10155000EB6820263343EB60EB68002B3AD089061A
:101560000AD520210840C9050A40104304D0216F44
:10157000002901D020468847E86821688968490623
:1015800002D4282108422AD0204600F045FE2068D7
:10159000816849061FD5826840218A438260E06FD6
:1015A000002818D05F498163E06FFEF72BFF002809
:1015B00010D0E06F816B0CE08E0616D50127202637
:1015C0003F07064017403E430FD0216F7FE00CE0FD
:1015D00020468847F8BD2046FFF772FFF8BD204639
:1015E000FFF76EFF0020E860F8BDE66E012E59D1CE
:1015F000CE0657D5C60655D510221A6220688168D6
:1016000026464906403600292BDAE36F19684968F7
:101610000904090CE8D0B78B8F42E5D9F18319682A
:101620000968890618D4016813019943016020688C
:101630008168490849008160206881684023994396
:1016400081602020A8600020E06620680168914346
:101650000160E06FFEF79CFEB08BF18B401A81B207
:101660001CE0B18BF38BC91AF38B89B2002BBBD072
:101670000029B9D00368FF262136B34303602068F0
:101680008368264EF643334083602020A860002004
:10169000E066206720680368934303602046FFF7F5
:1016A000C4FEF8BDCE0208D5560206D501200005BD
:1016B00018622046FFF703FFF8BD0E060BD5012781
:1016C0008026FF0506403A40164304D0616F00298A
:1016D00000D07DE7F8BD4A060DD542060BD51A6845
:1016E000204640218A431A602021696000216167F9
:1016F00000F085F9F8BD0A0205D5420003D5204661
:10170000FFF7DCFEF8BDC901FCD50028FADA204657
:10171000FFF78CFEF8BD00000F080000010000106C
:10172000200100043921000870B5040005D02546C9
:1017300080356868002802D006E0012070BD0020D6
:101740002870204600F026F8242068602068016890
:10175000490849000160204600F08AFD0128EDD0CB
:10176000A06A002802D0204600F04EFC20684168A4
:101770000922D20291434160206881682A22914364
:10178000816020680168012211430160204600F059
:10179000A1FC70BDF0B587B0064614216846FEF77F
:1017A00040FD404D326800243F4801210223AA42F7
:1017B00037D13D4A403217688D032F4317601268B6
:1017C0002A400592426B0A434263406B6A460840D6
:1017D00005900320400219C2049105200394694634
:1017E0000007FEF759FF324D30482860AC603220C8
:1017F000EC6068606C618020AC61286120202C6204
:10180000E8612846FEF798FE002801D0FEF7BDFDEE
:10181000F567002203211B20AE62FFF77FF81B2033
:101820003CE0244DAA423BD1C56B0122D2041543B2
:10183000C563C56B15400595426B0A434263406B17
:101840000291C007C00F059003200090042004906F
:1018500005200394019369460007FEF71DFF134816
:10186000134D14305C352860AC603820EC60686043
:101870006C618020AC61286120202C62E8612846E0
:10188000FEF75AFE002801D0FEF77FFDF567002223
:1018900003211D20AE62FFF741F81D20FFF732F84B
:1018A00007B0F0BD003801400010024008000240BF
:1018B000B4010020004C004070B5034680339C68A2
:1018C000202C19D100290BD0002A09D001258468C9
:1018D0002D03AC4206D10469002C03D1CC0701D002
:1018E000012070BD1C78012C06D001241C7000233F
:1018F000C36600F0DBFD70BD022070BD10B500684E
:101900000649884208D106484068002804D00023D0
:101910001A46034900F0A4FF10BD0000004C00402F
:10192000000000207047FFB5064604468036706808
:1019300083B00D46202860D1002D0CD005980028DA
:1019400009D00120A1680003814207D12069002845
:1019500004D1E80702D0012007B0F0BD307801289B
:101960004BD0012030700020F06021207060FEF725
:101970004DFF0190274640370598B8820598F882B8
:101980000120A1680003814202D12069002804D00F
:10199000029500250020307015E000200290F9E744
:1019A00000228021204600F0C3FD002818D10298B3
:1019B000002817D02168007888620298401C0290A5
:1019C000F88A401EF882F88A019B00280698009049
:1019D000E6D100224021204600F0AAFD002808D0D0
:1019E0000320B9E728882168C005C00D8862AD1CB6
:1019F000E6E7202070600020AEE70220ACE77047E9
:101A0000FEE7000008B50C48816B01221143816399
:101A1000806B03211040009000220920FEF77EFF1A
:101A20000920FEF76FFF002203210A20FEF776FF50
:101A30000A20FEF767FF08BD0010024010B5044AF7
:101A40000021044800F042FF0349886010BD0000F7
:101A5000A83C00080D1E000800000020F0B587B06B
:101A600014216846FEF7DDFB2C48416B012631430B
:101A70004163416B31400591416B0225294341632C
:101A8000416B29400591426B04210A434263406B3C
:101A90000022084005900520FC210007FEF7AFFE5C
:101AA0001F4F002239461F48FEF7A9FEFC20009078
:101AB0000024052069460196029503940007FEF76D
:101AC000EBFD694617480097019602950394FEF7CF
:101AD000E3FDE80200901448019069460294114821
:101AE000FEF7DAFD07204003104D0090694601958E
:101AF00002940C48FEF7D0FD402000906946019505
:101B000002940B48FEF7C8FD002203210720FEF7D0
:101B100005FF0720FEF7F6FE07B0F0BD00100240FB
:101B2000070C0000000400500000111000003110EC
:101B30000008005010B5184816490160E12149021B
:101B4000416000218160C16001618161C161016208
:101B50000C22416242618162FFF7E6FD002801D05C
:101B6000FEF713FC00210C48FFF785FC002801D08C
:101B7000FEF70BFC00210848FFF759FC002801D0B4
:101B8000FEF703FC0448FFF732FC002801D0FEF703
:101B9000FCFB10BD003801409400002010B50D483A
:101BA0000B490160E1214902416000218160C1606F
:101BB00001618161C16101620C2241624261816205
:101BC000FFF7B2FD002801D0FEF7DFFB10BD0000DB
:101BD000004C00402401002030B503460A480B4C5D
:101BE0000CE01A78504000225B1CC50702D0400868
:101BF000604000E04008521C082AF6DB0A46491EF5
:101C000089B2002AEDD130BDFFFF000001A0000025
:101C1000FEE700007CB5044600780E461A2838D14D
:101C2000B01E81B22046FFF7D7FFA1191E394A7FA7
:101C30000B7F1102194388422BD160781A250628A0
:101C400028D0042825D1E078A1780002084341BAC1
:101C5000607922790002104340BA002919D1012885
:101C600017D100F041F869460D7004224A70022233
:101C70008A70020ACA70087105216846FFF7ACFF36
:101C800069464871000A6423887107221548FFF7E6
:101C90004AFE7CBD082EFCD3E078A1780002084300
:101CA000617922790902114340BA49BA0028F0D17A
:101CB000084600F09BFC69460D7006204870A0782D
:101CC0008870E078C87020790871607948710621C1
:101CD0006846FFF781FF69468871000A6423C8716E
:101CE0000822D3E724010020F8B505263607002492
:101CF00080213046FEF77EFD012800D10124404DB1
:101D000001212846FEF776FD012801D10220044377
:101D100002212846FEF76EFD012801D1042004436C
:101D200004212846FEF766FD012801D1082004435E
:101D30000127BF0239462846FEF75CFD012801D184
:101D4000102004430121C9022846FEF753FD012853
:101D500001D12020044308213046FEF74BFD012825
:101D600001D14020044304213046FEF743FD012801
:101D700001D18020044320213046FEF73BFD01289D
:101D800001D10002044340213046FEF733FD012813
:101D900001D14002044310213046FEF72BFD0128FB
:101DA00000D13C430126360331462846FEF722FD8A
:101DB000012801D1C00204430121C9032846FEF7CE
:101DC00019FD012800D1344340210E48FEF712FDD1
:101DD00001267603012800D134430127BF03394689
:101DE0002846FEF707FD012800D13C43314628462E
:101DF000FEF700FD012801D1C00304432046F8BDD1
:101E00000004005000080050704700000024A2B0F9
:101E100022460121802000F0EDFC104D0122686077
:101E200029460F48FFF748FD01AE05230022694609
:101E3000686800F0ABFC002807D0082C03D32146CB
:101E400001A8FFF7E7FE0024EFE7802CEDD26846FB
:101E500000783055641CA4B2E7E7000000000020C1
:101E60002401002010B50448006901F095FD012807
:101E700001D001F005FB10BD00E000E010B5A0B0FE
:101E800038216846FEF7CDF900241B941C941D945C
:101E900034210EA81E94FEF7C4F901204002FEF77B
:101EA00041FD02200090C001039040200590049461
:101EB00007946846FEF76EFF002801D072B6FEE771
:101EC00007201B901C941D9400211E941BA8FEF754
:101ED0003FFE002801D072B6FEE701200E900F945D
:101EE0000EA8FEF745FD002801D072B6FEE720B02F
:101EF00010BD000001200249C00688607047000044
:101F000000ED00E010B50248FFF7A2F910BD000097
:101F10006C020020F0B502681D4B0124A4071D4D82
:101F2000984203D0A04201D0A84203D17026B24308
:101F30004E683243184E194F98420DD0A0420BD034
:101F4000A84209D0164CA04206D0B04204D0B842F4
:101F500002D0144CA04204D103242402A243CC6832
:101F600022438024A2434C69224302608A68C262F1
:101F70000A688262984206D0B04204D0B84202D0C9
:101F8000084A904201D10969016301214161F0BD14
:101F9000002C01400004004000400140004401408A
:101FA0000020004000480140F0B513A106C985B0EB
:101FB0000192009112A206CA039202910446416E58
:101FC0004034002915D000688168806809014D0FF0
:101FD000400F02AE315C6F46385CC000FEF7C2F8BD
:101FE0006085785D715DC000FEF7BCF8208505B0A6
:101FF000F0BD01206085F9E7010101030701000040
:10200000080402040801010110B5018DC90707D0B9
:1020100001684A6801235B049A43C36A1A434A6011
:10202000018D890707D501684A6801231B049A437B
:10203000036B1A434A60018D490707D501684A6856
:1020400001239B049A43436B1A434A60018D09079D
:1020500007D501684A680123DB039A43836B1A435F
:102060004A60018DC90607D50268916801231B03E8
:102070009943C36B19439160018D890607D50168A7
:102080008A6801235B039A43036C1A438A60018DBB
:10209000490612D503685A6801210905446C8A4330
:1020A00022435A60426C8A4207D102685168032376
:1020B0005B059943836C19435160018D090607D56F
:1020C00001684A680123DB04C06C9A4302434A60FA
:1020D00010BD0000FEB50546002680350446EE60C2
:1020E000FEF794FB019020680068124F000709D5A5
:1020F00001210097002249052046019B00F018FAB3
:1021000000280DD12068006840070BD501210097F9
:10211000002289052046019B00F00AFA002801D020
:102120000320FEBD20206860A860E6662E700020B7
:10213000FEBD0000FFFFFF0110B5806A00220146CE
:102140004031CA83CA82FFF7BBF910BDF8B5846A73
:1021500020468030416805468668206880680027F0
:102160000006002806DA212904D15620075320460C
:1021700000F06EF820688068400606D5222E04D153
:102180005E200753204600F047F8E8681021084316
:10219000E8602046FFF794F9F8BD10B501460968DC
:1021A000806A096889061DD400225E210A520168EE
:1021B0000A68FF2301339A430A6001688A6852085B
:1021C00052008A6001688A6840239A438A6020220C
:1021D00088210A50C16E012904D101680A681023C0
:1021E0009A430A60C16E012902D0FFF787FB10BD38
:1021F0005C21095AFFF719F910BD10B5806AC16E4C
:10220000012902D0FFF78EFB10BD5C21095A490855
:10221000FFF70BF910BD000001680A68FF232133A6
:102220009A430A6001688A68084B1A408A60C16E46
:10223000012904D101680A6810239A430A60202208
:1022400088210A500021C16601677047FEFFFFEF39
:1022500001680A68C0239A430A6001688A680123FA
:10226000DB059A438A60202180304160704700007E
:10227000F8B504462269A168E56911436269002640
:102280002A431143626E00680A437C4B01687C4D0F
:1022900029401143016020684168032212039143E1
:1022A000E268114341602168A069994201D0226A25
:1022B00010438A68734D2A4002438A602068C16ACD
:1022C000626A090909011143C1626F4922686F48B6
:1022D0008A420AD140698007800F1AD001283DD078
:1022E000022839D0032827D124E069498A420AD13B
:1022F00040690C2108400CD004282FD008282BD08E
:102300000C2819D116E063498A4202D062498A42F8
:1023100001D1002111E09A420ED1416903208002CF
:1023200001400AD001208002091A17D0091A13D0DF
:10233000814201D1082100E010210120574D584F62
:10234000C0039A423BD100290AD0022911D00429A6
:1023500009D008297ED10BE00221EEE70421ECE749
:10236000FEF7BEFC01E0FEF7CFFC050001D17AE0EC
:102370000546606A4000395A28460091FDF7F2FE92
:10238000676879007918814269D83903814266D338
:10239000002328461946009AFDF7FAFE020E0902AC
:1023A0000302780811431818002251413A460023CD
:1023B000FDF7EEFE03210902411A3A4A4DE0E269B7
:1023C000824228D1002906D0022907D0042907D04B
:1023D000082944D108E0FEF783FC03E0284603E027
:1023E000FEF792FC00283ED0616A4900795AFDF759
:1023F000B9FE616840004A088018FDF7B3FE80B25C
:1024000002462949103A8A4229D8491C014000074E
:10241000400F084325E0002906D0022907D00429EF
:1024200007D008291BD108E0FEF75AFC03E0284634
:1024300003E0FEF769FC002815D0616A4900795A6B
:10244000FDF790FE61684A088018FDF78BFE80B2A8
:10245000014600E003E0144A1039914201D90126F7
:1024600001E02168C8602046012140304185018596
:102470000020206760673046F8BD00000080004003
:10248000F369FFCFFFF4FF11003801404010024014
:102490000044004000480040004C00400024F4008C
:1024A000CC3C0008FFFC0F00EFFF0000F8B504462D
:1024B000816540300026254682838035EE602220EB
:1024C000A860E06F00281AD01649C162E16F164873
:1024D0000863E16F15484863E06F13468663A76D94
:1024E00021683A462431E06FFEF778F8002806D0DC
:1024F0001020E8602E70202068600120F8BD2E704A
:1025000020680168FF220132114301602068816860
:10251000012211438160206881684022114381605B
:102520000020F8BD9B210008FB2100084D21000878
:10253000FFB581B005460F46044680350A9E38E057
:10254000701C36D0FEF762F90499401AB04221D8C7
:10255000002E1FD02068016849072AD5C069C043F2
:10256000000526D401202168C002086220680168A5
:10257000FF22A13291430160206881684908490027
:10258000816020206860A860E86000202870032037
:1025900005B0F0BD20680168FF22A13291430160BF
:1025A0002068816849084900816020206860A8602F
:1025B000EBE72068C1693846884305D000210398BD
:1025C0008142BDD00020E3E70121F8E710B50248C1
:1025D000FEF778FF10BD00009400002010B50248FF
:1025E000FEF770FF10BD00002401002070B5C20787
:1025F000052504462D07D20F80212846FEF7FFF857
:10260000A0071F4EC20F01213046FEF7F8F8600701
:10261000C20F02213046FEF7F2F82007C20F042154
:102620003046FEF7ECF8E006C20F01218902304681
:10263000FEF7E5F8A006C20F0121C9023046FEF7F9
:10264000DEF86006C20F08212846FEF7D8F82006FB
:10265000C20F04212846FEF7D2F8E005C20F202160
:102660002846FEF7CCF8A005C20F40212846FEF709
:10267000C6F86005C20F10212846FEF7C0F870BDED
:102680000004005030B47446641E2578641CAB42CC
:1026900000D21D46635D5B00E31830BC18470000A4
:1026A0008307FF22DB0E9A408907090E9940002814
:1026B00008DB830809489B001B18186890430843EF
:1026C000186070470007000F0838830804489B0013
:1026D0001B18D86990430843D861704700E400E0B4
:1026E00000ED00E002E008C8121F08C1002AFAD17C
:1026F00070477047002001E001C1121F002AFBD182
:102700007047FEF791F8FFF7B9FBFFF7A7F9FFF75E
:1027100079F9FFF70FFAFFF741FA00F005F8FFF734
:102720008DF900F015F8FEE7EFF30580002802D0E0
:102730000520C043704705480168002902D00020E9
:10274000C043704701210160002070476C000020E9
:1027500010B5EFF30580002802D00520C04310BD5E
:1027600008480168012902D00020C04310BD064975
:10277000CA691202120ACA610221016000F000FE59
:10278000002010BD6C00002000ED00E0F8B51D46F3
:102790000024EFF30583221F561C002B14D00028C1
:1027A00020D000291ED0002D1CD1002200926A46A4
:1027B00001F03CF8012817D10098002815D001201D
:1027C0000B490007486010E000280BD0002909D011
:1027D0002A4600F0AAFF012807D0002D04D00124CA
:1027E000E44302E0144600E034462046F8BD000011
:1027F00000ED00E0F8B514460025EFF30582002A4D
:102800002BD1002829D0002927D0002C19D0A3686B
:10281000E268002B0DD0502A1FD32269002A1CD059
:10282000074666694F43BE4217D3009500F054FE39
:102830000AE0002A11D12269002A0ED16269002A19
:102840000BD1002200F02EFE050006D0002C01D096
:10285000216800E0002100F027FD2846F8BD0000B7
:10286000F8B51D460024EFF30583221F561C002BEC
:1028700015D0002822D0002920D0002D1ED1002202
:10288000134600926A4600F009FF012818D100980B
:10289000002816D001200C490007486011E00028EC
:1028A0000CD000290AD000232A4600F06BFE012834
:1028B00007D0002D04D00124E44302E0144600E0D8
:1028C00034462046F8BD000000ED00E0F0B58C462F
:1028D00085B000210391EFF3058100293FD1002845
:1028E0003DD0802518210024002A2CD01368002B0D
:1028F00000D01C469369002B03D019465B1E382B71
:1029000002D21379DB0702D0002005B0F0BD566972
:10291000002E00D0B5089768D368002F0ED05C2B2E
:102920001DD31269002A1AD0002E18D06E4686C612
:1029300063462A46214601F00CF80FE0002B0ED129
:102940001269002A0BD103AA01920091AAB2634630
:10295000214600F0D5FF012801D000200390039804
:10296000D3E70000F8B5134C0F46E668054620682B
:10297000001D00F0DFFB681C07D1002F05D0216887
:102980000D48091D00F026FCF8BD2068751945604A
:102990002168B54204D2A06B091D00F003FCF8BD0C
:1029A000606B091D00F0FEFBA06A8542F7D2A562AC
:1029B000F8BD00001C000020A8070020F8B505465F
:1029C00000F014FC294CA068401CA0602068284F2F
:1029D000002803D06069002825D02AE02560A0687F
:1029E000012826D1002614207043C01900F0CCFB2A
:1029F000761C382EF7D31F4800F0C6FB1D48143054
:102A000000F0C2FB1B48283000F0BEFB19483C30E8
:102A100000F0BAFB1748503000F0B6FB1548606371
:102A20001430A06305E02068E96AC06A884200D8D3
:102A30002560606A401C60626864E86A21698842B7
:102A400000D9206114214843C019291D00F0C2FBA0
:102A500000F0D8FB6069002806D02068E96AC06AE7
:102A6000884201D200F014FCF8BD00001C000020D8
:102A7000F80200205807002038B500F0B7FB114CD1
:102A8000206800281AD1104800F07EFB0E48143050
:102A900000F07AFB0C48E06014300B4B2061002002
:102AA000F03B1A460090503210210A2000F014FD2D
:102AB0002060002802D005A100F0F6FB00F0A2FB88
:102AC00038BD000058000020AC080020546D725141
:102AD0000000000010B5026C0C46002A0CD0C16842
:102AE0008B18C36081688B4201D2194601E00168EE
:102AF000C1602046FDF77CFB10BDF8B5856B17461D
:102B000004460026026C002A11D0002F19D0E0687C
:102B1000FDF76EFBE168206C091AE16022689142C2
:102B200002D2A168081AE060022F17D019E02068CD
:102B3000002816D1A06800F0A3FF06460020A06080
:102B40000FE06068FDF754FB216C6068401860601E
:102B5000A168884205D32068606002E0002D00D0A3
:102B60006D1E6D1CA5633046F8BD10B5044640309F
:102B7000407E002805D0012806D0022807D072B672
:102B8000FEE7206B00F04CFB204600F049FB10BD37
:102B900003210E488902420705D0C01DC0080B4A18
:102BA000C000821A891A0A4A0023411809C208394A
:102BB000C908C900203A11604B600B600B1A0AC0AB
:102BC00093600120C0075360506170478C0F002054
:102BD000880000200F4E104C104F11E000F006FB53
:102BE000F068C568281D00F0A5FAA068401EA06026
:102BF0006068401E606000F005FB2846FFF7B5FFE7
:102C000060680028EAD138680128F9D900F040FB53
:102C1000F6E70000940700201C000020F8020020C6
:102C200070B5049C1D46002909D022602164E06330
:102C30000121204600F070FC4034257370BD2460F3
:102C4000F4E7FFB581B097000C9C0D460A9EA522C3
:102C50003946206BFDF7DEFA206B3F1FC019C00814
:102C6000C0000090400701D072B6FEE7274640370B
:102C70000021002D0CD0002023182A5C20331A7567
:102C80002A5C002A02D0401C1028F5D3F97001E01C
:102C900034200155382E00D33726E662E6640D460F
:102CA000201D216500F07BFA2046183000F077FAED
:102CB00024613820801B6462A06165653D76049ABA
:102CC0000199009800F026FA20600B98002800D0A7
:102CD000046005B0F0BD000030B5114900E01146B8
:102CE0000A688242FBD34B685C18844203D1406877
:102CF00018184860084643681C18944209D1084CCB
:102D0000183C2468A24209D052689A1842600A68A6
:102D100012680260814200D0086030BD0460F9E7AB
:102D20008800002070B5002441600B4D0061914285
:102D300006D8D11A8269914206D2011D286907E09E
:102D40009A4203D2994201D3012403E0011DE868AD
:102D500000F028FA204670BD5800002010B5044647
:102D600000F044FAA06B002804D0002400F04AFAD6
:102D7000204610BD0124F9E7F0B587B00125374E94
:102D800063E00198002806DA029A049903989047B4
:102D90000198002859DB039C6069002802D0201D9F
:102DA00000F0C8F905A800F0BFF80246019803003A
:102DB000FFF768FC0A060606282E3F0606282E4B5B
:102DC00027462037387A284338720298A16903468B
:102DD00041182046FFF7A6FF002836D0216A20467A
:102DE0008847387A400730D5002000900298A169C2
:102DF000002342181946204600F02CFF002824D159
:102E000072B6FEE72034207A4008400020721CE0B1
:102E100020462030017A294301720298A0610028DF
:102E200005D0811813462046FFF77CFF0DE072B6EF
:102E3000FEE720462030017A8A0703D4204600F0BE
:102E4000EFF902E0490849000172002201A9306847
:102E500000F06BFC002894D107B0F0BD58000020B2
:102E6000FEB50E46044600F0BFFA01A800F05CF87B
:102E700005460198002802D000F068FEFEBD214FF3
:102E8000002E10D038690068002838D00026611B59
:102E90003246386800F01AFA00F058FE0028EDD1EA
:102EA00000F0F6F9FEBDAC42F1D800F04FFEF86834
:102EB0002E46C068C568281D00F03CF9294620311F
:102EC000087A420714D5A8692346011932462846D4
:102ED000FFF728FF00280ED000200346014600908F
:102EE0002246284600F0B6FE002804D172B6FEE75E
:102EF000400840000872296A28468847FEBD01261E
:102F0000C5E70000580000200648416B0968002909
:102F100005D0416BC968C968496881627047002162
:102F2000C943FAE71C00002070B5054600F044FDD7
:102F3000064E0446B068844203D200F009F801202E
:102F400000E0002028602046B46070BD58000020DA
:102F5000F8B5174D21E0C068C4680668201D00F070
:102F6000E9F8216A204688472820005D400714D5EB
:102F7000A0698019B04206D924616060211DE8680B
:102F800000F010F909E000200346014600903246A7
:102F9000204600F05FFE002807D0E868016800299D
:102FA000D9D12969E9602861F8BD72B6FEE7000051
:102FB0005800002003480068401C72B600D0FEE7AD
:102FC000FEE7000090000020074CE068016800293F
:102FD00007D0C06800210068FFF742FFFFF7CCFE72
:102FE000F3E701210020F7E758000020F8B5044678
:102FF00000F0FCF8254640350526AE572746243715
:103000000BE0606A00280AD0384600F06DFD002809
:1030100001D000F085F9761E76B2002EF1DC002793
:10302000FF436F7100F0EEF800F0E0F80426AE57B1
:103030002046103000900BE0206900280AD000984C
:1030400000F052FD002801D000F06AF9761E76B239
:10305000002EF1DC2F7100F0D5F8F8BDF8B505466B
:10306000002700F0C1F92A4E3068002801D1FFF78F
:103070008FFD7069054242D1002D40D008356807A8
:1030800008D06807400F0821081A4519680701D0C1
:1030900072B6FEE7002D32D0706885422FD81C48EA
:1030A000183001460C6801E020460C466168A942D0
:1030B00002D221680029F7D131688C421FD00768FD
:1030C0002168016060680837411B102908D9601920
:1030D000420701D072B6FEE741606560FFF7FCFD74
:1030E00061687068401A7060B268904200D2B06047
:1030F00070690143002003C4F068401CF06000F0D8
:1031000025FD780701D072B6FEE73846F8BD00000D
:103110007000002010B50124031F24061C601B1F33
:103120001960191F024B0B60143940380A6010BD3A
:10313000B52F00084368826801699A608368426815
:103140005A604A68824201D182684A600022026164
:103150000868401E0860086870470000034B036061
:1031600018465C300860802010607047D40800204A
:10317000044B036018465C300860FF20013010608B
:1031800070470000300B00200146083100224160EA
:10319000D243C1608260016100210160704700215B
:1031A0000161704730B50B685A1C02D002460832E4
:1031B00002E0026904E02246546825689D42FAD97B
:1031C00053684B6099608A60516008610168491CCE
:1031D000016030BD42684A6093688B6093685960B3
:1031E000916008610168491C0160704772B604482B
:1031F0000168491C0160BFF34F8FBFF36F8F7047A9
:103200009000002005490868002804D0401E08608E
:1032100000D162B6704772B6FEE700009000002051
:1032200070B500281DD004460E4D083C60686969E1
:10323000084201D172B6FEE72268002A01D072B6B8
:10324000FEE78843606000F0CFF860686968401866
:1032500068602046FFF740FD2869401C286100F0A7
:1032600075FC70BD7000002010B5074C0020206177
:10327000A06106487D21C9000068FCF773FF401E6D
:1032800060610720206110BD00E000E01800002010
:103290000120044900074860BFF34F8FBFF36F8FD1
:1032A0007047000000ED00E010B5074B0022D4008D
:1032B0001C59002C03D0521C082AF8D310BDD20090
:1032C0009950D118486010BDB802002070B515465D
:1032D0000E460446FFF78AFF2046403004228256FD
:1032E0000021521C00D1017105228256521C00D1CE
:1032F0004171FFF787FFA06B002805D120462A46C1
:103300003146243000F024F82046FFF76FFE70BDF0
:1033100002490A6A0260C968416070471C000020C7
:1033200001490120C86170471C00002010B50C46FF
:10333000002809D0054909681831FFF733FF01213A
:103340002046FFF70FFB10BD72B6FEE71C00002001
:1033500070B514460D4600280DD00849096818318B
:10336000FFF738FF002C01D00025ED432146284609
:10337000FFF7F8FA70BD72B6FEE700001C000020EF
:1033800030B587B00024039405AA04A903A80494C7
:10339000FFF7E4FE04990398009401910290002342
:1033A0000DA10F48059A00F0D4FA0E4D0028E862EE
:1033B00010D000F023FC012803D0401C0AD172B6C3
:1033C000FEE772B60020C043A86201206861EC608D
:1033D00000F03EF807B030BD49444C450000000005
:1033E000D52B00081C0000200248016B491C01631A
:1033F000704700001C00002010B51348016B002925
:1034000002D00121C16110BD0021C16101690F4AD3
:1034100002E0002915D0491E14234B43D358002B3A
:10342000F7D014234B439A18536814465B6808344A
:103430005360A34201D15B685360DA6802600161A6
:1034400010BD72B6FEE700001C000020F80200204C
:1034500010B50948016AFF22120411430162016A92
:10346000120211430162FFF7FFFE044900200860C9
:10347000FCF72EFE002010BD00ED00E090000020C3
:1034800010B5FCF739FE044600F09CFA002803D082
:1034900001200349000748602046FCF731FE10BDBB
:1034A00000ED00E0F8B517460E46050012D0704357
:1034B0005030FFF7D3FD04000AD00021462001550B
:1034C000224650323B46314628460094FFF7A8FB7F
:1034D0002046F8BD72B6FEE7F8B5069D002806D076
:1034E000002B06D0002A08D0002904D009E072B6CB
:1034F000FEE772B6FEE772B6FEE7002901D072B6AB
:10350000FEE750241C46012640339E712B46009452
:10351000FFF786FB2046F8BD70B50D46040025D0A8
:10352000FFF764FE216CE06B484321684118A160FD
:103530000021A16321686160E06B216C401E48435B
:1035400021684118E1600021C943204640300171E3
:1035500041713038002D0BD0FFF716FE2046243085
:10356000FFF712FEFFF74EFE012070BD72B6FEE7B8
:1035700021690029F6D000F0B7FA0028F2D0FFF751
:1035800087FEEFE7FFB5002683B01D46040003D099
:103590000498002802D006E072B6FEE7206C0028EE
:1035A00001D072B6FEE7022D04D1E06B012801D0F4
:1035B00072B6FEE700F0F0F90027002804D1059864
:1035C000002801D072B6FEE7FFF710FEA06BE16B9A
:1035D000884207D3022D05D00598002817D0002E69
:1035E00018D01BE02A4620460499FFF786FA616A44
:1035F000002903D02046243000F076FA002801D0BC
:10360000FFF746FEFFF7FEFD012007B0F0BDFFF714
:10361000F9FD22E06846FFF77BFE0126FFF7F2FD89
:10362000FFF7E2FEFFF7E2FD20464030042141565D
:10363000491C00D1077105214156491C00D1477131
:10364000FFF7E0FD05A9684600F02CF9002806D038
:103650002046FFF7CBFC00F079FA0020D5E7FFF712
:10366000C5FDA06BE16B884210D1FFF7CBFD204672
:1036700010300599FFF75AFE2046FFF7B7FC00F01F
:1036800065FA0028A0D1FFF703FE9DE7FFF7BAFD1A
:103690002046FFF7ABFC00F059FA95E7FFB581B083
:1036A0001E46040003D00298002802D006E072B63D
:1036B000FEE7206C002801D072B6FEE7022E04D18E
:1036C000E06B012801D072B6FEE7FCF715FD009013
:1036D000A06BE16B884208D3022E06D0002400982C
:1036E000FCF70EFD204605B0F0BD20464030052514
:1036F00045570746A06B324620460299FFF7FDF971
:10370000681C03D06D1C7D710124E8E7606A002805
:10371000FAD02046243000F0E7F90028F4D00398CE
:103720000028F1D001210160EEE7F7B5002582B055
:10373000040003D00398002802D006E072B6FEE72A
:10374000206C002801D072B6FEE700F025F90026B3
:10375000002804D10498002801D072B6FEE7FFF7D4
:1037600045FDA76B002F15D020460399FFF7B2F94E
:103770007F1EA7632069002807D02046103000F084
:10378000B3F9002801D0FFF783FDFFF73BFD0120CF
:1037900005B0F0BD0498002802D0002D03D006E04B
:1037A000FFF730FD27E06846FFF7B2FD0125FFF780
:1037B00029FDFFF719FEFFF719FD204640300421CF
:1037C0004156491C00D1067105214156491C00D1C2
:1037D0004671FFF717FD04A9684600F063F800285A
:1037E00020460AD0FFF702FC00F0B0F92046FFF7B0
:1037F000B5FA0028B3D00020CAE7FFF7AFFA0028D7
:103800000ED0204624300499FFF790FD2046FFF7A4
:10381000EDFB00F09BF90028A1D1FFF739FD9EE7F1
:103820002046FFF7E3FB00F091F998E7F7B582B087
:10383000040003D00398002802D006E072B6FEE729
:10384000206C002801D072B6FEE7FCF755FC009012
:10385000A66B002E1FD02046403004254557074652
:1038600020460399FFF736F9761EA663681C03D03D
:103870006D1C3D7101240FE020690028FAD020461C
:10388000103000F031F90028F4D004980028F1D06D
:1038900001210160EEE700240098FCF731FC20468E
:1038A00005B0F0BDF8B50C46050012D0002C12D0C2
:1038B000FFF79CFC114BDA686E682068911B471C6F
:1038C0000BD02F681B6A9F420CD096420AD8012465
:1038D00004E072B6FEE772B6FEE70024FFF792FC42
:1038E0002046F8BD884205D9401A20602846FFF7D7
:1038F0000FFDF2E700202060E9E700001C00002037
:10390000FFB585B0164690000F9FFFF7A7FB050097
:103910001CD05C20FFF7A2FB040014D0002059212A
:10392000256308550E990091039001970294324641
:10393000089B06990598FFF784F92046FFF73EF8A3
:10394000012009B0F0BD2846FFF76AFC0020C04303
:10395000F7E7F0B585B007460B9D0C9C0A98002D43
:1039600015D0002C15D05C26256302255926355527
:10397000002504AE00900196039502943846FFF7A7
:1039800060F92046FFF71AF8049805B0F0BD72B64A
:10399000FEE772B6FEE7000006484169002904D040
:1039A000006B002803D000207047012070470220E0
:1039B000704700001C0000200148C06870470000EC
:1039C0001C000020F8B52C4C0027206B002804D0E8
:1039D000A069401CA0613846F8BDE668761CE66028
:1039E0000ED1606B0068002801D072B6FEE7606BF4
:1039F000A16B6163A063206A401C2062FFF784FA18
:103A0000A06A86420AD3606B0068002814D0606BFD
:103A1000C068C5686868864211D2A0622068142117
:103A2000C06A484315490858012800D90127E069B0
:103A30000028D0D00127CEE70020C043EDE7281DA5
:103A4000FFF778FBA86A002803D028461830FFF754
:103A500071FBE86A2169884200D92061142148433A
:103A600006494018291DFFF7B5FBE86A2168C96AB5
:103A70008842C8D30127C6E71C000020F8020020B6
:103A800070B500210446002828D0154D28688442CE
:103A900001D072B6FEE7206D002808D0401E2065D8
:103AA000E36CE26A9A4219D0002802D016E072B69E
:103AB000FEE7201DFFF73EFBE06C3821E062081AAC
:103AC000A061E06A2969884200D92861142148432D
:103AD00004494018211DFFF77DFB0121084670BDF8
:103AE0001C000020F802002070B5C068C468002CDB
:103AF0000BD0204618300646FFF71CFB104D286BF4
:103B0000002804D031460F480EE072B6FEE7201DB3
:103B1000FFF710FBE06A2969884200D92861142167
:103B2000484309494018211DFFF754FBE06A296802
:103B3000C96A884202D90120E86170BD002070BDC9
:103B40001C00002080070020F8020020F8B5284C57
:103B50000025206B2E46002808D0FFF747FB206B7E
:103B6000401E2063206B002802D03CE072B6FEE7C6
:103B7000A168204F00291CD135E0F868C5682846A7
:103B80001830FFF7D7FA281DFFF7D4FAE86A216941
:103B9000884200D920611421484317494018291D43
:103BA000FFF718FBE86A2168C96A884201D301203F
:103BB000E06138680028E0D1002D01D0FFF7A4F9BA
:103BC000A569002D09D00127FFF7FCFE002800D0D1
:103BD000E7616D1EF8D10020A061E069002802D0E5
:103BE0000126FFF755FBFFF70DFB3046F8BD00003F
:103BF0001C00002080070020F802002010B586B0CD
:103C0000FEF73AFF0F4C2068002819D000200390DF
:103C1000049005AA04A903A8FFF7AAFA0220039AB0
:103C20000499009002920191002307A10848059A87
:103C3000FFF78FFE6060002802D0012006B010BDA3
:103C400072B6FEE758000020546D72205376630070
:103C5000C92F0008F0B51D4685B0034600200A9E16
:103C6000002B13D00F4C2768002F0DD068460EC0D4
:103C7000062910DAFFF790FE022809D000231A4621
:103C800069462068FFF77EFC05B0F0BD72B6FEE71E
:103C900000233246F4E700232A4669463846FFF7F8
:103CA000FDFCF1E758000020443D00080000000042
:103CB0000000000000000000000000000004000000
:103CC00018000000000000000000000001000200D9
:103CD0000400060008000A000C001000200040004C
:103CE0008000000100000000000000000000000053
:103CF00000000000000000000000000000000000C4
:103D000000000000010000000200000003000000AD
:103D1000040000000600000007000000080000008A
:103D2000090000000000000000000000000000008A
:103D3000000000000100000002000000030000007D
:103D40000400000064656661756C745461736B00F7
:103D5000703D00080000002094000000E4260008E8
:103D6000043E000894000020FC1E0000F426000819
:103D70000000000000000000000000000100000042
:103D800004000000000000000024F4000000000017
:103D90000000000000000000000000000000000023
:103DA0000000000000000000000000000000000013
:103DB0000000000000000000000000000000000003
:103DC00000000000000000000000000000000000F3
:103DD00000000000000000000000000000000000E3
:103DE00000000000000000000000000000000000D3
:103DF00000000000000000000000000000000000C3
:043E0000AAAAAAAA16
:04000005080000BD32
:00000001FF
