:020000040800F2
:100000004028002049010008993F0008C33100083A
:1000100000000000000000000000000000000000E0
:10002000000000000000000000000000F140000897
:100030000000000000000000070100084141000826
:100040005B0100085B0100085B0100085B01000820
:100050005B0100085B0100085B010008AD080008B7
:100060005B010008710700088107000811070008FC
:100070005B0100085B0100085B0100085B010008F0
:100080005B010008F14100085B0100085B0100080A
:100090005B0100085B0100085B0100085B010008D0
:1000A0005B0100085B0100085B0100082D4D0008A2
:1000B0005B0100083D4D00085B01000803488546D0
:1000C00000F0A2FA004800470F570008402800201F
:1000D000084B19680868203080F30988022080F3F3
:1000E0001488BFF36F8F3FBCAE4608BC04BC62B639
:1000F000184700003C000020EFF3108072B67047F4
:1001000080F310887047EFF309800E4B1A6820388F
:100110001060F0C044464D4656465F46F0C008B5F4
:1001200072B606F0B3FA62B60CBC116808681030FB
:10013000F0C8A046A946B246BB4680F309882038DD
:10014000F0C818473C000020044880470448004796
:10015000FEE7FEE7FEE7FEE7FEE7FEE7E141000817
:10016000BD00000830B50B460146002020220124C6
:1001700009E00D46D5409D4205D31D469540491BDB
:100180002546954040191546521E002DF1DC30BD24
:10019000F0B51FB40646002082B005464024019108
:1001A00000901BE0019922460F46304600F054F8BB
:1001B000049A059B801A994110D31046194622468D
:1001C00000F03AF8361A8F410197224601200021AB
:1001D000009F00F031F838184D4100902046641E11
:1001E0000028DFDC019B00982946324607B0F0BDAD
:1001F00003460B439B0703D009E008C9121F08C040
:10020000042AFAD203E00B780370401C491C521EEA
:10021000F9D27047D2B201E00270401C491EFBD2F5
:1002200070470022F6E710B513460A460446194601
:10023000FFF7F0FF204610BD10B5202A04DB014671
:10024000203A9140002010BD914020239C1A034683
:10025000E3401943904010BD10B5202A04DB084646
:10026000203AD040002110BD0B46D340D04020247E
:10027000A21A91400843194610BD0000F0B5074688
:100280000846584087B0C00F049048000E465900F9
:1002900040084908BC1A884105D2384631461E46F6
:1002A00017460B4602465800400810434CD0300D0C
:1002B000039040055900400D490D0590401A0290E9
:1002C000402872DA18030121000B09050843019048
:1002D00004980092002805D00199524200208841DC
:1002E00000920190029840210A1A01990098FFF7A4
:1002F000A3FF05460C466B4607CB00F097F9C019E3
:100300007141039A0E0D0023D71756401A467A40C2
:10031000164344D0049A002A2DD0029A012A039A47
:1003200015DC1205C01A914101263605001C7141E9
:10033000D20F059ED2070093019202962A462346C9
:1003400000F094F907B0F0BD38463146FAE71605DB
:10035000224A0F46B218C01AB74101210905001CF4
:100360004F4100187F41114618187941E20F1043A0
:100370006D19644113E0E2076D0815436408C20774
:100380001443039A01261205C01A91413605001C38
:100390007141CE07400830434908C01851412A46F0
:1003A000234600F056F9CDE7FFE70498012240000C
:1003B000C117121A00238B4104983146C417381A0A
:1003C000A141EEE730B40124E407634030BC55E7B7
:1003D00030B40124E407614030BC4FE70000E0FF87
:1003E000F0B51FB488B00B990998002448400999CA
:1003F000C00F490049080991C0070B9900904900B6
:1004000049080B9109990898A64608431CD00B99F6
:100410000A98084318D0099801244000420D48006A
:10042000410D099824050003000B204309900B9807
:100430000003000B20430B9050181C494018002269
:1004400001901446104605E0002001460DB0F0BDB5
:10045000032801DA034600E003239C46C11A0AAED2
:100460000AE05F0008ADED5B4F00F75B7D430027BE
:10047000AA187C41491C5B1E6145F2DD410004ABBA
:100480005A522104120C0A43240C401C0828DFDBBA
:10049000019802900099704601910090059B049A82
:1004A0000799069800F0E2F8D0E700000DFCFFFF86
:1004B000F0B50C465C4085B0E40FE40703944C00B3
:1004C00000266408590094464908024602962243D1
:1004D00021D062460A431ED06200570D4A000E0327
:1004E0002303550D012402462C492405781B1B0BC0
:1004F000360B401823432643614600901C46501A91
:10050000B44103D30098401C009002E09218009878
:100510005B41002803DA0020014605B0F0BD002051
:10052000012109050746864611E064461D46141B55
:10053000B54106D36546521BB341744607430C438D
:10054000A646CD0740084908284392185B41054656
:100550000D43EAD11046184313D060461946504067
:100560007140084306D06046101AB34106D20122FA
:10057000002306E000220123DB0702E00122D24330
:100580005310009874460105381C6141029C039D7C
:100590000019694100F05DF8BFE70000FD030000AD
:1005A0004A0009030123090B1B0519430A4B10B527
:1005B000520D9A4202DA0020014610BD064B343338
:1005C0009A4203DC9A1AFFF747FE10BD034BD2187C
:1005D000FFF732FE10BD0000FF030000CDFBFFFF60
:1005E00010B5002904DB0124E40740428C41214678
:1005F000002B04DB1C460123DB075242A341994236
:1006000000D1904210BD0000064C0125064E05E0C9
:10061000E36807CC2B430C3C98471034B442F7D323
:10062000FFF750FD707300089073000810B5202A82
:1006300006DBCB170846203A1041C1170B4306E0F2
:100640000B461341D0402024A21A9140084319467A
:1006500010BD10B5002B08DA0024401C614192182F
:100660005B411A4301D14008400010BDF0B51FB4F2
:1006700082B005460C0003D0084604F091FB02E06E
:1006800004F08EFB20300246009021462846FFF7FA
:10069000D3FD049B059A04460F46184311430843B3
:1006A00014D0184610431BD0009840210A1A18464F
:1006B0000599FFF7D1FD05460E46009A0599049865
:1006C000FFF7BAFD084305D0012004E02046394673
:1006D00007B0F0BD0020C11705430E432C4337433C
:1006E00000990E986305401A7905E40A00220C432C
:1006F000FD0A0A3002D500200146E9E7010510197C
:1007000069410C9C0D9D00196941FFF7A2FFDFE7CD
:1007100010B50E4800F0B8FB0D4800F0B5FB0D48D1
:1007200000F0B2FB0C4800F0AFFB0C4800F0ACFB53
:100730000B4800F0A9FB0B4800F0A6FB0A4800F0AC
:10074000A3FB0A4800F0A0FB10BD00002405002018
:1007500044060020A40600200407002064070020AF
:10076000C40700202408002084080020E40800209A
:1007700010B5024800F088FB10BD00008405002081
:1007800010B5034800F080FB024800F07DFB10BD6F
:10079000E4050020C4040020F8B504460668406C57
:1007A0000D4F8508F0B2AD0014210838FFF7DAFCD0
:1007B000BE4203D209496918A16404E007491C310B
:1007C0006918C01DA16405498031E164C106C90EE4
:1007D000012088402065F8BD08040240000802405E
:1007E0000179084B4906490E8A00D2184265054A2C
:1007F0004432491E82658A07920F01219140C165EA
:1008000070470000FC08024030B5C46C056D65609F
:10081000446D002C02D0846DC56D6560446C1C2550
:100820002C400125A540046C656004686360836802
:10083000102B036803D099600068C26030BD9A60D5
:100840000068C16030BD000010B5002004F0F2FF68
:100850000149086010BD0000280000200FB430B529
:10086000A1B025AB80216846249A04F083FA041EC7
:1008700012DD0C4D2868002803D00021C94304F084
:10088000B1FFA2B2C8236946074802F0B0FB28684E
:10089000002801D005F00AF821B030BC08BC04B033
:1008A00018470000280000206401002010B5202017
:1008B00000F0FAFB402000F0F7FB10BD72B6FEE737
:1008C000F8B500270646044640360097307D0D46B1
:1008D00001280FD001203075206802F077FC002835
:1008E0000AD0A06D20210843A065012700203075A3
:1008F0003846F8BD0220F8BD686802287ED0012283
:100900002169D207914202D0121D914206D120687E
:100910002968826A4903490B0A436EE0C206D20E77
:100920000F20216E904081432868430302D0C30703
:100930004BD102E04000C00E48E0830701D5012002
:1009400044E0430701D5022040E0030701D503201E
:100950003CE0C30601D5042038E0830601D505201C
:1009600034E0430601D5062030E0030601D5072018
:100970002CE0C30501D5082028E0830501D5092016
:1009800024E0430501D50A2020E0030501D50B2012
:100990001CE0C30401D50C2018E0830401D50D2010
:1009A00014E0430401D50E2010E0030401D50F200C
:1009B0000CE0C30301D5102008E0830301D511200A
:1009C00004E0400301D5122000E0002090400143E4
:1009D00021666968E2698808401C904210D8206846
:1009E0002B68826A9C46C906C90E0F238B409A4326
:1009F00063469B001B0F8B401A4300E03BE0826282
:100A00002168AB6828684A690002824318404001A7
:100A1000400902434A612868002800DB66E72B4A48
:100A2000116807239B051940294B984214D10B02EA
:100A300012D4C0020143104602F0CCFB26482549DF
:100A40000068FFF78FFB0C214843401C00E0401E6C
:100A500000900028FBD149E7204B984203D1CB01FD
:100A600001D4800205E01E4B9842D7D14802D5D46C
:100A70005802014325E001212069C907884202D0BC
:100A8000091D884206D120682968826A4903490BFA
:100A90008A43826228680028C0DA0C4A116807235A
:100AA0009B0519400A4B984201D1C00208E00B4B4C
:100AB000984201D1800203E0094B9842AED1400236
:100AC0008143104602F086FB10E700000827014032
:100AD000001000B0400D030038000020004000B8B6
:100AE000002000B4FEB5002704463E46019700975B
:100AF000002803D0A06D002802D008E00120FEBD30
:100B0000204600F015F90020E065542108552068C2
:100B10008168C900C90F11D181687C4A1140012246
:100B20001207114381607B4879490068FFF71AFB7F
:100B3000400000E0401E00900028FBD12068816842
:100B4000C900C90F08D1A16D10221143A165E16D43
:100B500001221143E165174602F038FBA16DC90679
:100B600001D4002804D0A06D10210843A065CAE07C
:100B7000A06DFF210131884302210843A065206850
:100B800002F020FB01462046203000292FD12268A8
:100B9000D16818239943A3681943D160626C216C12
:100BA000636811439B0FA26C9B071A431143E26CCD
:100BB00011430E43017F012900D10E4322681169C0
:100BC000554B1940314311610322616892079142EC
:100BD0000DD05A0791420AD05200914207D04F4D92
:100BE000AB680F229204934311400B43AB60217E0C
:100BF0008D03617EC9030D43A17E4A031543226B19
:100C0000002A01D0012212031543E268154322692C
:100C1000002A02DA5200520801E00122520515436F
:100C2000027B007852001543019A1543012809D12F
:100C3000002955D0A06D20210843A065E06D012159
:100C40000843E065606A002806D0FF22C1321040E8
:100C5000A16A28430D4605432168C868304A104000
:100C60002843C860216808692E4A10403043086153
:100C70000021626B206802F0B4FA2B49A26B206855
:100C800002F0AFFA0F212069C94300282CD00122BD
:100C90005205904216D1226E002083001646DE4097
:100CA000F3431B0702D0401C0828F6D301281BD0B1
:100CB0002068836A237F9B001B1FDB06DB0E9940A5
:100CC000114381622068C06818490840A84210D1C9
:100CD0000020E065A06D80088000401CA06513E046
:100CE000012000040543ADE72068826A0A4382625E
:100CF000E8E7A06D0221884310210843A065E06D5C
:100D000001210843E06501273846FEBDE8FFFF7F6B
:100D1000400D03003800002002FCFF1F00270140A7
:100D20001902FEFF02FCFFDF04FFFF07E7FF3F831E
:100D300070B586B0044614216846FFF772FA174969
:100D40002068884228D116480268012109050A4313
:100D5000026000680840059011484038416B01244A
:100D600021434163416B21400591426B02210A43BB
:100D70004263406B032508400590402000266A46E8
:100D800061C205206946000700F0A4F96A4670C2F6
:100D90006946044800F09EF906B070BD0024014089
:100DA000401002400004005070B5002808D00146F1
:100DB00020314A790024022A04D00422C2630C7133
:100DC000012070BD026813680E25AB431360826C6E
:100DD0001368FF250135AB431360026813685B0895
:100DE0005B001360436C1C221340012216469E4098
:100DF000036C5E60C36C066D5E60436D002B05D0B6
:100E00001E68AE431E60C36D806D43604A710C71F5
:100E1000002070BD70B50024014620314A79022AB5
:100E200003D00421C16301242AE0026813680E255F
:100E3000AB431360026813685B085B001360826C4D
:100E40001368FF250135AB431360436C1C2213402C
:100E5000012216469E40036C5E60C36C066D5E60A8
:100E6000436D002B05D01E68AE431E60836DC56DBB
:100E70005D604A7100220A71816B002900D08847A9
:100E8000204670BDC06B7047F0B4016C0D680168FE
:100E90000C68466C1C22042316401F46B7402F42A4
:100EA0000ED067070CD50C68A40602D40C689C43CE
:100EB0000C60416C11408B40016C4B60016B24E075
:100EC0000227B74003462F402033002F21D0A70729
:100ED0001FD50C68A40605D40C680A25AC430C6029
:100EE00001215971174C0168A142446C04D9144086
:100EF0000221A140144A04E014400221114AA140F9
:100F0000803A516000211971C16A002918D0F0BCE3
:100F100008470827B7402F4212D0240710D50C6885
:100F20000E25AC430C60446C012114400A46A240DB
:100F3000046C6260C163597100211971416BE4E76F
:100F4000F0BC7047800002400004024070B504000D
:100F50000CD02D48256885420AD22C481421281827
:100F6000FFF700F98000606429480BE0012070BDA4
:100F70002548142140422818FFF7F4F880006064E7
:100F800021480838206402202646203670712868DF
:100F9000204908402860E168A06862690843216927
:100FA00011430843A1690843E1690843216A0843E2
:100FB00021680A68104308602046FFF7EDFB012115
:100FC000A06889030025884200D165602079A16C62
:100FD0004006400E0860E06C216D41606068401E74
:100FE000032808D82046FFF7FBFB606D0560A06D65
:100FF000E16D416002E06565A565E565E563012099
:1010000070713571002070BD08040240F8FFFDBF0B
:10101000000002400F80FFFFF8B504468C462030E8
:101020000179002501290BD001260671417900279D
:10103000012907D08021E163077101252846F8BD09
:101040000220F8BD02214171E76320680168490868
:101050004900016061462046FFF7D6FB206B00285F
:101060002068016801D00E2205E00422914301604E
:10107000206801680A2211430160A06C0168CA035C
:10108000074902D502680A430260606D002802D059
:1010900002680A4302602068016831430160CDE7BD
:1010A000000100007047000070B5084D0446E86874
:1010B000204203D0EC60204600F00AF82869204264
:1010C00003D02C612046FFF7EDFF70BD00180240F1
:1010D00070470000FCB5002301259FE022462C4606
:1010E0009C4022406FD04E68012E05D0022E03D0C6
:1010F000112E01D0122E16D186680327B4465E0049
:10110000B646B7406646BE43B446CF687646B7405B
:101110006646374387604668A6430C79E406E40FC9
:101120009C4034434460C6685F000324BC40A4462E
:10113000A6438C68BC403443C4604C68022C01D088
:10114000122C14D1DC08A40024180194266A5C0730
:10115000B646E60E0F24B44000967646A643B64641
:101160000C69009EB44076462643019C26620468C2
:101170006646B4430E79B607B60FBE4026430660F6
:101180004C68E40049D59E08274CB6003419A446A3
:10119000246E9E07F60E0F27B740BC4305273F0776
:1011A000B84201D1002715E0204FB84201D10127F4
:1011B00010E01F4FB84201D102270BE01D4FB8428B
:1011C00002D1032706E028E01B4FB84201D10427D3
:1011D00000E00527B740274364462766124E803655
:1011E00034684F689443FF0300D514433460746837
:1011F0004F689443BF0300D5144374600A4E3468AB
:101200004F689443FF0200D51443346074684F68FC
:101210009443BF0200D5144374605B1C0A681446F3
:10122000DA4000D05AE7FCBD00180240000400502C
:1012300000080050000C005000100050002A01D09F
:101240008161704781627047014880687047000083
:101250002C00002070B5024640325378202B1CD160
:101260001378012B19D001231370242454700468BF
:1012700025689D432560046825681E03B5432560E5
:10128000046825680D432560006801681943016002
:10129000202050700020107070BD022070BD70B50D
:1012A000024640325378202B1BD11378012B18D0E3
:1012B000012414702423537003681D68A5431D6026
:1012C00005682B680F263602B343090219432960CB
:1012D00000680168214301602020507000201070D8
:1012E00070BD022070BD000070B5040006D0254618
:1012F000403568780026002802D005E0012070BD46
:101300002E70204600F04AF824206870206801689A
:101310004908490001600F21606809068843216877
:10132000086121688A680120C00382438A60E168FD
:101330000129A16808D021229202114322689160FC
:10134000E168022902D005E00143F7E701212268A4
:10135000C902516021684A680F4B1A434A602168EC
:10136000CA688243CA60616920690843A1690902A9
:1013700008432168C860216AE06908432168086061
:1013800020680168012211430160666420206870B2
:101390002663AE70002070BD0080000210B586B0DC
:1013A000044614216846FEF73CFF12492068884233
:1013B0001ED1114C616B012001436163616B02908E
:1013C000014005910321002049020390009106206D
:1013D000122104900191052069460007FFF77AFE6B
:1013E000E16B012040050143E163E16B01400591A0
:1013F00006B010BD00540040001002400248816851
:1014000002788918816070472C00002010B50848C8
:1014100000240168821511430160204600F00AF89B
:10142000002801D0012401E000F040F8204610BD62
:101430000020024000B5014687B00022112000F0D4
:101440005FF8112000F050F81348C26B10210A43D6
:10145000C263C06B0840059004A9684600F066FAB4
:1014600000F080FA0D49FEF77DFE0E490C4A0A6035
:101470000D4A401ECA604860002008618860084626
:1014800000F08AFD002802D0012007B000BD054809
:1014900000F006FEF9E700000010024040420F0095
:1014A00000100040200B0020E703000008B50D48A5
:1014B0000168012211430160006810400090094852
:1014C0004038C26B01040A43C263C06B002208406B
:1014D00003210090481F00F013F80320400200F0A1
:1014E000B9FC08BD40100240002805DBC106C90E4A
:1014F00001208840014908607047000000E100E0D9
:1015000010B503F071FC10BD10B50F4C216803221B
:101510005202914301432160C11FFF39FA390ED1B4
:101520000A480621006848430949FEF71BFE401C93
:1015300002E0002805D0401E61694905F9D4002069
:1015400010BD032010BD00000070004038000020D6
:1015500040420F00FEB5044600680027984D994EA2
:10156000800355D500200090F06BC00007D4F16BCC
:10157000A8050143F163F16B0140012000909248FE
:101580000168821511430160FFF75EFE019005E0DE
:10159000FFF75AFE0199401A022825D88A480068A8
:1015A000C005F5D5E8690321090208400FD0216C78
:1015B00081420CD0E86903210902EA6988430121CC
:1015C00009040A43EA61EA698A43EA61E861C007FB
:1015D0000FD0FFF739FE019008E0FFF735FE0199C3
:1015E000411A7A48814201D9032709E0E869800756
:1015F000F3D5E869032109028843216C0843E861B7
:101600000098002804D0F16B012000078143F163AA
:101610002078C00705D068696168800880000843A9
:1016200068612078800705D568690C218843A16826
:10163000084368612078400705D5686930218843F0
:10164000E168084368612078C00606D5686903210F
:10165000890288432169084368612088C00406D54F
:101660006869032109028843616908436861208829
:10167000800506D56869032189048843A16A084367
:1016800068612088400506D56869032109058843FB
:10169000E16A084368612078800606D568690321FD
:1016A00009038843A169084368612078400606D58C
:1016B0006869032189038843E169084368612088D8
:1016C00040040ED56869216B80008008084368617A
:1016D0000121206B8907884203D1F06889130843F0
:1016E000F0602068000305D5686940218843616B7C
:1016F000084368612068810235480BD5696982100A
:10170000A36B914319436961A16B914202D1F168C6
:101710000143F160216849020AD56969E26B81439E
:1017200011436961E16B814202D1F1680143F160CB
:10173000218809050DD5A969226A89088900114304
:10174000A961216A012904D1F1680122120411431F
:10175000F160218889040DD5A9690C229143626A40
:101760001143A961616A042904D1F16801221204BC
:101770001143F1602168C9010ED5A9690322120342
:101780009143626C1143A9610122616C5203914241
:1017900002D1F1680143F160216889010DD5A96981
:1017A000032212029143A26C1143A961A26CD11FC2
:1017B000F93902D1F1680143F1603846FEBD0000FD
:1017C00040100240001002400070004088130000EA
:1017D00000000001F8B50F46060043D04D4D2868C3
:1017E0004007400FB84213D22868C008C0003843F1
:1017F0002860FFF729FD044605E0FFF725FD011BE2
:101800004548814261D828684007400FB842F4D16A
:101810003068424C81070DD5400704D5A0680721E8
:1018200009030843A060A0680F2109028843B1683A
:101830000843A0603078C00732D0706801280AD011
:1018400002280BD000280FD03449403103280ED095
:10185000C969890704E02168890301E021688901D9
:10186000002906DB0120F8BD21684905F8E7096A6F
:10187000EFE7A168C908C9000143A160FFF7E4FCD4
:10188000009006E0FFF7E0FC0099411A22488142EF
:101890001BD8A068382108407168C9008842F1D17E
:1018A00028684007400FB84217D91A480168C9088C
:1018B000C90039430160FFF7C7FC054607E0FFF7A1
:1018C000C3FC411B1448814201D90320F8BD1148D3
:1018D00000684007400FB842F1D13078400706D584
:1018E000A068072109038843F1680843A06000F05D
:1018F0004DF8A1683C2289091140094A515CC9068A
:10190000C90EC8400749086007480068FFF792FD04
:10191000F8BD0000002002408813000000100240C3
:10192000F0720008380000203000002010B50722B7
:1019300002600A4A93685B075B0F436093680F2459
:10194000240223408360926807231B031A40C2606D
:10195000034800684007400F086010BD00100240B7
:10196000002002400648074900688968064A490481
:10197000490F8900515CC906C90EC8407047000074
:1019800038000020001002403073000810B5204CD1
:10199000A068204A8006400F16D0A0688006410F3C
:1019A000501001290FD0A1688906490F022912D0D1
:1019B000A0688006400F042823D0A0688006400F4E
:1019C000032821D0002010BD206801218004400F91
:1019D0008140104612E0E1688B07E1689B0F4906E1
:1019E000490F491C032B00D01046FEF7BBFBE168F2
:1019F0004904490E4843E168490F491CFEF7B2FB10
:101A000010BD0120C00310BD7D20000210BD0000EC
:101A1000001002400024F400F8B504007ED02078C5
:101A20003827C007FE4D002846D0A868E96838402E
:101A30008907890F102802D008280BD001E003295C
:101A400008D001206268000482420AD1296801435B
:101A5000296015E0286880032ED560680028DDD055
:101A60002AE0052301211B0489049A422A6802D135
:101A70000A432A60EAE782432A602868884328608C
:101A8000606800280CD0FFF7DFFB064604E0FFF794
:101A9000DBFB801B642872D828688003F7D50BE035
:101AA000FFF7D2FB064604E0FFF7CEFB801B64285D
:101AB000F1D828688003F7D42078800768D5A86813
:101AC000E96838408A070721920FC902102802D01E
:101AD000002813D001E0022A10D0E068002828680E
:101AE00045D088432169084328602868FF210131D7
:101AF00008432860FFF7A8FB06462CE02A68520539
:101B000002D5E268002A89D06A687F231B029A43C3
:101B100063691B021A436A60002800E08CE00ED162
:101B200028688843216908432860286801218004C7
:101B3000400F8140BB48FEF715FBBB490860BB481E
:101B40000068FFF777FC002876D121E0FFF77CFBE7
:101B5000801B02289FD828684005F7D568687F2138
:101B600009028843616909020843686010E0FF21A7
:101B7000013188432860FFF767FB064605E0E2E095
:101B8000FFF762FB801B022885D828684005F7D440
:101B90002078A74E00072ED5A8688006400F03289E
:101BA0000AD0A0690028306A16D0012108433062AB
:101BB000FFF74AFB07460BE0306A80071BD5A06998
:101BC0000028A0D017E0FFF73FFBC01B0228C1D8B8
:101BD000306A8007F7D50EE0400840003062FFF71A
:101BE00033FB074604E0FFF72FFBC01B0228B1D8E8
:101BF000306A8007F7D4207840076BD5A8680027A3
:101C00008006400F042818D0E86BC00008D4E96BA8
:101C1000012000070143E963E96B014001270091BE
:101C200084480168C90519D401688215114301600F
:101C3000FFF70AFB00900DE084E0F069800749D5CA
:101C4000A06800287ED045E0FFF7FEFA0099401A10
:101C5000022878D877480068C005F5D5A168012921
:101C600010D004200529F16911D049084900F1611B
:101C7000F1698143F161A068002816D0FFF7E4FA0A
:101C800000900EE0F06901210843F061F3E70143A1
:101C9000F161F7E7FFF7D8FA0099411A66488142E7
:101CA00051D8F0698007F5D50DE0FFF7CDFA009027
:101CB00006E0FFF7C9FA0099411A5F48814242D80D
:101CC000F0698007F5D4002F04D0E96B01200007EC
:101CD0008143E9632078800622D50120E1698005EF
:101CE000002929680ED001432960FFF7ADFA0646A6
:101CF00004E0FFF7A9FA801B022868D828680002D0
:101D0000F7D50DE081432960FFF79EFA064604E00F
:101D1000FFF79AFA801B022859D828680002F7D4E6
:101D2000206A00284DD0A9688906490F022954D09D
:101D3000012636060228286810D0B0432860E868DB
:101D4000800801E081E042E08000E860E8683B490B
:101D50000840E860FFF778FA04463AE0B0432860AC
:101D6000FFF772FA074604E0FFF76EFAC01B02287D
:101D70002DD828688001F7D4A16A606AE26A084316
:101D8000216B120211430843616B0843A16B0843A6
:101D9000E9682B4A11400843E8602868304328600E
:101DA000E868012109070843E860FFF74DFA044697
:101DB00004E0FFF749FA001B022808D828688001D0
:101DC000F7D544E0FFF740FA001B022801D90320B1
:101DD000F8BD28688001F5D439E00128F8D0E8681A
:101DE000626A8107890F91422FD17021A26A014056
:101DF00091422AD17F21E26A0902014012029142F6
:101E000023D11F214904226B014091421DD107219A
:101E10004906626B0140914217D1400F400711E023
:101E2000001002400024F4003800002030000020A0
:101E3000401002400070004088130000FFFFFEEEDB
:101E40008C80C111A16B884201D00120F8BD002017
:101E5000F8BD000003490A6803235B029A4302436A
:101E60000A607047000001407047704770470000EB
:101E700070B5034620331A7F012A4BD001221A770E
:101E80000325CA682D02AA438D6800682A430125EC
:101E9000AD02AA434D6800242A430125ED02AA435E
:101EA0000D682A4301252D03AA430D692A43012504
:101EB0006D03AA434D692A430125AD03AA430D6B67
:101EC0002A430F252D04AA430D8B2D042A43124DBE
:101ED000A84204D101263607B243CE693243A84254
:101EE00014D10F252D05AA430D8D2D052A4301255B
:101EF0002D06AA430D6A2A4301256D06AA434D6AA1
:101F0000C96A2A4301256D07AA430A4342641C7724
:101F1000002070BD022070BD002C0140F0B50346CA
:101F200020331A7F012A2DD001221A7702225A77F4
:101F300005686A68AC68144EB54204D10F273F05A6
:101F4000BA434F683A437027BA430F6817436F602C
:101F50000068B0420CD001229207904208D00B4A90
:101F6000904205D00A4A904202D00A4A904204D1D7
:101F700080228968944321438160012058770020A2
:101F80001877F0BD0220F0BD002C01400004004095
:101F9000000800400040014070B5040005D025460F
:101FA0002035687F002802D006E0012070BD0020A7
:101FB0002877204600F016F802206877211D206857
:101FC00002F01EF9012240342272AA77EA772270C9
:101FD0006270A270E27022716271A271E2716A771E
:101FE000002070BDF0B587B0044614216846FEF7A6
:101FF00018F9274E256805200023264901240222CE
:102000000007B54210D1234D40352F68CE14374319
:102010002F602D68354005954D6B25434D63496B09
:1020200021400591D10112E00126B607B54217D132
:10203000CD6B2543CD63CD6BED07ED0F05954D6B56
:1020400025434D63496BC907C90F059120216D4692
:102050000EC5694603930492FFF73CF807B0F0BD44
:102060000D488542FAD1C86B1043C863C86B104055
:1020700005904D6B042005434D63496B6D4601404F
:10208000059140200DC518C569460448E4E70000E5
:10209000002C0140001002400004004000080050E5
:1020A000014620314A7F012A01D0012070470222D7
:1020B0004A770168CB6801221343CB6000680E4960
:1020C00088420BD09107884208D00C49884205D03D
:1020D0000B49884202D00B49884207D181680A4BDC
:1020E0001940062905D0DB1F994202D0016811432F
:1020F0000160002070470000002C014000040040F7
:102100000008004000400140070001007047000047
:1021100070B50446006801690025C9438907002994
:1021200015DBC168C943890711D4E91E016101208B
:102130002077206880698007204602D0FFF7E6FFFD
:1021400004E000F08AF9204600F084FA2577206840
:102150000169C943490717D4C168C943490713D462
:102160000421C9430161022020772068806980052D
:10217000800F204602D0FFF7C9FF04E000F06DF9A0
:10218000204600F067FA257720680169C9430907EE
:1021900016D4C168C943090712D40821C943016193
:1021A000042020772068C0698007204602D0FFF70E
:1021B000ADFF04E000F051F9204600F04BFA25771E
:1021C00020680169C943C90617D4C168C943C90653
:1021D00013D41021C9430161082020772068C06909
:1021E0008005800F204602D0FFF790FF04E000F04A
:1021F00034F9204600F02EFA257720680169C9439A
:10220000C90708D1C168C943C90704D1891E016142
:10221000204600F021FA20680169C943090609D463
:10222000C168C943090605D48021C943016120461C
:10223000FFF71BFE20680169C943C90508D4C168BE
:10224000C943090604D4124901612046FFF70CFE78
:1022500020680169C943490609D4C168C9434906D0
:1022600005D44021C9430161204600F025FA2068C9
:102270000169C943890609D4C168C943890605D4DF
:102280002021C94301612046FFF7F0FD70BD000029
:10229000FFFEFFFFF0B587B0044614216846FDF746
:1022A000C0FF4D4F2368052000254C49012604221C
:1022B00002240007BB421CD14B6B33434B634B6B77
:1022C000334005934B6B13434B63496B6B46114093
:1022D0000591510232C3694603950494FEF7FAFE54
:1022E000032040026B4631C369463D480395049480
:1022F00010E00127BF07BB4210D14A6B32434A634B
:10230000496B6A46C907C90F05910E2132C2694659
:1023100003950494FEF7DEFE07B0F0BD314FBB42DB
:1023200029D14B6B33434B634B6BDB07DB0F0593BF
:102330004B6B23434B634B6B234005934B6B134316
:102340004B63496B6B4611400591802132C360C3DA
:102350006946FEF7BFFE009402956946224804963E
:1023600003950194FEF7B6FEB8156B4631C360C302
:1023700069461B48CEE71D4883420CD1486B204379
:102380004863486B6A46204005900F20800131C2A7
:10239000092003951CE016488342BDD1486B1043C9
:1023A0004863486B10400590486B20434863486B76
:1023B0006B462040059034C3694609480395049450
:1023C000FEF788FE012080036B4631C3052003958C
:1023D0000490694604489DE7002C0140001002402B
:1023E00000080050000400400004005000080040B5
:1023F0000040014010B504462034237F012B0BD050
:10240000012323770C2A1AD008DC002A0BD0042AD7
:102410000DD0082A1ED10EE0022010BD102A12D0C5
:10242000142A17D113E0006801F04AFF12E0006897
:1024300001F08CFF0EE0006801F0CAFF0AE00068BE
:1024400002F00AF806E0006802F040F802E00068D6
:1024500002F06EF80020207710BD704770B50400C0
:1024600005D025462035687F002802D006E00120EF
:1024700070BD00202877204600F016F8022068770B
:10248000211D206801F0BCFE012240342272AA778F
:10249000EA7722706270A270E27022716271A2719A
:1024A000E2716A77002070BD7047F8B506460446B1
:1024B0002036307F0D4601280CD0012008273077C8
:1024C0000C2A44D008DC002A0BD0042A19D0082A90
:1024D00077D12CE00220F8BD102A4ED0142A70D1FA
:1024E0005BE0206801F0ECFE20688169394381617E
:1024F00020688169042291438161206881692A6989
:1025000012E0206801F022FF206881690122D202D6
:102510001143816120688269012189028A438261B5
:10252000206881692A6912021143816149E02068AB
:1025300001F04EFF2068C1693943C1612068C1695B
:1025400004229143C1612068C1692A6912E02068B0
:1025500001F082FF2068C1690122D2021143C161EA
:102560002068C269012189028A43C2612068C16969
:102570002A6912021143C16123E0206801F0A6FF1D
:102580002068416D394341652068426D04218A43CA
:1025900042652068416D2A6911E0206801F0C8FF9A
:1025A0002068416D0122D202114341652068416DCE
:1025B0005210914341652068416D2A69120211430E
:1025C000416500203077F8BD70B5040005D0254680
:1025D0002035687F002802D006E0012070BD002071
:1025E0002877204600F016F802206877211D206821
:1025F00001F006FE012240342272AA77EA772270A7
:102600006270A270E27022716271A271E2716A77E7
:10261000002070BD08B500680B49884206D10B4800
:10262000C26B04210A43C263C06B0AE008498842B6
:1026300009D1064840300268012109040A430260BA
:1026400000680840009008BD0008004000100240EB
:10265000004001407047000010B500680249884200
:1026600001D1FEF7CBFE10BD0010004070B504464E
:1026700005462034207F01280ED00126267702202F
:102680006077284601F08AFF01460020002905D026
:1026900066772077012070BD022070BD2968CA6866
:1026A00040239A43CA602968CA681B029A43CA60D9
:1026B00066772077002070BD704710B501468031E5
:1026C0000A78012A15D001220A7024224A60026881
:1026D000136814686408640014600122520793436D
:1026E0000022426600680360202048600A7010469D
:1026F00010BD022010BD70B5044680308368202BC9
:1027000025D1002919D0002A17D00125A3682D034F
:10271000AB4204D12369002B01D1CB070DD1037843
:10272000012B14D001230370E366204602F06EFAF9
:10273000002803D1E16E012901D0012070BD22687B
:1027400010211162226813680B43136070BD0220D0
:1027500070BD000010B500680C4A904203D10C48CF
:1027600001800C480EE00C4A904208D00B4A90427F
:1027700005D00B4A904202D00A4A904205D10A483D
:1027800001800A48006803F037F910BD003C0140A1
:102790001C000020200000200038014000480040BC
:1027A000004C0040005000400C00002018000020A9
:1027B000704770B5044605468034207801281AD049
:1027C0000120207024206060286806680268520892
:1027D000520002602868826807235B069A430A4316
:1027E0008260284601F046FF28680660202060606D
:1027F0000020207070BD022070BD70B504460546F3
:1028000080342078012819D00120207024206060B5
:1028100028680668026852085200026028688268C8
:10282000D200D2080A438260284601F023FF2868BC
:102830000660202060600020207070BD022070BD06
:1028400070477047F8B5044600680168FF222132DE
:1028500091430160206881681B4A11408160E06EED
:102860001027012803D120680168B943016020685E
:1028700081682546490680350026002911DA8168DD
:10288000402291438160E06F00280AD08663E06FA8
:10289000FEF78AFA002804D0E06FFEF7F3FA20284A
:1028A0000ED05E20065321680F20086220688169DF
:1028B0000822114381612020A860E6660020F8BD4F
:1028C000EF600320F8BD0000FEFFFFEF704700003F
:1028D000F8B503680446D96918689A68914D0E46A0
:1028E0002E4025468035002E6CD08F4E8F4F1640DF
:1028F000074037437FD0CF0706D0C70504D501274F
:102900001F62EB683B43EB608B0708D5D30706D00B
:10291000276802233B62EB6804273B43EB604B07CD
:1029200008D5D30706D0276804233B62EB6802274B
:102930003B43EB600B0709D520230340334305D00D
:10294000266808233362EE681E43EE600B0509D546
:10295000430107D501232668DB023362EB6820269A
:102960003343EB60EB68002B3AD089060AD520216F
:102970000840C9050A40104304D0216F002901D046
:1029800020468847E86821688968490602D42821DA
:1029900008422AD0204601F0C1FF2068816849061C
:1029A0001FD5826840218A438260E06F002818D0DA
:1029B0005F498163E06FFEF72DFA002810D0E06FC9
:1029C000816B0CE08E0616D5012720263F070640B6
:1029D00017403E430FD0216F7FE00CE02046884730
:1029E000F8BD2046FFF772FFF8BD2046FFF76EFFE7
:1029F0000020E860F8BDE66E012E59D1CE0657D50D
:102A0000C60655D510221A622068816826464906F6
:102A1000403600292BDAE36F196849680904090C6C
:102A2000E8D0B78B8F42E5D9F18319680968890628
:102A300018D401681301994301602068816849082E
:102A4000490081602068816840239943816020208B
:102A5000A8600020E0662068016891430160E06F93
:102A6000FEF7A2F9B08BF18B401A81B21CE0B18B5A
:102A7000F38BC91AF38B89B2002BBBD00029B9D0D4
:102A80000368FF262136B343036020688368264E1F
:102A9000F643334083602020A8600020E066206772
:102AA00020680368934303602046FFF753FEF8BD98
:102AB000CE0208D5560206D5012000051862204630
:102AC000FFF7BFFEF8BD0E060BD501278026FF05D8
:102AD00006403A40164304D0616F002900D07DE7DC
:102AE000F8BD4A060DD542060BD51A68204640218E
:102AF0008A431A60202169600021616700F03AFB77
:102B0000F8BD0A0205D5420003D52046FFF798FE1E
:102B1000F8BDC901FCD50028FADA2046FFF748FEC7
:102B2000F8BD00000F0800000100001020010004A3
:102B30000548000870B5040005D025468035686852
:102B4000002802D006E0012070BD00202870204639
:102B500000F026F8242068602068016849084900D0
:102B60000160204601F006FF0128EDD0A06A002890
:102B700002D0204601F0AEFD206841680922D20251
:102B800091434160206881682A22914381602068D6
:102B90000168012211430160204601F001FE70BD71
:102BA000F0B587B0044614216846FDF73AFBFD4BAB
:102BB0002268FD4802211027002580269A4243D131
:102BC000C36BCA041343C363C36B13400593426BC7
:102BD0000A434263406B6A46084005900320800226
:102BE00023C20120049069460395F048FEF772FA6B
:102BF000F048EF4901608560C560456106610E21BE
:102C00008561416020210562C161FEF79FF90028BE
:102C100001D0FDF753FEE748E0678462E448E54DE4
:102C20001430603528600F20AF6068600020E860D5
:102C30006861A86120212E61E96128622846ABE124
:102C4000A567AC6207B0F0BDDB4B9A424AD1D64AC9
:102C50004032126801239B031A43D34B40331A605E
:102C60001A6801239B031A400592436B0422134305
:102C70004363406B1040059030206A4623C2012018
:102C8000049069460395CD48FEF724FAC849C9481F
:102C90002839C030016085603221C56041604561DE
:102CA0008561C561802105620161FEF74FF9002849
:102CB00001D0FDF703FEBF48C14EC030E06784621B
:102CC000BB4814383060B7603320F56070607561C0
:102CD000B561F56180203562306130465BE0A66702
:102CE000B462AFE7B74B9A425CD1C36B0122920446
:102CF0001343C363C36B13400593426B02210A4322
:102D00004263416B022211400591426B08210A4344
:102D10004263406B6A46084005900420022123C2AA
:102D2000049069460395A148FEF7D4F901204002BA
:102D30000090022001900295039569460495A248EF
:102D4000FEF7C8F99A499E482831603001608560D5
:102D50003621C560416045618561C561802105629C
:102D60000161FEF7F3F8002801D0FDF7A7FD9448B4
:102D7000934E6030E06784628D48C0363C303060EE
:102D8000B7603720F56070607561B561F5618020CE
:102D9000356230613046FEF7D9F800289FD0FDF744
:102DA0008DFD9CE7894B9A4254D1C36B0122D2041A
:102DB0001343C363C36B13400593426B04231A434D
:102DC0004263426B1A400592426B01231A434263ED
:102DD000406B002518400590D80200900220019019
:102DE00002956946039504937448FEF773F9012030
:102DF0000090022001900420049005200295039584
:102E000069460007FEF766F969497148503101606B
:102E10008560C56045618561C561066138210562CF
:102E20004160FEF793F8002801D0FDF747FD6848A0
:102E3000E067674D84626748603528603920AF607D
:102E400068600020E8606861A861E8612E6128621E
:102E50002846A1E0604B9A425BD1C36B92151343A5
:102E6000C363C36B13400593426B04231A4342634D
:102E7000426B1A400592436B082213434363406B35
:102E8000029510400590500200900220019003200E
:102E90000490039569464948FEF71CF90420009008
:102EA000022001900320049002950395694646484C
:102EB000FEF710F9474946481431C0300160C5603B
:102EC00045618561C561876006614B21056241608E
:102ED000FEF73CF8002801D0FDF7F0FC3C483F4FDE
:102EE000C030A06784623B4828303860BD60FD6018
:102EF0007D61BD61FD613E614A203D62786038467A
:102F0000FEF724F8002801D0FDF7D8FCE767BC6283
:102F100098E6334B9A42FBD1C36B52151343C363FC
:102F2000C36B13400593436B042213434363406B0D
:102F300000251040059003206B4623C369461F48B7
:102F400003950492FEF7C6F8224924483C316030CC
:102F500001608560C56045618561C56106614C2180
:102F600005624160FDF7F2FF002801D0FDF7A6FCE5
:102F70001A481A4D6030E06784621648C0355030F8
:102F800028604D20AF6068600020E8606861A8613B
:102F9000E8612E6128622846FDF7D8FF002821D17C
:102FA0004EE6000000800040001002400004005087
:102FB00030000240C40400200038014000080050E6
:102FC000E405002000480040000C0050004C004088
:102FD000040700200804024000500040240800209C
:102FE000003C0140FDF76AFC2AE670477047FFB5D8
:102FF000064604468036706883B00D46202860D1AE
:10300000002D0CD00598002809D00120A1680003EC
:10301000814207D12069002804D1E80702D00120AD
:1030200007B0F0BD307801284BD00120307000206F
:10303000F06021207060FEF707F9019027464037C5
:103040000598B8820598F8820120A16800038142A2
:1030500002D12069002804D002950025002030709C
:1030600015E000200290F9E700228021204601F0BF
:103070000FFE002818D10298002817D02168007888
:1030800088620298401C0290F88A401EF882F88AF2
:10309000019B002806980090E6D10022402120469E
:1030A00001F0F6FD002808D00320B9E72888216840
:1030B000C005C00D8862AD1CE6E7202070600020CE
:1030C000AEE70220ACE70000F8B5054604468035BF
:1030D0006868202845D100290BD0002A09D0012397
:1030E000A0681B03984206D12069002803D1C807B5
:1030F00001D00120F8BD2878012832D001202870A5
:103100002046403021658282C2820026EE60212066
:103110006860A06F002819D01349C162A16F1348DD
:103120000863A16F12484863A06F1346866327683F
:10313000216D3A462832A06FFDF76EFF002805D0BA
:103140001020E8602E7020206860D2E721684020BF
:1031500008622E70206881688022114381600020FF
:10316000F8BD0220F8BD0000E3480008134900083C
:103170001948000810B500680A49884201D10A4878
:103180000CE00A49884208D00949884205D009491B
:10319000884202D00849884203D10848006802F0FA
:1031A0002BFC10BD003C01402400002000380140F1
:1031B00000480040004C0040005000401400002037
:1031C0007047FEE78068C007C00F704780684007FF
:1031D000C00F7047026807239B059A430A430260A9
:1031E000704710B543690424214007248C40A34351
:1031F0008A401343436110BD3EB500241848009433
:1032000001941649029401608460C4600905046158
:103210004160042141610476447684760121C161D4
:10322000014620310C70446284620C730463446371
:1032300084630C77C464FDF755FC002801D0FDF7CA
:103240003DFB084800900194694602940448FDF74C
:1032500037FB002801D0FDF731FB3EBD00240140C3
:10326000B40000204000001808B51448816B01220A
:1032700011438163816B11400091826B02210A43EB
:103280008263806B00220840009003210920FEF732
:1032900037F90920FEF728F9002203210A20FEF75A
:1032A0002FF90A20FEF720F9002203210B20FEF758
:1032B00027F90B20FEF718F908BD000000100240A6
:1032C00010B500F071FD00F063FC002002F0B2FACE
:1032D0001C49002208601146012002F039FB1A49FE
:1032E000002208601146012002F032FB174900223B
:1032F00008601146012002F02BFB154900220860EE
:103300001146012002F024FB1249134A08600021F3
:10331000124802F099FB124C0F4AA060483A002173
:10332000104802F091FB0C4A2060243A00210E481C
:1033300002F08AFB6060FDF787FA0A210BA0FDF717
:103340008DFA10BD10000020200000202400002075
:103350001400002018000020A07200083541000869
:10336000000000209D3F00089D3B00080D0A3D3DE8
:103370003D20736C6176655F636F6E74726F6C2055
:10338000626F6F742C20616464723D307825303236
:1033900058203D3D3D0D0A00F0B587B01421684628
:1033A000FCF73FFF2F48426B04210A434263426B04
:1033B0000A400592416B012529434163416B294035
:1033C0000591426B02210A434263426B0A40059217
:1033D000426B08210A434263406BFF240840224F9E
:1033E00009340590002221463846FDF727FF2E03B9
:1033F0000520002231460007FDF720FF0022202192
:103400001A48FDF71BFF00940024019502946946B9
:1034100038460394FDF75EFE0520029469460007D6
:10342000009601950394FDF755FE6020009010482A
:103430000190694602943846FDF74CFE202000902A
:1034400002946946019503940848FDF743FE002263
:1034500003210720FEF754F80720FEF745F807B0D0
:10346000F0BD000000100240000C005000040050AD
:103470000000111010B51348114901601249416054
:10348000002181600161416181610122C161C260ED
:103490000162FDF729FF002801D0FDF70FFA002196
:1034A0000848FDF7D7FE002801D0FDF707FA0021F4
:1034B0000448FDF7F4FE002801D0FDF7FFF910BD28
:1034C00000540040180100205B3D300010B5184842
:1034D00016490160E1214902416000218160C1601B
:1034E00001618161016241620C2281624261416637
:1034F000FFF720FB002801D0FDF7E0F900210C4880
:10350000FFF77BF9002801D0FDF7D8F90021084822
:10351000FFF74FF9002801D0FDF7D0F90448FFF775
:10352000CCF8002801D0FDF7C9F910BD008000409B
:103530006401002010B598B00024149415941C2147
:103540000DA81694FCF76DFE34216846FCF769FE61
:103550002549264812C004608460C460244904617F
:1035600041600838FFF730F8002801D0FDF7A6F9D0
:10357000149414A91D481694FEF7D0FC002801D01D
:10358000FDF79CF9602012940E940D900F94109406
:10359000119400220DA913941448FEF786FF002809
:1035A00001D0FDF78BF904220DA91048FEF77DFF2D
:1035B000002801D0FDF782F9012000944003019416
:1035C0000294059003940494069469460C94074869
:1035D000FEF74EFC002801D0FDF770F90348FEF716
:1035E00059FE18B010BD000000400140740A0020D0
:1035F000FFFF000010B59CB0142114A8FCF711FEC9
:10360000002419941A941C210DA81B94FCF709FEA0
:1036100034216846FCF705FE3749384812C004607B
:103620008460C4603649046141600838FEF7B4FC28
:10363000002801D0FDF742F93048FEF7C5FF002809
:1036400001D0FDF73BF907201490502015901694F7
:1036500014A918942948FFF709F8002801D0FDF7AC
:103660002DF919941A9419A924481B94FEF756FCB5
:10367000002801D0FDF722F9602012940E940D90DD
:103680000F941094119404220DA913941B48FEF773
:103690000CFF002801D0FDF711F908220DA91748E9
:1036A000FEF703FF002801D0FDF708F90C220DA951
:1036B0001248FEF7FAFE002801D0FDF7FFF80120BE
:1036C0000094400305900194029404940003039431
:1036D00006940794099008940A940B9469460C94F4
:1036E0000648FEF7C5FB002801D0FDF7E7F80348C0
:1036F000FEF7D0FD1CB010BD002C01404409002095
:10370000FFFF000010B590B0142107A8FCF789FD59
:1037100000240C940D941C2168460E94FCF781FD46
:1037200001212948890712C004608460611E046178
:1037300041600838FEF730FC002801D0FDF7BEF8E4
:103740002148FEF741FF002801D0FDF7B7F8072018
:10375000079050200890099407A90B941A48FEF787
:1037600085FF002801D0FDF7A9F80C940CA9164894
:103770000E94FEF7D3FB002801D0FDF79FF86020E0
:103780000090019402940422694604940E48FEF7C6
:103790008CFE002801D0FDF791F8082269460A48FE
:1037A000FEF783FE002801D0FDF788F80C22694659
:1037B0000548FEF77AFE002801D0FDF77FF80248A1
:1037C000FEF768FD10B010BD9009002010B590B054
:1037D000142107A8FCF725FD00240C940D941C214E
:1037E00068460E94FCF71DFD2D492E4812C004605A
:1037F00084602D49046141600838FEF7CDFB002844
:1038000001D0FDF75BF82748FEF7DEFE002801D067
:10381000FDF754F82348FEF721FE002801D0FDF7FC
:103820004DF80720079050200890099407A90B94A1
:103830001C48FEF71BFF002801D0FDF73FF80C9451
:103840000CA918480E94FEF769FB002801D0FDF77B
:1038500035F8602000900194029404226946049493
:103860001048FEF722FE002801D0FDF727F80822B5
:1038700069460C48FEF719FE002801D0FDF71EF836
:103880000C22694607480094FEF7B4FD002801D0D9
:10389000FDF714F80348FEF7FDFC10B010BD000062
:1038A00000040040DC090020FFFF000010B58AB0D2
:1038B0000024079408941C2168460994FCF7B1FC85
:1038C0002349244812C00460846023490461416094
:1038D0000838FEF779FE002801D0FCF7EFFF0794C7
:1038E00007A91C480994FEF719FB002801D0FCF732
:1038F000E5FF602000900194029400226946049440
:103900001448FEF7D2FD002801D0FCF7D7FF0422AF
:1039100069461048FEF7C9FD002801D0FCF7CEFF2C
:10392000082269460B48FEF7C0FD002801D0FCF7CD
:10393000C5FF0C2269460748FEF7B7FD002801D0F5
:10394000FCF7BCFF0348FEF7A5FC0AB010BD000061
:1039500000080040280A0020FFFF000010B5224C9C
:1039600020482060E120400260600020A060E0600C
:103970002061A061E06120620C2160626161A0624F
:103980002046FFF7D7F8002801D0FCF797FF002169
:103990001548FEF732FF002801D0FCF78FFF002109
:1039A0001148FEF706FF002801D0FCF787FF0E48FC
:1039B000FEF783FE002801D0FCF780FF4B20C001FA
:1039C00060600948FFF7B6F8002801D0FCF776FFE1
:1039D000002203211B20FDF793FD1B20FDF784FD32
:1039E00010BD000000380140F401002010B5224C49
:1039F00020482060E120400260600020A060E0607C
:103A00002061A061E06120620C2160626161A062BE
:103A10002046FFF78FF8002801D0FCF74FFF002168
:103A20001548FEF7EAFE002801D0FCF747FF002109
:103A30001148FEF7BEFE002801D0FCF73FFF0E48FC
:103A4000FEF73BFE002801D0FCF738FF4B20C001F9
:103A500060600948FFF76EF8002801D0FCF72EFFE0
:103A6000002203211D20FDF74BFD1D20FDF73CFD2D
:103A700010BD0000004800408402002010B5124C28
:103A800010482060E120400260600020A060E060FB
:103A90002061A061E06120620C2160626161A0622E
:103AA0002046FFF747F8002801D0FCF707FF4B201E
:103AB000C00160600448FFF73DF8002801D0FCF722
:103AC000FDFE10BD004C00401403002010B5124C48
:103AD00010482060E120400260600020A060E060AB
:103AE0002061A061E06120620C2160626161A062DE
:103AF0002046FFF71FF8002801D0FCF7DFFE4B201F
:103B0000C00160600448FFF715F8002801D0FCF7F9
:103B1000D5FE10BD00500040A403002010B50D4894
:103B20000B490160E1214902416000218160C160CF
:103B300001618161C16101620C2241624261816265
:103B4000FEF7F8FF002801D0FCF7B8FE10BD00001A
:103B5000003C01403404002070B505460A480022AC
:103B60000A4C0EE0AB5C58400023C60702D0400868
:103B7000604000E040085B1CDBB2082BF5D3521C10
:103B800092B28A42EED370BDFFFF000001A0000098
:103B900001490020088070471C0000200A2139A03C
:103BA000FCF75CFE414F424E4248FEF74BFE0021BF
:103BB000786801F09FFE40223D493E48FEF79BFD9C
:103BC00001003C4808D0803082683BA0FCF746FEEC
:103BD0000A2001F0C5FDE7E7C06F00680168042214
:103BE000914301603D49786801F084FE002804D0CB
:103BF0003B480268C1693BA01FE03D8843A02946BD
:103C0000FCF72CFE002405E0315D44A0FCF726FE05
:103C1000641CA4B2AC4201D2082CF5D341A0FCF73D
:103C20001DFE082D04D229463FA0FCF717FEBBE776
:103C300031780A2904D00A2242A0FCF70FFEB3E72C
:103C400070191E38417F007F0C020443AD1EA9B2DB
:103C50001748FFF781FF0246944202D0214644A054
:103C6000EBE774784BA02146FCF7F8FD042C04D058
:103C70000121204600F03EFA96E70D4800F0A8F931
:103C800092E700005B4D425D204D6F6462757320CA
:103C90007461736B20737461727465642C20616449
:103CA00064723D3078253032580D0A001C00002027
:103CB000E00A0020340400205B4D425D20444D4169
:103CC000207374617274204641494C3D2564205232
:103CD0007853746174653D25640D0A0088130000F3
:103CE000003C01405B4D425D2052582054494D45F7
:103CF0004F5554204953523D2530386C582043527B
:103D0000313D2530386C580D0A0000005B4D425D96
:103D1000205258206C656E3D2575000020253032FC
:103D2000580000000D0A00005B4D425D20467261A4
:103D30006D6520746F6F2073686F7274202825750D
:103D4000290D0A005B4D425D2041646472206D695B
:103D5000736D617463683A20676F74202530325840
:103D60002C2065787065637420253032580D0A0068
:103D70005B4D425D20435243204552523A20676FCB
:103D80007420253034582C2063616C632025303436
:103D9000580D0A005B4D425D2046433D25303258A8
:103DA000204F4B0D0A00000010B520210148FCF700
:103DB00038FA10BDC00A0020F3B585B08800009025
:103DC0000C460598FEF73EFD494D0021E86801F0DC
:103DD00091FD0021A86801F08DFD04224549059858
:103DE000FFF772F906463221A86801F083FD034609
:103DF0003246611C40A0FCF731FD0B2201A9059859
:103E0000FEF779FC0598C06F0068016804229143B1
:103E10000160FF212D31E86801F06CFD2F8806005C
:103E200007D00598FEF70EFD611C3AA0FCF716FDC1
:103E300012E03A46611C3DA0FCF710FD002506E0AB
:103E400001A8415D3FA0FCF709FD6D1CADB2BD426C
:103E5000F6D32FA0FCF702FD25480021C943406896
:103E600001F0C0FC0020394A002E33D10B2F31D194
:103E70006946097990292DD169468979002929D186
:103E80006946C979922925D10A25002301AE194630
:103E9000775C491CFB1889B2DBB2A942F8D36946AA
:103EA000897B8B4216D169460989009B49BA5D001E
:103EB000515369464989AE184BBA7380694689895E
:103EC00049BAB180F0800091525B611C20A0FCF7E0
:103ED000C5FC06E000994900505289184880888046
:103EE000C8800348406801F0E1FC07B0F0BD000065
:103EF0000C000020C47200085B4E464325645D2020
:103F00005458207265743D25642073656D3D2564A9
:103F10000D0A00005B4E464325645D205258205434
:103F2000494D454F55540D0A000000005B4E464375
:103F300025645D205258206C656E3D2575206461B6
:103F400074613A002025303258000000C00A002079
:103F50005B4E464325645D20436172642049443DC5
:103F6000253034582530345820747970653D25301B
:103F700034580D0A0000000070B5064D0024A00062
:103F800028582146FFF718FF641CE4B2042CF6D32E
:103F900070BD0000C8720008FEE7000005A0FCF735
:103FA0005DFC7D24E400FFF7E7FF204601F0D8FB2D
:103FB000F9E700005B4E46435D20506F6C6C207447
:103FC00061736B20737461727465640D0A00000084
:103FD000F0B5C1788278090211434EBA417902796D
:103FE0000802104345BA8BB0002D06D0102D04D81E
:103FF000102E02D2701910280AD92A46314623A061
:10400000FCF72CFC0221042000F074F80BB0F0BD8A
:104010000A22694668060A70000E04224A70441D8E
:1040200088702448511F006801F0DCFB00206F46B7
:104030000AE031184A002049895A42000B0AD21975
:10404000D370401C117180B2A842F2D319480068A5
:1040500001F02CFCA01E81B26846FFF77DFD3919E6
:1040600020398877000AC87723462A46314613A0AC
:10407000FCF7F4FB224669461B48FFF725F81B486E
:104080006421806801F036FCC0E700005B4D425DB2
:10409000204643303420696C6C6567616C20616434
:1040A00064723D2530345820636E743D25750D0AC9
:1040B0000000000010000020C00A00205B4D425D9F
:1040C000204643303420616464723D2530345820EA
:1040D000636E743D2575202D3E2054582025752093
:1040E00062797465730D0A00340400201C000020FE
:1040F000704700001CB50A236A46137080221043E3
:104100006A465070917003216846FFF725FD6A46A4
:10411000D070000A1071052269460448FEF7D4FFEA
:1041200003486421806801F0E5FB1CBD34040020D5
:104130001C0000207D242401204601F011FBFBE738
:1041400010B50448006902F0C3FE012801D002F056
:10415000E1FA10BD00E000E010B5A6B03C2117A8C0
:10416000FCF75FF800240094019402944C2104A809
:104170000394FCF756F801204002FDF7C5F9022030
:104180001790C0011A9040201C901B941F9417A8F0
:10419000FDF742FC002801D072B6FEE70720009030
:1041A00001940294002103946846FDF713FB002854
:1041B00001D072B6FEE70948139405940894049060
:1041C0000A9410941294079404A8FDF7C3F90028E8
:1041D00001D072B6FEE726B010BD00003540600089
:1041E00001200249C00688607047000000ED00E031
:1041F00010B50248FDF78CFF10BD0000200B002019
:10420000F0B50268214B0124A407214D214E9842AC
:1042100005D0A04203D0A84201D0B04204D1174635
:10422000702297434A683A431B4F984210D0A042ED
:104230000ED0A8420CD0B0420AD0184CA04207D0F1
:10424000B84205D0164CA04202D0164CA04204D170
:1042500003242402A243CC6822438024A2434C6955
:10426000224302608A68C2620A688262984207D06A
:10427000B84205D00A4A904202D00A4A904201D17F
:104280000969016301214161F0BD0000002C01407A
:1042900000040040000800400040014000200040B1
:1042A000004401400048014030B58468FF252D02DC
:1042B0001B021343AC430B432343836030BD000018
:1042C000F0B5026A520852000262056A43688269C8
:1042D000194C1B4E224092080C6892001443022293
:1042E00095438A682A43154DA84207D0B04205D0AD
:1042F000144FB84202D0144FB84206D10827BA432F
:10430000CF681743042297433A46A84207D0B042E9
:1043100005D00C4DA84202D00B4DA84206D1032572
:104320002D02AB434D691D438B692B434360846170
:10433000496841630262F0BD8FFFFEFF002C01401F
:1043400000400140004401400048014070B5026A4D
:1043500010239A430262046A43688269174D2A4017
:1043600003252D02AA430D682D02154320229443F4
:104370008A6812012243124CA04207D18024A24332
:10438000CC68402624012243B24308E00D4CA042F1
:1043900005D00D4CA04202D00C4CA04208D1032401
:1043A000A402A3434C69A4001C438B699B002343D4
:1043B0004360856149688163026270BDFF8FFFFEC3
:1043C000002C0140004001400044014000480140F1
:1043D00070B5026AFF2301339A430262046A43689C
:1043E000C269184D2A4092080D68920015430122B7
:1043F000520294438A6812022243134CA04208D10D
:104400001446CA68C614B443120222430415A243D8
:1044100008E00E4CA04205D00D4CA04202D00D4C3D
:10442000A04208D103242403A3434C6924011C4364
:104430008B691B0123434360C5614968C163026204
:1044400070BD00008FFFFEFF002C014000400140C6
:10445000004401400048014030B5026A01231B03BB
:104460009A430262046A4368C269134D2A400325D5
:104470002D02AA430D682D021543012252039443D5
:104480008A68120322430D4CA04208D00C4CA04273
:1044900005D00C4CA04202D00B4CA04205D1012407
:1044A000A403A3434C69A40123434360C561496845
:1044B0000164026230BD0000FF8FFFFE002C01404E
:1044C00000400140004401400048014070B5026ACC
:1044D00001263604B2430262046A4268436D0F4DFE
:1044E0002B400D681D4373009C430B891B04234321
:1044F0000B4CA04208D00B4CA04205D00A4CA04265
:1045000002D00A4CA04203D14C69B2432402224398
:104510004260456549688165036270BD8FFFFEFF9B
:10452000002C01400040014000440140004801408F
:1045300030B5026A01231B059A430262046A42688D
:10454000436D114D2B400D682D021D4301235B056A
:104550009C430B891B0523430C4CA04208D00C4CF8
:10456000A04205D00B4CA04202D00B4CA04205D17A
:104570000124A404A2434C69A4022243426045657D
:104580004968C165036230BDFF8FFFFE002C01400A
:1045900000400140004401400048014070B50468FB
:1045A000A368204A13404A681A431F4B1A400B68FD
:1045B0001343A3604A6813071B0F30D11211130075
:1045C00000F005FC082D2D2D2D0C2228052D0B6942
:1045D0008A68C9680068FFF767FE20E00A68052A54
:1045E00010D00268136A146A6408640014620468D4
:1045F000A2690969F025AA4309011143A161006874
:1046000003620CE0012070BD0A698968006800F04F
:104610000DF804E00A698968006800F018F80020C5
:1046200070BD00008FFFCFFFF8FFFEFF30B5036ABB
:10463000046A6408640004628469F025AC431201D2
:1046400022430A24A3430B438261036230BD30B589
:10465000036A1024A34303628469036A0F252D03B0
:104660001203AC432243A024A343090119438261EE
:10467000016230BDF0B513A106C985B00192009169
:1046800012A206CA039202910446416E40340029E8
:1046900015D000688168806809014D0F400F02AE97
:1046A000315C6F46385CC000FBF75CFD6085785D6F
:1046B000715DC000FBF756FD208505B0F0BD0120FF
:1046C0006085F9E701010103070100000804020405
:1046D0000801010110B5018DC90707D001684A68BA
:1046E00001235B049A43C36A1A434A60018D890718
:1046F00007D501684A6801231B049A43036B1A43D8
:104700004A60018D490707D501684A6801239B0467
:104710009A43436B1A434A60018D090707D5016824
:104720004A680123DB039A43836B1A434A60018D75
:10473000C90607D50268916801231B039943C36B1F
:1047400019439160018D890607D501688A680123A4
:104750005B039A43036C1A438A60018D490612D5A4
:1047600003685A6801210905446C8A4322435A6050
:10477000426C8A4207D10268516803235B05994362
:10478000836C19435160018D090607D501684A6899
:104790000123DB04C06C9A4302434A6010BD000051
:1047A000FEB50546002680350446EE60FCF74CFD5C
:1047B000019020680068124F000709D50121009779
:1047C000002249052046019B00F062FA00280DD125
:1047D0002068006840070BD5012100970022890559
:1047E0002046019B00F054FA002801D00320FEBDB2
:1047F00020206860A860E6662E700020FEBD0000E4
:10480000FFFFFF0110B5806A002201464031CA83D4
:10481000CA82FEF75BF810BDF8B5846A2046803086
:1048200041680546866820688068002700060028E1
:1048300006DA212904D156200753204600F08AF8D1
:1048400020688068400606D5222E04D15E200753DA
:10485000204600F063F8E86810210843E86020462D
:10486000FEF734F8F8BD10B501460968806A09689A
:1048700089061DD400225E210A5201680A68FF23BE
:1048800001339A430A6001688A68520852008A60BC
:1048900001688A6840239A438A60202288210A504E
:1048A000C16E012904D101680A6810239A430A6085
:1048B000C16E012902D0FEF798FB10BD5C21095A98
:1048C000FDF748FF10BD10B5806AC16E012902D006
:1048D000FEF78CFB10BD5C21095A4908FDF73AFF31
:1048E00010BD10B501460968806A096889060DD4B3
:1048F000002256210A5201688A6880239A438A60FE
:104900000068016840221143016010BDFEF732FCCF
:1049100010BD10B5806AFEF753FC10BD01680A682F
:10492000FF2321339A430A6001688A68084B1A40C2
:104930008A60C16E012904D101680A6810239A4374
:104940000A60202288210A500021C1660167704751
:10495000FEFFFFEF01680A68C0239A430A600168FE
:104960008A680123DB059A438A60202180304160F8
:1049700070470000F8B50446056880682169E7695A
:1049800008436169002639430843616E904A014338
:10499000904B2868904F3840084328602068416851
:1049A00003252D03A943E568294341602168A069D7
:1049B000914203D0994201D0256A28438D68874FE0
:1049C0003D4005438D602068C16A656A0909090197
:1049D0002943C162824D21688248A9420AD14069B7
:1049E0008007800F4ED001285DD002284AD00328CE
:1049F00047D15AE07C4DA9420AD140690C25284094
:104A000040D004283ED008284BD00C2839D14CE0A7
:104A1000764DA9420AD140693025284032D010286D
:104A200041D020283DD030282BD13EE0704DA94206
:104A300014D0704DA94211D06F4DA9420ED09142B1
:104A40000ED1456903208002054007D00120800275
:104A50002D1A28D02D1A24D0281A10E0002011E099
:104A600099420ED1406903252D0228400AD0FF3813
:104A7000401E18D0FF38401E13D0FF3801380028E0
:104A800013D010205D4D5E4F914201D099423ED12E
:104A900000280CD0022814D004280BD008286ED18E
:104AA0000DE00220EEE70420ECE70820EAE7FCF73F
:104AB00059FF01E0FCF76AFF050002D17EE0012505
:104AC000ED03606A4000395A28460091FBF74AFB23
:104AD00067687900791881426CD83903814269D3BB
:104AE000002328461946009AFBF752FB020E0902E2
:104AF0000302780811431818002251413A46002356
:104B0000FBF746FB03210902411A3E4A50E001210E
:104B1000E269C9038A4229D1002806D002280DD0B3
:104B2000042805D0082845D107E0FCF71BFF01E069
:104B3000FCF72CFF050001D140E00D46606A400003
:104B4000395A2846FBF70EFB616840004A08801876
:104B5000FBF708FB80B201462B4A1039914229D855
:104B6000511C01400007400F084325E0002807D0F2
:104B700002280ED0042806D008281BD108E019E02E
:104B8000FCF7F0FE01E0FCF701FF050001D115E0A4
:104B90000D46606A4000395A2846FBF7E3FA61681F
:104BA0004A088018FBF7DEFA80B20146164A10392F
:104BB000914201D9012601E02168C8602046012107
:104BC0004030418501850020206760673046F8BD90
:104BD0000080004000840040F369FFCFFFF4FF1124
:104BE00000380140401002400044004000480040AE
:104BF000004C004000500040003C01400024F40004
:104C0000D8720008FFFC0F00EFFF0000F8B5044663
:104C1000816540300026254682838035EE60222063
:104C2000A860E06F00281AD01649C162E16F1648EB
:104C30000863E16F15484863E06F13468663A76D0C
:104C400021683A462431E06FFCF7E6F9002806D0E7
:104C50001020E8602E70202068600120F8BD2E70C2
:104C600020680168FF2201321143016020688168D9
:104C700001221143816020688168402211438160D4
:104C80000020F8BD67480008C74800081948000818
:104C9000FFB581B005460F46044680350A9E38E0D0
:104CA000701C36D0FCF7D0FA0499401AB04221D8D3
:104CB000002E1FD02068016849072AD5C069C0436B
:104CC000000526D401202168C0020862206801681E
:104CD000FF22A132914301602068816849084900A0
:104CE000816020206860A860E860002028700320B0
:104CF00005B0F0BD20680168FF22A1329143016038
:104D00002068816849084900816020206860A860A7
:104D1000EBE72068C1693846884305D00021039835
:104D20008142BDD00020E3E70121F8E710B5024839
:104D3000FDF7CEFD10BD0000F401002010B50848BD
:104D4000FDF7C6FD0748FDF7C3FD0748FDF7C0FDA9
:104D50000648FDF7BDFD0648FDF7BAFD10BD000091
:104D60008402002014030020A40300203404002047
:104D7000640100207CB51546024600201C4600292F
:104D80000BD0491E00920191044B6A4621462846E9
:104D900000F016F9009A002111707CBDF956000848
:104DA0002021020C01D010211046020A01D0104629
:104DB0000839020901D01046091F820801D01046A7
:104DC000891E420801D0881E7047081A704730B407
:104DD0007446641E2578641CAB4200D21D46635D98
:104DE0005B00E31830BC18478307FF22DB0E9A40B4
:104DF0008907090E9940002808DB830809489B00B1
:104E00001B18186890430843186070470007000F8C
:104E10000838830804489B001B18D869904308434E
:104E2000D861704700E400E000ED00E002E008C84F
:104E3000121F08C1002AFAD170477047002001E014
:104E400001C1121F002AFBD170470000F0B51FB44A
:104E500086B00998089A030D0021024314D05148E6
:104E6000514A1818504305141198012810981AD067
:104E7000281A401C00264D4F4D4900960191049080
:104E8000002812DA444211E01198012449A30128B4
:104E900001D11098C1430698119A84600360C260E2
:104EA00041600BB0F0BD4042E4E70446210500201C
:104EB0003F4A001C51410391029012E0E00707D0E5
:104EC00032463B4601990098FBF78AFA019100901F
:104ED00032463B4610461946FBF782FA06460F4615
:104EE0006410002CEAD10498039B0028029A0999C7
:104EF000089806DAFBF774FA019B009AFBF770FA40
:104F000005E0FBF7D5FA019B009AFBF7D1FA0446BE
:104F10000E460022284BFBF763FB03D80020C0435A
:104F2000014607E00022254B20463146FBF7A6F953
:104F3000FBF736FB102409E0002C0ADB0A220023D1
:104F4000FBF726F9079B30321A55641E02460A43C6
:104F5000F2D11122641C079B121B1C19119B012BFF
:104F600003D0012308430ED10AE0084304D01120E6
:104F700010900020119077E71098151A6D1E0BE025
:104F80001098824202DD00236D1C03E0824201DAA8
:104F900000236D1E002BEED0069811998260C1602F
:104FA00030C07EE701FCFFFF104D00000000144000
:104FB0000000F03F300000000000F0430000E03F40
:104FC000FFB597B00646002518E2252877D10024C2
:104FD0002746FD49049400E00443761C3278012002
:104FE000203A90400842F7D130782A280ED0022289
:104FF000307801463039092916D804990A235943D3
:10500000303940181443761C0490F1E7189802C810
:1050100004911890002904DA012040030443484217
:10502000049002200443761C30782E2814D10420EA
:1050300004437078761C2A2809D11898761C80C8F9
:10504000189009E00A214F43303FC719761C307889
:10505000014630390929F5D930786C2810D006DCA2
:105060004C281AD068280ED06A2817D104E074287A
:1050700013D07A2812D110E00120400504430CE03F
:105080000121090501E0032109050C4371788142E2
:1050900003D1012000052418761C761C307811906D
:1050A00066280BD013DC58287DD009DC00287BD083
:1050B0004528F6D04628F4D047281AD1A5E118E0B3
:1050C000632835D0642870D0652812D19DE17028FE
:1050D0006CD008DC6728F1D069287BD06E280DD011
:1050E0006F2806D1BAE073282ED0752871D07828A1
:1050F00059D01A9A199990476D1C7EE16002400FB1
:10510000022809D003280DD00428189801680DD072
:105110000D60001D189070E11898EA1701680D6085
:105120004A60F6E7189801680D80F2E70D70F0E725
:1051300018986A4601781172001D1890002050726C
:1051400002A80090012005E0189802C818900020DD
:105150000091C04361070DD5002101E00199491C70
:105160000191B94212DA8142F8DB009A515C0029C0
:10517000F4D10BE0002101E00199491C0191814229
:10518000FADB019A0099895C0029F5D1019904980C
:105190001A9B471A21463846199A00F097FA019946
:1051A000401945180BE04FE02CE113E04EE0009869
:1051B00000990078491C00911A9A19999047019812
:1051C000401E0190401CF2D1214638461A9B199A84
:1051D00010E137E00A200021009001916002410FA8
:1051E000022907D0189A01CA1892C21794460329B7
:1051F00008D00AE01898C01DC108C90005C9189157
:10520000944607E000B2C2179446042902D140B286
:10521000C1178C4600226146944506DA0A460021F1
:10522000404291418C462D2102E0210504D52B21DD
:105230006A461173012103E0E10701D02021F7E75D
:10524000029155E00A200AE0102008E010200090AA
:105250000021042004430191082703E008200021D5
:10526000019100906002410F022907D0189A01CAEB
:10527000189200229446032908D008E01898C01D0F
:10528000C108C90005C91891944603E080B20429F9
:1052900000D1C0B200210291210729D511997029AE
:1052A00006D0009A1021019B4A401A4305D00EE017
:1052B00040216A461173012108E06146014306D08E
:1052C00030216A4611731199517302210291009A9B
:1052D0000821019B4A401A430AD16146014301D18A
:1052E000610705D530216A46117301217F1E0291A5
:1052F0001199582904D035A10E910DA90D910DE0F9
:1053000037A1F9E76146019B009AFAF741FF0E9B2E
:105310008C469B5C0D9A521E0D92137061460143A0
:10532000F0D10D9805A9081A20300190600703D527
:1053300001200004844300E001270198874201DD39
:10534000381A00E0002001990090411802980918CD
:105350000498401A0490E00306D421461A9B199A37
:10536000049800F0B3F94519002706E003A81A9A3B
:10537000C05D199990476D1C7F1C02988742F5DB30
:10538000E0030CD521461A9B199A049800F09EF967
:10539000451904E01A9A3020199990476D1C00991C
:1053A000481E00900029F5DC08E00D980D99007862
:1053B000491C0D911A9A199990476D1C0199481E24
:1053C00001900029F1DC63E109280100303132331A
:1053D0003435363738396162636465660000000031
:1053E000303132333435363738394142434445461B
:1053F0000000000000F05AF94519761C30780028AA
:1054000000D0E2E528461BB0F0BD600700D40627B7
:105410001898C01DC108C90048680A680831C30F40
:10542000DB071891190001D09CA108E0210501D5E6
:105430009BA104E0E10701D09AA100E09AA14300FA
:1054400011985B08109165280CD006DC452809D01E
:1054500046281DD0472841D141E0662818D067284A
:105460003CD13CE00021112F01DB112000E0781C31
:105470000191009008A911A8FFF7E8FC1399059184
:105480000021119A15927F1C12980197009150E00B
:105490000120C00703900120019008A9009711A8DE
:1054A000FFF7D4FC139A149905920022119B0092E5
:1054B00012981593059A0192002901D0104602E036
:1054C000791C40180190381A01D5019804E0404237
:1054D000401E0090781C0190C01B029043E0012FF9
:1054E00000DA01270021112F01DD112000E03846EC
:1054F0000191009008A911A8FFF7A8FC1399059144
:10550000119A0021129815920091019721070CD44D
:105510000599B94201DB019900E00191012904DDFF
:10552000159A491E515C302906D0B84201DA011D96
:1055300005DA0121029115E00199491EEDE70028E5
:1055400005DC0099411800910199091A03E0019ABC
:10555000411C914200DD01910099401A401C0290CB
:105560000120C0070390200706D4029901988142C8
:1055700002DB0020C043029000206946C87707AFD5
:10558000012103980337C907884224D002201190D3
:105590002B201290039800280CDA404203902D2013
:1055A000129007E00A210398FAF7DCFD30317F1EE4
:1055B000039039701199481E11900029F2DC03986C
:1055C0000028EFD1791E1298087030782021084009
:1055D0004530BF1E387006A8C01BC01D0390109830
:1055E0000078002800D00120019941180298C017C6
:1055F0000918039809180498401A401E0490E00303
:1056000006D421461A9B199A049800F05FF84519B0
:1056100010980078002803D01A9A199990476D1CA9
:10562000E00324D521461A9B199A049800F04EF8FD
:1056300045191CE00098002807DB0099059888426E
:1056400003DD1598405C199901E0199930201A9AE8
:10565000904700986D1C401C00900298401E0290DC
:10566000002804D11A9A2E20199990476D1C01998F
:10567000481E01900029DDDC05E038781A9A7F1C6D
:10568000199990476D1C0399481E03900029F4DC7A
:1056900021461A9B199A0498ACE600002D000000E0
:1056A0002B0000002000000000000000F8B50446B8
:1056B00000251E461746880404D405E039462020FC
:1056C000B0476D1C641EF9D52846F8BDFFB50446E9
:1056D000002581B01E46C80301D5302700E02027F1
:1056E000880404D505E038460399B0476D1C641E54
:1056F000F9D5284605B0F0BD4A68002A06D00A68E8
:10570000531C0B6010704868401E48607047FBF7E0
:105710007DFEFEF721FDFDF73FFEFDF7A5FDFDF740
:105720006BFDFDF7A7FEFDF765FFFDF7EBFFFEF74D
:105730004DF8FEF7BBF8FDF7FDFEFEF70FF9FEF79B
:1057400055F9FEF79BF9FEF7C1F9FEF7E7F9FDF70A
:10575000BDFE00F015F8FDF7B3FD00F025F8FEE7FB
:1057600010B5EFF30581002902D00524E44304E0DD
:105770000024002801D000F0C5FE204610BD000026
:10578000EFF30580002802D00520C043704705488C
:105790000168002902D00020C04370470121016048
:1057A000002070478C00002010B5EFF30580002822
:1057B00002D00520C04310BD08480168012902D06D
:1057C0000020C04310BD0649CA691202120ACA610C
:1057D0000221016000F01EFF002010BD8C0000209F
:1057E00000ED00E0F8B50D46014640084000C9074D
:1057F000C90F0024EFF30582002A01D0A41F17E08F
:10580000002808D00126F643771E0029294609D032
:1058100001F0C4FA08E00324E44309E0002D06D0B7
:10582000344605E001F01AFA0128F7D100E03C46C1
:105830002046F8BD70B505460024EFF3058000282A
:1058400032D1002D01D0686800E00020C10701D0EE
:10585000012600E00026000726D4002D10D0A968FC
:10586000E868002905D050281ED3002E04D004205B
:1058700003E0002804D017E0012000F08FFF06E0CD
:10588000002E01D0042000E0012000F07CFF040085
:105890000AD0002D01D0296800E0002100F0DAFDD7
:1058A000002E01D001200443204670BD014670B592
:1058B00040084000C907C90F0024EFF30582002A01
:1058C00001D0A41F13E0002806D00225ED430029D3
:1058D00005D001F0EDF807E00324E44307E00023DE
:1058E0001A46194600F0D7FF012800D02C46204662
:1058F00070BD0000F8B50D460024211F4E1C002885
:1059000005D0EFF30582002A12D0002D01D00C46FD
:1059100019E000216A46009101F064F9012811D1D3
:10592000009800280FD001200849000748600AE0CD
:10593000294601F093F9012805D0002D02D0012459
:10594000E44300E034462046F8BD000000ED00E0EE
:10595000F8B5144603460E460025EFF305800028EF
:1059600047D1002B45D09E4243D8002C0AD0A068D6
:105970000028E06803D050283BD3012003E0002832
:1059800001D036E00020012B06D0002824D0184694
:10599000A26800F0E3FE22E0002808D00320009077
:1059A000002211460120A36800F01FFF04E003223B
:1059B0000021012000F0FFFE05001AD0002E10D0BB
:1059C00000231A46194600F066FF012809D0284630
:1059D00000F052FD00250CE0184600F0ADFE050079
:1059E00007D0002C01D0216800E00021284600F0FB
:1059F00031FD2846F8BD000038B50024E51E00281A
:105A00000BD0EFF30581002912D0002100916946E7
:105A100001F014F8012812D102E00324E4430FE05E
:105A2000009800280CD0012006490007486007E0D4
:105A300000231A46194600F02EFF012800D02C46FC
:105A4000204638BD00ED00E0F0B58C4685B0002161
:105A50000391EFF3058100293FD100283DD0802537
:105A600018210024002A2CD01368002B00D01C46DB
:105A70009369002B03D019465B1E382B02D2137991
:105A8000DB0702D0002005B0F0BD5669002E00D023
:105A9000B5089768D368002F0ED05C2B1DD3126910
:105AA000002A1AD0002E18D06E4686C663462A46B3
:105AB000214601F0E4F90FE0002B0ED11269002A13
:105AC0000BD103AA01920091AAB26346214601F0CC
:105AD000ADF9012801D0002003900398D3E700001E
