:020000040800F2
:10000000404B002049010008852C0008E923000826
:1000100000000000000000000000000000000000E0
:10002000000000000000000000000000492D000852
:10003000000000000000000007010008E131000896
:100040005B0100085B0100085B0100085B01000820
:100050005B0100085B0100085B0100085B01000810
:100060005B010008F506000805070008E506000822
:100070005B0100085B0100085B0100085B010008F0
:100080005B010008893200085B0100085B01000881
:100090005B0100085B0100085B0100085B010008D0
:1000A0005B0100085B0100085B010008953E000849
:1000B000B93E0008DD3E00085B01000803488546A4
:1000C00000F000FA00480047B5430008404B00200C
:1000D000084B19680868203080F30988022080F3F3
:1000E0001488BFF36F8F3FBCAE4608BC04BC62B639
:1000F000184700003C000020EFF3108072B67047F4
:1001000080F310887047EFF309800E4B1A6820388F
:100110001060F0C044464D4656465F46F0C008B5F4
:1001200072B605F05FF862B60CBC11680868103052
:10013000F0C8A046A946B246BB4680F309882038DD
:10014000F0C818473C000020044880470448004796
:10015000FEE7FEE7FEE7FEE7FEE7FEE7793200088E
:10016000BD00000830B50B460146002020220124C6
:1001700009E00D46D5409D4205D31D469540491BDB
:100180002546954040191546521E002DF1DC30BD24
:1001900070B500242546002801DA012440420029D8
:1001A00001DA01254942FFF7DDFFAC4200D04042B1
:1001B000002C00D0494270BDF0B51FB406460020A7
:1001C00082B005464024019100901BE0019922462F
:1001D0000F46304600F024F9049A059B801A994195
:1001E00010D310461946224600F00AF9361A8F41FC
:1001F0000197224601200021009F00F001F93818E4
:100200004D4100902046641E0028DFDC019B0098D1
:100210002946324607B0F0BD10B5431A934209D2C1
:100220008318881803E0401E01785B1E1970521E67
:10023000F9D210BD03460B439B0703D009E008C960
:10024000121F08C0042AFAD203E00B780370401C86
:10025000491C521EF9D210BDD2B201E00270401CFE
:10026000491EFBD270470022F6E710B513460A4636
:1002700004461946FFF7F0FF204610BDF8B50246C8
:100280004A40D40F42004B0052085B089A4202D207
:100290000246084611464A0023D0C30D4A00DDB28B
:1002A000120EAD1A202D35DA49020126490AF6054B
:1002B0008A19002C00D0524220214F1B1146B94010
:1002C0002A411018C20D9A4221D0002C17D0012DBE
:1002D00008DCDA05801AD20F8019D207DBB200F0F1
:1002E000B8F8F8BDDA05801A012340001B06C018D3
:1002F00080185A428018CA0F1043490007E0490885
:10030000C2071143DA05801A80194008801800F0EE
:1003100098F8F8BD61000122511A001BF7E701228D
:10032000D2075140AAE70122D2075040A6E7024671
:1003300070B54A40D30FDB0740002DD04A002AD0C9
:10034000010E140E000212020919400A520A841802
:10035000E50104465443000A120A2E045043A4192E
:100360004219200CC543AA18120C0125AD03521CDA
:10037000521912047F39240400D0521C104301D4B6
:100380004000491EC2B20C06C0092018401C40089B
:10039000802A02D003E0002070BD40084000002900
:1003A00000DA0020184370BD420005D04200120E52
:1003B00052428A4201DB00207047C9050818704785
:1003C00010B500229623114600F043F810BDC20F6D
:1003D000410040020123400ADB05D207090EC01884
:1003E0007F2901DA00207047962903DC9623591AE9
:1003F000C84001E096398840002AF4D04042704756
:1004000010B5202A04DB0146203A9140002010BD9F
:10041000914020239C1A0346E3401943904010BDAD
:1004200010B5202A04DB0846203AD040002110BD38
:100430000B46D340D0402024A21A914008431946CD
:1004400010BD002904DA401C490001D140084000D9
:10045000704770B40024050C05D11024000402D1AB
:10046000002921D01124050E01D100020834050F06
:1004700001D10001241D850F01D18000A41C00289A
:1004800001DB4000641C002908D020252E1B0D46EE
:10049000F540A14000D001212943084301061B1B60
:1004A000000ADB1D02D5002070BC7047DB05181860
:1004B00080180029F8DA401C4900F5D170BC4008CA
:1004C00040007047064C0125064E05E0E36807CC66
:1004D0002B430C3C98471034B442F7D3FFF7F2FD9E
:1004E0002C5C00084C5C00083EB50546642003F017
:1004F00084FF6424012302AA70212846009400F09E
:10050000ABFB002813D16846007A000714D4BE2143
:10051000684601710821417100218171032301AAFC
:1005200070212846009400F01FFC002801D0012013
:100530003EBD0A2003F061FF00203EBDF0B5074636
:1005400085B02FA000680D46642603900024032385
:1005500003AA70210096384600F006FC00280BD153
:10056000502003F04AFF062301AA70213846009666
:1005700000F072FB002802D0012005B0F0BD6846F3
:10058000007900060CD50A2003F037FF641CE4B2A2
:100590000A2CE8D368460079000601D50220ECE772
:1005A0006846407901036846807900010143684646
:1005B000C07902090007040B6846007A1143000263
:1005C00004436846407A04430846FFF7F9FE1326C1
:1005D000F6433146FFF7E8FE0A49FFF7A8FE6860D8
:1005E0002046FFF7EDFE3146FFF7DEFE0649FFF736
:1005F0009EFE0649FFF793FE28600020BDE700003D
:10060000AC3300000000C8420000484300004842EC
:1006100010B5144606290ED30178AA290BD1002360
:100620001946425C491CD218C9B2D3B20529F8D385
:100630004179994201D0012010BD8278437811029E
:10064000194349BA21800179C2780802104340BA9F
:100650000A21FFF787FD6080002010BD10B532230E
:100660000622024901F054FE10BD0000C05A0008E5
:100670007CB506460D460120694608716424034690
:1006800001AA29463046009400F06EFB00280BD1E9
:10069000102069460871012301AA294630460094BA
:1006A00000F062FB002801D001207CBDB42003F0E3
:1006B000A4FE00207CBD1CB51446642200920223D7
:1006C00001AA00F0C9FA002801D001201CBD68462B
:1006D000808840BA810040180621FFF743FD206062
:1006E00000201CBD10B5024800F06AF810BD0000E3
:1006F000C411002010B5024800F062F810BD0000DF
:10070000B010002010B5034800F05AF8024800F07D
:1007100057F810BD0C1100206811002010B50446D8
:10072000006C09498008800040186064207814211A
:100730000838FFF717FD04498031A164C106C90ECE
:1007400001208840E06410BD000802400179084B98
:100750008906890E8A00D2180265054A4432491E6C
:1007600042658A07920F0121914081657047000020
:10077000FC080240F0B5846CC56C6560046D002C0B
:1007800002D0446D856D65600B4C6568066C1C2756
:100790003E400127B7403D4365600468636083685D
:1007A000102B036803D099600068C260F0BD9A60A6
:1007B0000068C160F0BD00000000024072B6FEE7B4
:1007C000F0B42C490C6802681368056C1C273D4086
:1007D0000426AE40264211D05E070FD513689B0653
:1007E00003D4146804239C4314604B68046C0422F3
:1007F0003C40A24013434B60016B1CE00227AF401A
:10080000064627402036002F19D09F0717D51368BA
:100810009B0605D413680A24A34313600122727156
:100820004B68046C1C2214400222A24013434B600C
:1008300000213171C16A00291AD0F0BC084708278D
:10084000AF40274214D01B0712D513680E24A343D0
:1008500013604B68046C1C22144001221546A5400D
:100860002B434B60C263727100213171416BE2E72F
:10087000F0BC70470000024070B504003FD025482E
:10088000256814212818FFF76DFC800020640220E1
:1008900026462036707128681F4908402860E168A4
:1008A000A06862690843216911430843A1690843AC
:1008B000E1690843216A084321680A681043086017
:1008C0002046FFF72BFF0121A068890300258842FD
:1008D00000D165602079616C8006800E0860A06C94
:1008E000E16C41606068401E03280AD82046FFF78B
:1008F0002DFF206D0560606DA16D416004E0012059
:1009000070BD25656565A565E5630120707135716C
:10091000002070BDF8FFFDBF0F80FFFFF8B5044653
:100920008C4620300179002501290BD00126067163
:1009300041790027012907D08021E1630771012552
:100940002846F8BD0220F8BD02214171E763206806
:10095000016849084900016061462046FFF70AFF27
:10096000206B00282068016801D00E2205E00422D7
:1009700091430160206801680A2211430160606CA4
:100980000168CA03074902D502680A430260206D64
:10099000002802D002680A430260206801683143DF
:1009A0000160CDE700010000FCB5002301259AE0BD
:1009B00022462C469C4022406FD04E68012E05D026
:1009C000022E03D0112E01D0122E16D186680327D5
:1009D000B4465E00B646B7406646BE43B446CF68EE
:1009E0007646B7406646374387604668A6430C792B
:1009F000E406E40F9C4034434460C6685F0003246F
:100A0000BC40A446A6438C68BC403443C4604C68D8
:100A1000022C01D0122C14D1DC08A400241801945B
:100A2000266A5C07B646E60E0F24B440009676466A
:100A3000A643B6460C69009EB44076462643019C08
:100A4000266204686646B4430E79B607B60FBE4008
:100A5000264306604C68E40044D59E08254CB60049
:100A60003419A446246E9E07F60E0F27B740BC43E8
:100A700005273F07B84201D1002710E01E4FB842BA
:100A800001D101270BE01D4FB84201D1022706E03A
:100A90001B4FB84202D1032701E023E00527B740EE
:100AA000274364462766134E803634684F68944364
:100AB000FF0300D51443346074684F689443BF0348
:100AC00000D5144374600B4C26684F689643FF02B0
:100AD00000D51643266066684F689643BF0200D56E
:100AE000164366605B1C0A681446DA4000D05FE774
:100AF000FCBD000000180240000400500008005037
:100B0000000C005001488068704700002C00002055
:100B100070B5024640325378202B1CD11378012B3C
:100B200019D00123137024245470046825689D4350
:100B30002560046825681E03B543256004682568A0
:100B40000D43256000680168194301602020507042
:100B50000020107070BD022070BD70B5024640329A
:100B60005378202B1BD11378012B18D0012414703B
:100B70002423537003681D68A5431D6005682B6816
:100B80000F263602B3430902194329600068016841
:100B900021430160202050700020107070BD0220A1
:100BA00070BD000070B5040006D025464035687859
:100BB0000026002802D005E0012070BD2E702046DE
:100BC00000F05AF92420687020680168490849003B
:100BD00001600F2160680906884321680861216867
:100BE0008A680120C00382438A60E1680129A16804
:100BF00008D021229202114322689160E168022903
:100C000002D005E00143F7E701212268C9025160E3
:100C100021684A680F4B1A434A602168CA688243B8
:100C2000CA60616920690843A16909020843216813
:100C3000C860216AE069084321680860206801688B
:100C40000122114301606664202068702663AE7043
:100C5000002070BD00800002FFB505460446403507
:100C6000687881B0202878D12878012875D00120B3
:100C70002870FFF747FF0746012200901923D10390
:100C8000204601F00FFC00283CD122206870102083
:100C9000A8700026666403986062049860856663A5
:100CA000618D2F48FF2903D9FF22228500903BE068
:100CB000618D218500903DE02046029901F0DEFB28
:100CC00016E001F017FC00281CD12068406A616A18
:100CD0000870606A401C6062208D401E81B22185D0
:100CE000608D401E6085608D002801D000290CD0E9
:100CF000608D0A9900283A462046E2D101F03AFC7C
:100D000000281CD0012005B0F0BD009700228021F2
:100D100020460A9B01F0C6FB0028F3D1608DFF2816
:100D200005D9FF222285009601231B06C4E7608DAA
:100D300020850096208D0123C2B25B06BCE72168A6
:100D40002020C86121684A68064B1A404A606870D2
:100D5000AE702E700020D6E7FFE70220D3E7000038
:100D60000024008000E800FEFFB50546044640353B
:100D7000687881B0202878D12878012875D00120A2
:100D80002870FFF7BFFE0746012200901923D10308
:100D9000204601F087FB00283CD1212068701020FC
:100DA000A870002666640398606204986085666394
:100DB000618D2F48FF2903D9FF22228500903BE057
:100DC000618D218500903DE02046029901F056FB9F
:100DD00016E001F0F5FB00281CD1606A216800785C
:100DE0008862606A401C6062608D401E6085208D54
:100DF000401E80B22085618D002901D000280CD0D2
:100E0000608D0A9900283A462046E2D101F0B2FBF3
:100E100000281CD0012005B0F0BD009700228021E1
:100E200020460A9B01F03EFB0028F3D1608DFF288D
:100E300005D9FF222285009601231B06C4E7608D99
:100E400020850096208D0123C2B25B06BCE7216895
:100E50002020C86121684A68064B1A404A606870C1
:100E6000AE702E700020D6E7FFE70220D3E7000027
:100E70000020008000E800FEF0B587B00446142191
:100E80006846FFF7F0F91C4F266800211B4C022032
:100E9000122201230625BE4211D1666B064366630A
:100EA000666B03AF064062C7C0206E460DC669463A
:100EB0001348FFF779FDE16B0120400514E0114F65
:100EC000BE4216D1666B06436663666B03AF06408F
:100ED00062C7032080026E460DC669460848FFF7C8
:100EE00063FDE16B012080050143E163E16B01409B
:100EF000059107B0F0BD0000005400400010024012
:100F000000040050005800400248816802788918A7
:100F1000816070472C00002010B50848002401684B
:100F2000821511430160204600F00AF8002801D024
:100F3000012401E000F040F8204610BD00200240EE
:100F400000B5014687B00022112000F05FF81120A3
:100F500000F050F81348C26B10210A43C263C06B03
:100F60000840059004A9684600F016FA00F030FA2F
:100F70000D49FFF7F7F80E490C4A0A600D4A401E6A
:100F8000CA604860002008618860084600F010FDD3
:100F9000002802D0012007B000BD054800F070FD18
:100FA000F9E700000010024040420F00001000402E
:100FB00020120020E703000008B50D480168012257
:100FC0001143016000681040009009484038C26B2E
:100FD00001040A43C263C06B002208400321009051
:100FE000481F00F013F80320400200F043FC08BD46
:100FF00040100240002805DBC106C90E01208840D0
:10100000014908607047000000E100E010B502F0FF
:10101000ADFF10BD10B50F4C216803225202914361
:1010200001432160C11FFF39FA390ED10A48062158
:10103000006848430949FFF795F8401C02E0002882
:1010400005D0401E61694905F9D4002010BD032078
:1010500010BD0000007000403800002040420F002A
:10106000FEB5044600680027704D714E800355D5CB
:1010700000200090F06BC00007D4F16BA80501437D
:10108000F163F16B0140012000906A48016882150C
:1010900011430160FFF736FD019005E0FFF732FDD7
:1010A0000199401A022825D862480068C005F5D584
:1010B000E8690321090208400FD0216B81420CD05E
:1010C000E86903210902EA698843012109040A4306
:1010D000EA61EA698A43EA61E861C0070FD0FFF775
:1010E00011FD019008E0FFF70DFD0199411A5248EA
:1010F000814201D9032709E0E8698007F3D5E8694F
:10110000032109028843216B0843E8610098002805
:1011100004D0F16B012000078143F1632078C00700
:1011200005D068696168800880000843686120789C
:10113000800705D568690C218843A1680843686168
:101140002078C00606D56869032189028843E168D2
:10115000084368612088800506D5686903218904F1
:101160008843A169084368612088400506D56869FD
:10117000032109058843E1690843686120788006F6
:1011800006D568690321090388432169084368611A
:10119000208840040ED56869216A800080080843D1
:1011A00068610121206A8907884203D1F0688913A8
:1011B0000843F0602068000305D568694021884332
:1011C000616A08436861206881021C480BD569691F
:1011D0008210A36A914319436961A16A914202D1C5
:1011E000F1680143F160216849020AD56969E26A40
:1011F000814311436961E16A814202D1F16801438F
:10120000F160208800050FD56869032189038843B0
:10121000616908436861012160698903884203D1DB
:10122000F06889000843F0603846FEBD4010024077
:101230000010024000700040881300000000000110
:10124000F8B50F46060043D04D4D28684007400FC3
:10125000B84213D22868C008C00038432860FFF79E
:1012600051FC044605E0FFF74DFC011B4548814257
:1012700061D828684007400FB842F4D13068424C2A
:1012800081070DD5400704D5A0680721090308434D
:10129000A060A0680F2109028843B1680843A060DC
:1012A0003078C00732D0706801280AD002280BD0ED
:1012B00000280FD03449403103280ED0C96989076E
:1012C00004E02168890301E021688901002906DB27
:1012D0000120F8BD21684905F8E7096AEFE7A16830
:1012E000C908C9000143A160FFF70CFC009006E0AB
:1012F000FFF708FC0099411A224881421BD8A068D8
:10130000382108407168C9008842F1D12868400737
:10131000400FB84217D91A480168C908C9003943B3
:101320000160FFF7EFFB054607E0FFF7EBFB411B12
:101330001448814201D90320F8BD114800684007D4
:10134000400FB842F1D13078400706D5A068072198
:1013500009038843F1680843A06000F04DF8A168D4
:101360003C2289091140094A515CC906C90EC8408E
:101370000749086007480068FFF7E2FDF8BD000074
:10138000002002408813000000100240E05A0008CC
:10139000380000203000002010B5072202600A4A01
:1013A00093685B075B0F436093680F24240223401C
:1013B0008360926807231B031A40C26003480068D9
:1013C0004007400F086010BD00100240002002409E
:1013D0000648074900688968064A4904490F890098
:1013E000515CC906C90EC840704700003800002093
:1013F00000100240205B000810B5204CA068204A75
:101400008006400F16D0A0688006410F50100129B9
:101410000FD0A1688906490F022912D0A068800662
:10142000400F042823D0A0688006400F032821D055
:10143000002010BD206801218004400F814010462B
:1014400012E0E1688B07E1689B0F4906490F491CD0
:10145000032B00D01046FEF785FEE1684904490ED3
:101460004843E168490F491CFEF77CFE10BD01208E
:10147000C00310BD7D20000210BD0000001002401E
:101480000024F400F8B504007ED020783827C00787
:10149000EF4D002846D0A868E96838408907890FD1
:1014A000102802D008280BD001E0032908D0012021
:1014B0006268000482420AD129680143296015E06C
:1014C000286880032ED560680028DDD02AE0052337
:1014D00001211B0489049A422A6802D10A432A6026
:1014E000EAE782432A602868884328606068002809
:1014F0000CD0FFF707FB064604E0FFF703FB801B59
:10150000642873D828688003F7D50BE0FFF7FAFA50
:10151000064604E0FFF7F6FA801B6428F1D8286835
:101520008003F7D42078800769D5A868E968384037
:101530008A070721920FC902102802D0002813D071
:1015400001E0022A10D0E068002846D028688843CD
:101550002169084328602868FF2101310843286079
:10156000FFF7D0FA06462CE02A68520502D5E26859
:10157000002A89D06A687F231B029A4363691B0291
:101580001A436A60002800E08DE00ED12868884385
:10159000216908432860286801218004400F8140A8
:1015A000AC48FEF7DFFDAC490860AC480068FFF7C7
:1015B000C7FC002877D122E0FFF7A4FA801B02289D
:1015C0009FD828684005F7D568687F2109028843BD
:1015D000616909020843686011E02968FF20013051
:1015E00081432960FFF78EFA064605E098E0FFF791
:1015F00089FA801B022884D828684005F7D420780F
:10160000974E00072ED5A8688006400F03280AD001
:10161000A0690028306A16D0012108433062FFF724
:1016200071FA07460BE0306A80071BD5A0690028D5
:101630009FD017E0FFF766FAC01B022870D8306A07
:101640008007F7D50EE0400840003062FFF75AFAF5
:10165000074604E0FFF756FAC01B022860D8306A3C
:101660008007F7D4207840076CD5A868002780064B
:10167000400F042818D0E86BC00008D4E96B0120A3
:1016800000070143E963E96B0140012700917548B8
:101690000168C90519D40168821511430160FFF77B
:1016A00031FA00900DE083E0F06980074AD5A06828
:1016B00000287DD046E0FFF725FA0099401A02285D
:1016C0002ED868480068C005F5D5A168012910D05A
:1016D00004200529F16911D049084900F161F16937
:1016E0008143F161A068002816D0FFF70BFA009043
:1016F0000EE0F06901210843F061F3E70143F16175
:10170000F7E7FFF7FFF90099411A574881426FD870
:10171000F0698007F5D50EE0FFF7F4F9009007E0D7
:1017200066E0FFF7EFF90099411A4F4881425FD810
:10173000F0698007F5D4002F04D0E86B0121090778
:101740008843E863E06900287FD0A9688906490FCB
:10175000022953D001263606022828680DD0B0434E
:101760002860E86880088000E860E8683F49084031
:10177000E860FFF7C7F904463CE0B0432860FFF794
:10178000C1F9074604E0FFF7BDF9C01B02282FD8B6
:1017900028688001F7D4616A206AA26A0843E16A76
:1017A000120211430843216B0843616B084300E0B8
:1017B00049E0E9682E4A11400843E8602868304350
:1017C0002860E868012109070843E860FFF79AF9F3
:1017D000044604E0FFF796F9001B022808D82868A1
:1017E0008001F7D531E0FFF78DF9001B022801D900
:1017F0000320F8BD28688001F5D426E00128F8D040
:10180000E868226A8107890F91421CD17021626ABF
:101810000140914217D17F21A26A090201401202C0
:10182000914210D11F214904E26A014091420AD13C
:1018300007214906226B0140914204D1400F616BA0
:101840004007884201D00120F8BD0020F8BD00000B
:10185000001002400024F400380000203000002076
:10186000401002400070004088130000FFFFFEEEB1
:101870008C80C11103490A6803235B029A43024327
:101880000A607047000001407047704770470000D1
:1018900070B5034620331A7F012A4BD001221A77F4
:1018A0000325CA682D02AA438D6800682A430125D2
:1018B000AD02AA434D6800242A430125ED02AA4344
:1018C0000D682A4301252D03AA430D692A430125EA
:1018D0006D03AA434D692A430125AD03AA430D6B4D
:1018E0002A430F252D04AA430D8B2D042A43124DA4
:1018F000A84204D101263607B243CE693243A8423A
:1019000014D10F252D05AA430D8D2D052A43012540
:101910002D06AA430D6A2A4301256D06AA434D6A86
:10192000C96A2A4301256D07AA430A4342641C770A
:10193000002070BD022070BD002C0140F0B50346B0
:1019400020331A7F012A2BD001221A7702225A77DC
:1019500004686268A568134FBC4205D116460F2281
:10196000120596434A6832437026B2430E68164306
:1019700066600068B84209D001229207904205D003
:10198000094A904202D0094A904204D180228968D3
:101990009543294381600120587700201877F0BDD6
:1019A0000220F0BD002C0140000400400040014036
:1019B00070B5040005D025462035687F002802D088
:1019C00006E0012070BD00202877204600F016F8C0
:1019D00002206877211D206801F05EFC012240345E
:1019E0002272AA77EA7722706270A270E270227186
:1019F0006271A271E2716A77002070BD70B586B025
:101A0000044614216846FEF72EFC012625680520B1
:101A1000B60700241849012302220007B54211D15C
:101A2000CD6B1D43CD63CD6B1D4005954D6B1D43A7
:101A30004D63496B6D4619400591910316C503949A
:101A4000049214E00D4EB54214D1CD6B1543CD6315
:101A5000CD6B154005954D6B1D434D63496B6D4630
:101A6000C907C90F0591402116C50394049369461F
:101A7000FEF79AFF06B070BD00100240000400405F
:101A8000014620314A7F012A01D0012070470222FD
:101A90004A770168CB6801221343CB6000680C4988
:101AA000884208D09107884205D00A49884202D06E
:101AB0000949884207D18168084B1940062905D099
:101AC000DB1F994202D0016811430160002070477A
:101AD000002C0140000400400040014007000100CC
:101AE0007047000070B50446006801690025C943CD
:101AF0008907002915DBC168C943890711D4E91E8C
:101B0000016101202077206880698007204602D08B
:101B1000FFF7E6FF04E000F0DDF8204600F0A2F950
:101B2000257720680169C943490717D4C168C943AB
:101B3000490713D40421C94301610220207720689A
:101B400080698005800F204602D0FFF7C9FF04E0BE
:101B500000F0C0F8204600F085F92577206801697B
:101B6000C943090716D4C168C943090712D408211B
:101B7000C9430161042020772068C069800720469E
:101B800002D0FFF7ADFF04E000F0A4F8204600F01B
:101B900069F9257720680169C943C90617D4C16866
:101BA000C943C90613D41021C94301610820207715
:101BB0002068C0698005800F204602D0FFF790FFA3
:101BC00004E000F087F8204600F04CF92577206803
:101BD0000169C943C90708D1C168C943C90704D10C
:101BE000891E0161204600F0A9F920680169C943F6
:101BF000090609D4C168C943090605D48021C9432F
:101C000001612046FFF741FE20680169C943C9050B
:101C100008D4C168C943090604D4124901612046A9
:101C2000FFF732FE20680169C943490609D4C1683B
:101C3000C943490605D44021C9430161204600F04B
:101C4000ADF920680169C943890609D4C168C9434F
:101C5000890605D42021C94301612046FFF716FEFD
:101C600070BD0000FFFEFFFF70B586B00446142172
:101C70006846FEF7F8FA14492068884222D11348D2
:101C8000416B012631434163416B31400591416B0A
:101C9000022421434163406B002520400590E00170
:101CA000694631C105206946000703950494FEF793
:101CB0007BFE0820694631C16946054804960395B4
:101CC000FEF772FE06B070BD002C0140001002400D
:101CD000000400507047F8B5064604462036307FB1
:101CE0000D4601280CD00120082730770C2A44D05B
:101CF00008DC002A0BD0042A19D0082A77D12CE05E
:101D00000220F8BD102A4ED0142A70D15BE0206862
:101D100001F024FB20688169394381612068816971
:101D2000042291438161206881692A6912E0206858
:101D300001F05AFB206881690122D20211438161BE
:101D400020688269012189028A4382612068816951
:101D50002A6912021143816149E0206801F086FB83
:101D60002068C1693943C1612068C1690422914377
:101D7000C1612068C1692A6912E0206801F0BAFBDC
:101D80002068C1690122D2021143C1612068C26981
:101D9000012189028A43C2612068C1692A6912024D
:101DA0001143C16123E0206801F0DEFB2068416D32
:101DB000394341652068426D04218A4342652068A9
:101DC000416D2A6911E0206801F000FC2068416D36
:101DD0000122D202114341652068416D52109143A6
:101DE00041652068416D2A69120211434165002056
:101DF0003077F8BD70B5040005D025462035687FE2
:101E0000002802D006E0012070BD0020287720467F
:101E100000F016F802206877211D206801F03CFAD6
:101E2000012240342272AA77EA7722706270A2708F
:101E3000E27022716271A271E2716A77002070BD56
:101E400008B500680549884207D105480268C114F1
:101E50000A43026000680840009008BD002C014061
:101E6000401002407047000030B504460222203086
:101E700000290ED0042911D020464030082912D064
:101E80000C2915D0102918D0C378012B1AD00120A5
:101E900030BD837F012BFAD1827714E0C37F012B01
:101EA000F5D1C2770FE00378012BF0D102700AE080
:101EB0004378012BEBD1427005E08378012BE6D10A
:101EC000827000E0C2700122206801F02FFA154BE9
:101ED00020681549984207D0884205D0134A90429D
:101EE00002D0134A904204D1426C0125ED032A43EB
:101EF000426420680122984207D09307984204D098
:101F00000C4B984201D0884207D181680A4B194096
:101F1000062905D0DB1F994202D0016811430160F8
:101F2000002030BD002C0140004001400044014031
:101F300000480140000400400700010010B500689F
:101F40000249884201D1FEF7DFFF10BD00100040BA
:101F500070B5044605462034207F01280ED00126A6
:101F6000267702206077284601F066FB01460020B4
:101F7000002905D066772077012070BD022070BD52
:101F80002968CA6840239A43CA602968CA681B0244
:101F90009A43CA6066772077002070BD704710B5FD
:101FA000014680310A78012A15D001220A702422C4
:101FB0004A600268136814686408640014600122AF
:101FC0005207934300224266006803602020486065
:101FD0000A70104610BD022010BD704770B504464F
:101FE00005468034207801281AD001202070242052
:101FF000606028680668026852085200026028681B
:10200000826807235B069A430A438260284601F0F0
:102010007FFB28680660202060600020207070BD73
:10202000022070BD70B50446054680342078012832
:1020300019D001202070242060602868066802689A
:1020400052085200026028688268D200D2080A430F
:102050008260284601F05CFB2868066020206060F2
:102060000020207070BD022070BD704770B5040064
:1020700005D0254680356868002802D006E001209A
:1020800070BD00202870204600F026F824206860EB
:1020900020680168490849000160204601F04CFDB4
:1020A0000128EDD0A06A002802D0204601F060FB94
:1020B000206841680922D20291434160206881680A
:1020C0002A22914381602068016801221143016046
:1020D000204601F0B3FB70BDF0B587B00546142172
:1020E0006846FEF7C0F86F4B2A6800246E4801214D
:1020F000022620279A4230D16B4A403212688B0365
:102100001A43694B40331A601A688B031A400592D0
:10211000426B0A434263406B0491084005900320E0
:10212000400200900520029401960394694600073E
:10213000FEF73AFC5E4E5D483060B4603220F460D9
:1021400070607461B461F761802034623061304640
:102150009FE0EE67B56207B0F0BD564B9A422AD1B8
:10216000C36B012252041343C363C36B1340059333
:10217000426B0A434263406B0491C007C00F059055
:102180000C200090052002940196039469460007F4
:10219000FEF70AFC4548464E14305C363060B460A9
:1021A0003420F46070607461B461F761802034623F
:1021B000306130466DE0404B9A423DD1C36B012205
:1021C00092041343C363C36B13400593426B012115
:1021D0000A434263416BC907C90F0591416B314303
:1021E0004163406B0427304005902020009005207B
:1021F000029469460497019603940007FEF7D4FB06
:1022000001200090029469460497019603942B489C
:10221000FEF7CAFB2548264E2830B8363060B46039
:102220003620F460706074618020B46130612020D9
:102230003462F06130462CE0214B9A428BD1C36B63
:102240000122D2041343C363C36B13400593426B53
:102250000A434263406B0294C007C00F05900320FD
:10226000009004200490052001960394694600071D
:10227000FEF79AFB0D48134E3C303060B4603820B6
:10228000F46070607461B461F76180203462306121
:102290003046FEF7F1FA002800D15AE7FEF78EFA31
:1022A00057E70000003801400010024008000240DB
:1022B000B0100020004400400048004000040050DE
:1022C000004C0040C411002070B5034680339C6868
:1022D000202C19D100290BD0002A09D001258468AF
:1022E0002D03AC4206D10469002C03D1CC0701D0E8
:1022F000012070BD1C78012C06D001241C70002325
:10230000C36601F037FD70BD022070BD7047704795
:10231000FFB5064604468036706883B00D46202817
:1023200060D1002D0CD00598002809D00120A168AB
:102330000003814207D12069002804D1E80702D0B8
:10234000012007B0F0BD307801284BD0012030705B
:102350000020F06021207060FEF7D4FB019027463A
:1023600040370598B8820598F8820120A1680003DB
:10237000814202D12069002804D002950025002066
:10238000307015E000200290F9E7002280212046FD
:1023900001F032FD002818D10298002817D02168DA
:1023A000007888620298401C0290F88A401EF882E9
:1023B000F88A019B002806980090E6D1002240216F
:1023C000204601F019FD002808D00320B9E728882D
:1023D0002168C005C00D8862AD1CE6E72020706052
:1023E0000020AEE70220ACE7FEE701688A69D2432D
:1023F000920701D400228A6200688169C943C90733
:1024000003D081690122114381617047F7B5044609
:1024100000680E468069C043C0062BD4202725469D
:10242000403520688069C043800612D5701CF8D002
:10243000FEF768FB0299401AB04201D8002EF0D195
:10244000606C384360646F700020A87028700120B1
:10245000FEBD21681020C8612068C7612046FFF7D3
:10246000C4FF20684168044A11404160606C042147
:102470000843E7E70020FEBD00E800FEF0B506686F
:10248000059C7568064F600D384385438805800DAF
:10249000110408431843204305437560F0BD000054
:1024A000FF63FF03F8B51D4617460E46044609E0D4
:1024B000681C07D0FEF726FB0699401AA8420BD8E5
:1024C000002D09D020688169304688430FD0002054
:1024D000B842EDD00020F8BD616C2020014361645A
:1024E000403460700020A07020700120F8BD0120F1
:1024F000EEE70000F7B500272026054604464035E4
:1025000028E02046029A0199FFF780FF002801D0B9
:102510000120FEBD20688069C043800611D4206878
:102520008169C943490702D4218D002917D1C661A9
:10253000206841680E4A1140416067646E70AF7058
:1025400013E0FEF7DFFA0299411A0198814208D898
:10255000002806D020688069C0434007D1D40020FD
:10256000FEBD606C304360646E702F70D0E7000079
:1025700000E800FE70B516460D4604460FE03246F0
:1025800029462046FFF742FF002801D0012070BDF8
:10259000FEF7B8FA801BA84208D8002D06D02068A4
:1025A0008069C0438006EAD4002070BD616C2020A1
:1025B00001436164403460700020A0702070E5E742
:1025C00070B516460D46044611E0324629462046AF
:1025D000FFF71CFF002801D0012070BD681C06D049
:1025E000FEF790FA801BA84208D8002D06D020687C
:1025F0008069C0438007E8D4002070BD616C202052
:1026000001436164403460700020A0702070E3E7F3
:1026100008B51048816B012211438163806B03214F
:102620001040009000220920FEF7F0FC0920FEF780
:10263000E1FC002203210A20FEF7E8FC0A20FEF755
:10264000D9FC002203210B20FEF7E0FC0B20FEF753
:10265000D1FC08BD0010024010B51D4A00211D48E4
:1026600001F00CFF1C4C1A4A6061B43A00211B486F
:1026700001F004FF164A2060903A0021184801F04A
:10268000FDFE134A60606C3A0021164801F0F6FE28
:102690000F4AA060483A0021134801F0EFFEE060C5
:1026A0001248216801F010FA1148616801F00CFA33
:1026B0001048A16801F008FA0F48E16801F004FA37
:1026C000034A0021243A0D4801F0D8FE206110BDD4
:1026D0009C5A0008B92F000814000020C12F0008E0
:1026E000E52F00081530000845310008700E002065
:1026F000000F0020900F0020201000204D2D00081A
:1027000008B50848416B012211434163416B1140F8
:102710000091426B02210A434263406B08400090E3
:1027200008BD00000010024010B5134811490160B7
:102730001249416000218160016141618161012292
:10274000C161C2600162FEF72DFA002801D0FEF7D8
:1027500035F800210848FEF7DBF9002801D0FEF724
:102760002DF800210448FEF7F8F9002801D0FEF703
:1027700025F810BD00540040F40C00205B3D3000F3
:1027800010B5134811490160124941600021816070
:102790000161416181610122C161C2600162FEF794
:1027A00001FA002801D0FEF709F800210848FEF7D9
:1027B000AFF9002801D0FEF701F800210448FEF728
:1027C000CCF9002801D0FDF7F9FF10BD00580040FA
:1027D000400D00205B3D300010B598B000241494EB
:1027E00015941C210DA81694FDF73DFD3421684673
:1027F000FDF739FD29492A4812C004608460C4608D
:102800002849046141600838FFF7F4FA002801D034
:10281000FDF7D4FF1494159414A921481694FFF7DA
:102820008DF8002801D0FDF7C9FF60200D9004202D
:102830000E9411900F941094129400220DA91394E9
:102840001748FFF748FA002801D0FDF7B7FF042228
:102850000DA91348FFF73FFA002801D0FDF7AEFF9E
:102860000120009440030590019402940494000315
:10287000039406940794099008940A940B9469466B
:102880000C940748FFF704F8002801D0FDF796FFE5
:102890000348FFF7E9F918B010BD0000002C014013
:1028A0008C0D0020FFFF000010B588B01421684691
:1028B000FDF7D9FC002401211548059406948907E9
:1028C000079412C004608460611E0461416008388E
:1028D000FFF76EF8002801D0FDF770FF0720009089
:1028E000502001900294694604940948FFF730FB98
:1028F000002801D0FDF762FF059405A9044807945C
:10290000FFF71CF8002801D0FDF758FF08B010BDF4
:10291000D80D002010B588B014216846FDF7A3FC3F
:1029200000241649164805940694079412C00460C2
:1029300084601449046141600838FFF739F80028C1
:1029400001D0FDF73BFF072000905020019002943A
:10295000694604940A48FFF7FBFA002801D0FDF706
:102960002DFF059405A906480794FEF7E7FF002808
:1029700001D0FDF723FF08B010BD000000040040A7
:10298000240E0020FFFF000010B518481649016012
:10299000E1214902416000218160C16001618161E2
:1029A000C16101620C22416242618162FFF75EFBFC
:1029B000002801D0FDF702FF00210C48FFF732FB91
:1029C000002801D0FDF7FAFE00210848FFF706FBBA
:1029D000002801D0FDF7F2FE0448FFF7E0FA0028D6
:1029E00001D0FDF7EBFE10BD00380140700E002055
:1029F00010B5184816490160E121490241600021E3
:102A00008160C16001618161C16101620C2241622A
:102A100042618162FFF72AFB002801D0FDF7CEFE5C
:102A200000210C48FFF7FEFA002801D0FDF7C6FE92
:102A300000210848FFF7D2FA002801D0FDF7BEFEBA
:102A40000448FFF7ACFA002801D0FDF7B7FE10BD2F
:102A500000440040000F002010B50D480B490160F4
:102A60004B21C901416000218160C1600161816128
:102A7000C16101620C22416242618162FFF7F6FA94
:102A8000002801D0FDF79AFE10BD0000004800406C
:102A9000900F002010B50D480B4901604B21C90172
:102AA000416000218160C16001618161C161016299
:102AB0000C22416242618162FFF7D8FA002801D0FE
:102AC000FDF77CFE10BD0000004C004020100020EF
:102AD00010B500210348FFF7C7F904210148FFF7AB
:102AE000C3F910BD8C0D0020F0B587B00D4604462B
:102AF000042932D3207802282FD1A81E81B2204683
:102B000001F028FC014660191E38427F037F100245
:102B10001843814221D16678042E05D0062E50D06C
:102B2000102E67D0012115E0082D0DD3E078A17893
:102B30000002084347BA607921790002084340BA8D
:102B4000002801D07D2801D9032103E03918092983
:102B500005D90221304602F011F907B0F0BD022379
:102B60006A4641061370090E5670917000226D4638
:102B700016E0BB189BB2042B03D2414C5B00E35A16
:102B800007E0082B19D05C003D4B0833E318403BAD
:102B90001B8F54001E0A6419E670521C237192B2F6
:102BA0008242E6D3C91C0C46284601F0D3FB2855C7
:102BB000000A29194870A11C60E0314B9B1E1B883C
:102BC000E7E7082DC0D3E078A178000208436179D7
:102BD00022790902114340BA49BA0428B9D2420005
:102BE00027480830815201F0A7FB2946204602F011
:102BF000BBF8B2E7092DA7D3E078A178000208431B
:102C000042BA607921790002084340BAA1790028CC
:102C10009AD07B2898D843061B0E8B4294D1131868
:102C2000042B96D809318D428ED3154B00210833E1
:102C30000BE04D002D192F7AED793F022F437DBA1D
:102C400057187F00DD53491C89B28142F1D301F04E
:102C500073FB0220694608704E70A0788870E07897
:102C6000C87020790871607948710621684601F0C2
:102C700071FB69468871000AC87108216846B6E789
:102C800002000020FEE7FFB50446007F174600263D
:102C9000C11981B01C290FD91C21C91B8DB2A842B2
:102CA00005D9401B01192A462046FDF7B5FA207FB9
:102CB000A84200D205462577207F3A46001902999E
:102CC000FDF7AAFA207FC01931E0625D2C2A03D1FA
:102CD00062195278E42A0BD06D1C8D42F5DB010697
:102CE000090E29D0611E405C20700120207723E06E
:102CF000002DF4DB08DDE9B2421A61192046FDF728
:102D00008BFA207F401B2077C0B20E2814D32046B8
:102D1000049901F0FEFB002800D00126227F214605
:102D20000E3120460E3AFDF777FA207F0E382077D5
:102D3000C0B20025411ED0E7304605B0F0BD10B549
:102D40001D21FDF790FA10BD704700009CB002F005
:102D5000D3FC7D24E40007900DE050A2502108A888
:102D600001F0DCF882B2C82308A95648FFF7D0FA70
:102D7000204601F042FB5448FDF7B6FB0028ECD199
:102D80000DE052A2502108A801F0C8F882B2C82371
:102D900008A94C48FFF7BCFA204601F02EFB46215B
:102DA0005448FDF765FC0028EBD153A2502108A838
:102DB00001F0B4F882B2C82308A94248FFF7A8FA84
:102DC000564E574F05A94048FDF7B8FB044604AAE4
:102DD00046214848FDF76FFC0546002C0DD13946C9
:102DE0000598FDF7A4FAFDF7F2FA30803946069807
:102DF000FDF79DFAFDF7EBFA7080002D01D10498E4
:102E0000F0802046284311D0234646A2502108A82E
:102E1000009501F083F882B2C82308A92948FFF77A
:102E200077FA4C4907A802F0F5F8CBE73946059840
:102E3000FDF77DFAFDF7CBFA044639460698FDF713
:102E400076FAFDF7C4FA002C11DA0A21FDF7A0F991
:102E50000D4600900A216042FDF79AF90346049A54
:102E6000009803920295009101903BA210E00A2184
:102E7000FDF78EF90D4600900A212046FDF788F9EE
:102E800003460098049C40A202950394009101908F
:102E9000502108A801F042F8BDE700005B454E56FE
:102EA0005D20414854323020696E69742066616942
:102EB0006C65642C207265747279696E672E2E2E93
:102EC0000D0A0000700E0020F40C00205B454E56E9
:102ED0005D2042483137353020696E697420666163
:102EE000696C65642C207265747279696E672E2E28
:102EF0002E0D0A00400D00205B454E565D204148D6
:102F0000543230284932433129202B20424831376E
:102F100035302072656164790D0A000002000020DE
:102F2000000020415B454E5620494E534944455DC3
:102F30002052656164206572726F72202841485486
:102F400032303A2564204248313735303A256429F9
:102F50000D0A0000881300005B454E5620494E5371
:102F60004944455D20543D2D25642E256420432091
:102F70002052483D25642E2564252520204C757857
:102F80003D256C750D0A00005B454E5620494E5399
:102F90004944455D20543D25642E2564204320206E
:102FA00052483D25642E2564252520204C75783D0A
:102FB000256C750D0A000000012001F01EFAFBE7E8
:102FC000FF24C0B001340A21012001F0EDFE2246A9
:102FD0006946034800F054FD0028F8D1F3E70000EB
:102FE000700E0020C0B0FFF773FDFF2401340A21EA
:102FF000012001F0D9FE02E06846FFF775FD224688
:103000006946034800F03CFD0100F0D0F4E7000001
:10301000000F0020C2B000200790089005460990DC
:1030200002F06AFB04463AA8FFF789FE0A21012054
:1030300001F0BAFE344E0BE0024607AB2AA93AA8CB
:10304000FFF721FE002803D06846008C0125B080E0
:1030500040222AA92D4800F013FD0028ECD102F0EF
:103060004BFB2B49001B8842E0D302F045FB044692
:10307000002D3DD068462426865FC08C002E19DACC
:103080000A21FDF76FF80F4600900A217042FDF704
:103090007FF802460098059006970392049108A8CD
:1030A00082786846018CC08B6B4607C36846838B69
:1030B000184A18E00A21FDF755F80F4600900A213A
:1030C0003046FDF765F80346009805900697039390
:1030D000049108A882786846018CC08B6B4607C3B0
:1030E0006846838B0C4A80210AA800F017FF04E091
:1030F0000AA280210AA800F011FF82B2C8230AA9FF
:103100000F48FFF705F991E702000020900F00201B
:1031100010270000405B0008945B00085B415149A8
:103120005D204E6F20646174612028636865636B65
:103130002053432D344D303141290D0A0000000049
:10314000700E002098B002F0D7FA194C1790194869
:10315000FDF784FAC821012001F026FE102213A9F0
:10316000144800F08DFC014602AA13A8FDF750FA9E
:10317000002818D169460D890F4968000880694602
:103180000A20085E0A21FDF703F8019100902B4602
:103190000AA2402103A800F0C1FE82B2C82303A9FD
:1031A0000E48FFF7B5F8214617A801F033FFCEE728
:1031B0008813000020100020000000205B45435DC4
:1031C000205444533D25752070706D2020543D25BA
:1031D000642E256420430D0A00000000700E0020BC
:1031E00010B50448006902F077FA012801D002F016
:1031F0003DF810BD00E000E010B5A0B038216846F1
:10320000FDF731F800241B941C941D9434210EA862
:103210001E94FDF728F801204002FDF7FBFE022076
:103220000090C001039040200590049407946846E4
:10323000FEF728F9002801D072B6FEE707201B90A0
:103240001C941D9400211E941BA8FDF7F9FF002873
:1032500001D072B6FEE7074818940E900F941094B0
:1032600012940EA8FDF7FCFE002801D072B6FEE70E
:1032700020B010BD2300200001200249C006886054
:103280007047000000ED00E010B50248FEF72AFC90
:1032900010BD000020120020F0B502681D4B012473
:1032A000A4071D4D984203D0A04201D0A84203D1EB
:1032B0007026B2434E683243184E194F98420DD0D3
:1032C000A0420BD0A84209D0164CA04206D0B04272
:1032D00004D0B84202D0144CA04204D103242402EA
:1032E000A243CC6822438024A2434C69224302605B
:1032F0008A68C2620A688262984206D0B04204D0EC
:10330000B84202D0084A904201D109690163012103
:103310004161F0BD002C014000040040004001402C
:1033200000440140002000400048014010B5CB0699
:10333000DB0E0121046A99408C430462016A9A40C1
:103340001143016210BD30B58468FF252D021B02B8
:103350001343AC430B432343836030BDF0B5026A93
:10336000520852000262056A43688269194C1B4E7A
:10337000224092080C6892001443022295438A6806
:103380002A43154DA84207D0B04205D0144FB84289
:1033900002D0144FB84206D10827BA43CF6817436A
:1033A000042297433A46A84207D0B04205D00C4DBC
:1033B000A84202D00B4DA84206D103252D02AB43F3
:1033C0004D691D438B692B434360846149684163A8
:1033D0000262F0BD8FFFFEFF002C01400040014063
:1033E000004401400048014070B5026A10239A432E
:1033F0000262046A43688269174D2A4003252D0240
:10340000AA430D682D021543202294438A681201B5
:103410002243124CA04207D18024A243CC6840260C
:1034200024012243B24308E00D4CA04205D00D4CCC
:10343000A04202D00C4CA04208D10324A402A34312
:103440004C69A4001C438B699B0023434360856146
:1034500049688163026270BDFF8FFFFE002C01404E
:1034600000400140004401400048014070B5026A3C
:10347000FF2301339A430262046A4368C269184D0C
:103480002A4092080D68920015430122520294438B
:103490008A6812022243134CA04208D11446CA681B
:1034A000C614B443120222430415A24308E00E4C92
:1034B000A04205D00D4CA04202D00D4CA04208D134
:1034C00003242403A3434C6924011C438B691B017F
:1034D00023434360C5614968C163026270BD000057
:1034E0008FFFFEFF002C01400040014000440140DE
:1034F0000048014030B5026A01231B039A4302626F
:10350000046A4368C269134D2A4003252D02AA4369
:103510000D682D0215430122520394438A68120359
:1035200022430D4CA04208D00C4CA04205D00C4CBC
:10353000A04202D00B4CA04205D10124A403A34316
:103540004C69A40123434360C56149680164026278
:1035500030BD0000FF8FFFFE002C01400040014005
:10356000004401400048014070B5026A012636045B
:10357000B2430262046A4268436D0F4D2B400D68EE
:103580001D4373009C430B891B0423430B4CA04237
:1035900008D00B4CA04205D00A4CA04202D00A4CE5
:1035A000A04203D14C69B2432402224342604565E4
:1035B00049688165036270BD8FFFFEFF002C0140EA
:1035C00000400140004401400048014030B5026A1B
:1035D00001231B059A430262046A4268436D114D40
:1035E0002B400D682D021D4301235B059C430B8975
:1035F0001B0523430C4CA04208D00C4CA04205D024
:103600000B4CA04202D00B4CA04205D10124A404D3
:10361000A2434C69A4022243426045654968C165E2
:10362000036230BDFF8FFFFE002C014000400140CF
:10363000004401400048014070B50468A368204A76
:1036400013404A681A431F4B1A400B681343A36088
:103650004A6813071B0F30D11211130000F078FCD9
:10366000082D2D2D2D0C2228052D0B698A68C9687F
:103670000068FFF768FE20E00A68052A10D002689B
:10368000136A146A6408640014620468A269096910
:10369000F025AA4309011143A161006803620CE00F
:1036A000012070BD0A698968006800F00DF804E027
:1036B0000A698968006800F018F8002070BD0000F1
:1036C0008FFFCFFFF8FFFEFF30B5036A046A64087E
:1036D000640004628469F025AC43120122430A2489
:1036E000A3430B438261036230BD30B5036A1024EB
:1036F000A34303628469036A0F252D031203AC43BD
:103700002243A024A343090119438261016230BD11
:10371000F0B513A106C985B00192009112A206CAA4
:10372000039202910446416E4034002915D000688E
:103730008168806809014D0F400F02AE315C6F4611
:10374000385CC000FCF70EFD6085785D715DC000DF
:10375000FCF708FD208505B0F0BD01206085F9E784
:10376000010101030701000008040204080101012E
:1037700010B5018DC90707D001684A6801235B04B1
:103780009A43C36A1A434A60018D890707D50168C5
:103790004A6801231B049A43036B1A434A60018D54
:1037A000490707D501684A6801239B049A43436B84
:1037B0001A434A60018D090707D501684A68012349
:1037C000DB039A43836B1A434A60018DC90607D510
:1037D0000268916801231B039943C36B19439160ED
:1037E000018D890607D501688A6801235B039A4326
:1037F000036C1A438A60018D490612D503685A6822
:1038000001210905446C8A4322435A60426C8A4272
:1038100007D10268516803235B059943836C194300
:103820005160018D090607D501684A680123DB0450
:10383000C06C9A4302434A6010BD0000FEB50546C5
:10384000002680350446EE60FDF75CF901902068A3
:103850000068124F000709D5012100970022490591
:103860002046019B00F0C8FA00280DD120680068AE
:1038700040070BD501210097002289052046019BB6
:1038800000F0BAFA002801D00320FEBD20206860B5
:10389000A860E6662E700020FEBD0000FFFFFF015D
:1038A000F8B5846A204680304168054686682068FD
:1038B000806800270006002806DA212904D1562056
:1038C0000753204600F028F920688068400606D596
:1038D000222E04D15E200753204600F001F9E8684B
:1038E00010210843E8602046FEF7BFFBF8BD10B585
:1038F00001460968806A096889061DD400225E2194
:103900000A5201680A68FF2301339A430A6001687A
:103910008A68520852008A6001688A6840239A4384
:103920008A60202288210A50C16E012904D10168D1
:103930000A6810239A430A60C16E012902D0FEF77B
:10394000E5FC10BD5C21095AFEF747FB10BD10B520
:10395000806AC16E012902D0FEF7D9FC10BD5C213E
:10396000095A4908FEF739FB10BD0000F8B50546B5
:1039700000F00CFD04002BD0E86F00684068FF23C6
:103980000133181A85B20320000226183289AA4290
:103990001ED0AA4201D22B4605E0211D204601F08F
:1039A00063F92B460022211D204601F05DF9358187
:1039B000F06800280CD0002000906946F06801F003
:1039C00065FB0098002803D00120024900074860E9
:1039D000F8BD000000ED00E0F8B5224D2048286059
:1039E0002249214808612349214808622349224885
:1039F0000024274608633120000126464643032061
:103A00007119000208188780C7800781C760FF22EC
:103A1000A8590132091DFEF757FCA8590068016832
:103A2000102211430160641C042CE4DB00220321FA
:103A30001B20FDF7EBFA1B20FDF7DCFA0022032127
:103A40001C20FDF7E3FA1C20FDF7D4FA0022032125
:103A50001D20FDF7DBFA1D20FDF7CCFAF8BD0000B4
:103A6000700E0020B4000020000F0020B4030020DE
:103A7000900F0020B406002020100020B409002080
:103A800070B514460D4600F081FC00281BD00321C0
:103A9000090242189188D388C91AC905C90DA142E3
:103AA00000D20C460021FF30053009E09BB21B5CC0
:103AB0006B54D3885B1CDB05DB0D491CD38089B2BA
:103AC000A142F3D3204670BD10B50C4600F05EFC59
:103AD000002803D0032109024018C46010BD000073
:103AE00001680A68FF2321339A430A6001688A68E3
:103AF000084B1A408A60C16E012904D101680A6826
:103B000010239A430A60202288210A500021C166AE
:103B100001677047FEFFFFEF01680A68C0239A4300
:103B20000A6001688A680123DB059A438A602021C4
:103B30008030416070470000F8B504462269A168F2
:103B4000E5691143626900262A431143626E0068E9
:103B50000A437C4B01687C4D294011430160206879
:103B60004168032212039143E268114341602168D6
:103B7000A069994201D0226A10438A68734D2A4095
:103B800002438A602068C16A626A09090901114317
:103B9000C1626F4922686F488A420AD14069800732
:103BA000800F1AD001283DD0022839D0032827D110
:103BB00024E069498A420AD140690C2108400CD0AE
:103BC00004282FD008282BD00C2819D116E06349DF
:103BD0008A4202D062498A4201D1002111E09A4210
:103BE0000ED141690320800201400AD001208002E9
:103BF000091A17D0091A13D0814201D1082100E017
:103C000010210120574D584FC0039A423BD1002943
:103C10000AD0022911D0042909D008297ED10BE04D
:103C20000221EEE70421ECE7FDF7D2FB01E0FDF70E
:103C3000E3FB050001D17AE00546606A4000395A8D
:103C400028460091FCF78EFA67687900791881425E
:103C500069D83903814266D3002328461946009A61
:103C6000FCF7AAFA020E0902030278081143181899
:103C7000002251413A460023FCF79EFA0321090233
:103C8000411A3A4A4DE0E269824228D1002906D021
:103C9000022907D0042907D0082944D108E0FDF7FC
:103CA00097FB03E0284603E0FDF7A6FB00283ED083
:103CB000616A4900795AFCF755FA616840004A0880
:103CC0008018FCF74FFA80B202462949103A8A421E
:103CD00029D8491C01400007400F084325E000296E
:103CE00006D0022907D0042907D008291BD108E0F3
:103CF000FDF76EFB03E0284603E0FDF77DFB00289F
:103D000015D0616A4900795AFCF72CFA61684A08B3
:103D10008018FCF727FA80B2014600E003E0144A5D
:103D20001039914201D9012601E02168C86020467E
:103D300001214030418501850020206760673046C1
:103D4000F8BD000000800040F369FFCFFFF4FF11D1
:103D5000003801404010024000440040004800404C
:103D6000004C00400024F400C65A0008FFFC0F007D
:103D7000EFFF0000F8B50446816540300026254677
:103D800082838035EE602220A860E06F00281AD080
:103D90001649C162E16F16480863E16F1548486330
:103DA000E06F13468663A76D21683A462431E06FC1
:103DB000FCF7B4FD002806D01020E8602E7020200B
:103DC00068600120F8BD2E7020680168FF22013272
:103DD00011430160206881680122114381602068DD
:103DE00081684022114381600020F8BDEF3800084F
:103DF0004F390008A1380008FFB581B005460F46CD
:103E0000044680350A9E38E0701C36D0FCF77AFEF6
:103E10000499401AB04221D8002E1FD020680168B2
:103E200049072AD5C069C043000526D4012021686E
:103E3000C002086220680168FF22A132914301603C
:103E40002068816849084900816020206860A86076
:103E5000E86000202870032005B0F0BD20680168EC
:103E6000FF22A1329143016020688168490849001E
:103E7000816020206860A860EBE72068C16938464F
:103E8000884305D0002103988142BDD00020E3E79C
:103E90000121F8E710B5074C2068C169C90604D5AF
:103EA000102101622046FFF761FD21680E200862A3
:103EB00010BD0000700E002010B5074C2068C169CD
:103EC000C90604D5102101622046FFF74FFD216885
:103ED0000E20086210BD0000000F002070B50D4ECE
:103EE0003068C1691024C906002903DA046230462B
:103EF000FFF73CFD30680E250562074E3068C1694A
:103F0000C90603D504623046FFF730FD306805620C
:103F100070BD0000900F0020201000200FB41CB5D1
:103F20000246002007AC00290BD0491E01910092E7
:103F3000064B6A462146069800F04AF8009A00218E
:103F400011701CBC08BC04B01847000021430008D5
:103F500030B47446641E2578641CAB4200D21D4602
:103F6000635D5B00E31830BC184700008307FF2245
:103F7000DB0E9A408907090E9940002808DB830868
:103F800009489B001B181868904308431860704745
:103F90000007000F0838830804489B001B18D869E5
:103FA00090430843D861704700E400E000ED00E072
:103FB00002E008C8121F08C1002AFAD170477047F2
:103FC000002001E001C1121F002AFBD17047000050
:103FD000FFB58FB00546002606E025280AD0129AC4
:103FE000119990476D1C761C28780028F5D1304631
:103FF00013B0F0BD002402940121B54A009400E002
:1040000004436D1C2B780846203B98401042F7D1A2
:1040100028782A280ED0022228780146303909292A
:1040200016D802990A2359433039401814436D1C9D
:104030000290F1E7109802C802911090002904DA6A
:1040400001204003044348420290022004436D1CB7
:1040500028782E2817D10420044368786D1C2A285C
:104060000CD110986D1C02C8009110900BE00099C3
:104070000A225143303940186D1C009028780146BF
:1040800030390929F3D928786C2810D006DC4C285F
:104090001AD068280ED06A2817D104E0742813D0EB
:1040A0007A2812D110E00120400504430CE00121E0
:1040B000090501E0032109050C436978814203D118
:1040C0000120000524186D1C6D1C2878692874D007
:1040D00006DC00288BD0632827D0642806D16CE04A
:1040E0006E2808D073282CD0752878D0129A119990
:1040F0009047761C5FE06002400F022809D0032839
:104100000DD00428109801680DD00E60001D10908D
:1041100051E01098F21701680E604A60F6E71098B7
:1041200001680E80F2E70E70F0E710986A46017899
:104130001173001D10900020507303A801900120FE
:1041400005E0109802C8019110900020C04361075B
:104150000CD5002700E07F1C00998F420FDA8742C0
:10416000F9DB0199C95D0029F5D108E0002700E0DD
:104170007F1C8742FCDB0199C95D0029F8D10298B8
:104180002146C01B0290129B119A00F0B3F88019CF
:10419000C61907E0019801990078491C0191129A0B
:1041A000119990477F1EF5D22146129B119A0298D1
:1041B00000F090F886196D1C16E70A2001901099FE
:1041C00001C910916102490F032900D100B20429ED
:1041D00000D140B2002803DA40422D2103E00DE077
:1041E000210504D52B216A461173012103E0E10763
:1041F00011D02021F7E70CAF0C9114E00A200190B8
:10420000109901C910916102490F032900D180B2B0
:10421000042900D1C0B20021EDE70199FBF7A2FF0C
:1042200030317F1E39700028F7D104A8C01B203020
:104230000190600704D5012000048443009801E048
:10424000012000900199884201DD401A00E0002021
:10425000411800900C9809180298401A0290E00347
:1042600006D42146129B119A029800F043F8861951
:1042700000200D9008E003A9085C129A119990475C
:104280000D98401C761C0D900C998842F3DBE003DE
:104290000CD52146129B119A029800F02BF8861932
:1042A00004E0129A302011999047761C0099481E1C
:1042B00000900029F5DC05E03878129A7F1C1199EE
:1042C0009047761C0199481E01900029F4DC6BE7A9
:1042D00009280100F8B5044600251E461746880443
:1042E00004D405E039462020B0476D1C641EF9D582
:1042F0002846F8BDFFB50446002581B01E46C80318
:1043000001D5302700E02027880404D505E0384691
:104310000399B0476D1C641EF9D5284605B0F0BD61
:104320004A68002A06D00A68531C0B60107048685F
:10433000401E4860704700000448828804490B68AA
:104340005A63C08809688863704700000A0000202B
:104350008C0D002030B503460A480B4C0CE01A784F
:10436000504000225B1CC50702D04008604000E0BE
:104370004008521C082AF6DB0A46491E89B2002A68
:10438000EDD130BDFFFF000001A00000084A002170
:1043900031231B014B43D358834204D13120000108
:1043A000414388187047491C0429F1DB00207047FD
:1043B000B4000020FCF7B0FDFEF71EFFFEF7A0F9E9
:1043C000FEF726F9FEF7B0F9FEF7DAF9FEF7DCFAA8
:1043D000FEF70EFBFEF740FBFEF75CFBFEF7FCF979
:1043E000FEF762FAFEF796FAFFF7F6FA00F014F815
:1043F000FEF732F900F024F8FEE710B5EFF305817F
:10440000002902D00524E44304E00024002801D060
:1044100000F0E8FD204610BDEFF30580002802D033
:104420000520C043704705480168002902D00020DC
:10443000C043704701210160002070478C000020BC
:1044400010B5EFF30580002802D00520C04310BD51
:1044500008480168012902D00020C04310BD064968
:10446000CA691202120ACA610221016000F07EFECE
:10447000002010BD8C00002000ED00E0F0B58C465F
:1044800085B000210391EFF3058100293FD1002879
:104490003DD0802518210024002A2CD01368002B41
:1044A00000D01C469369002B03D019465B1E382BA5
:1044B00002D21379DB0702D0002005B0F0BD5669A7
:1044C000002E00D0B5089768D368002F0ED05C2B63
:1044D0001DD31269002A1AD0002E18D06E4686C647
:1044E00063462A46214601F0D4F80FE0002B0ED196
:1044F0001269002A0BD103AA01920091AAB2634665
:10450000214601F09DF8012801D000200390039876
:10451000D3E710B500231A46845C521CE3189BB203
:104520000D2AF9D3DAB2437B9A4201D0002010BDA4
:10453000C27883781202D2180A8042790379120273
:10454000D2184A80C27983791202D2188A80027AFC
:104550008A71827A0A235A43437AD2180A81027BEB
:104560000A23C07A5A4310184881012010BD000068
:10457000F8B5134C0F46E66805462068001D00F0AC
:1045800043FC681C07D1002F05D021680D48091D88
:1045900000F08AFCF8BD2068751945602168B542B5
:1045A00004D2A06B091D00F067FCF8BD606B091D0B
:1045B00000F062FCA06A8542F7D2A562F8BD000057
:1045C0003C0000205C170020F8B5054600F078FCA0
:1045D000294CA068401CA0602068284F002803D008
:1045E0006069002825D02AE02560A068012826D12E
:1045F000002614207043C01900F030FC761C382EC1
:10460000F7D31F4800F02AFC1D48143000F026FCA8
:104610001B48283000F022FC19483C3000F01EFCFA
:104620001748503000F01AFC154860631430A0633E
:1046300005E02068E96AC06A884200D82560606A9F
:10464000401C60626864E86A2169884200D9206180
:1046500014214843C019291D00F026FC00F03CFC41
:104660006069002806D02068E96AC06A884201D2E1
:1046700000F078FCF8BD00003C000020AC120020E7
:104680000C17002038B500F01BFC114C20680028E6
:104690001AD1104800F0E2FB0E48143000F0DEFBA7
:1046A0000C48E06014300B4B20610020F03B1A46B0
:1046B0000090503210210A2000F0EAFD206000280E
:1046C00002D005A100F05AFC00F006FC38BD000045
:1046D0007800002060180020546D72510000000026
:1046E00010B5026C0C46002A0CD0C1688B18C36050
:1046F00081688B4201D2194601E00168C160204601
:10470000FBF78AFD10BDF8B5856B174604460026F9
:10471000026C002A11D0002F19D0E068FBF77CFD55
:10472000E168206C091AE1602268914202D2A16816
:10473000081AE060022F17D019E02068002816D16F
:10474000A06801F03DF806460020A0600FE0606818
:10475000FBF762FD216C606840186060A1688842C8
:1047600005D32068606002E0002D00D06D1E6D1C36
:10477000A5633046F8BD10B504464030407E0028A1
:1047800005D0012806D0022807D072B6FEE7206BBC
:1047900000F0B0FB204600F0ADFB10BD05210E4837
:1047A000C902420705D0C01DC0080B4AC000821ACA
:1047B000891A0A4A0023411809C20839C908C900E0
:1047C000203A11604B600B600B1A0AC09360012005
:1047D000C007536050617047401F0020A8000020B0
:1047E0000F4E104C104F11E000F06AFBF068C568E6
:1047F000281D00F009FBA068401EA0606068401EF4
:10480000606000F069FB2846FFF7B5FF606800288C
:10481000EAD138680128F9D900F0A4FBF6E70000D6
:10482000481700203C000020AC12002070B5049C0A
:104830001D46002909D022602164E0630121204641
:1048400000F046FD4034257370BD2460F4E7FFB5E9
:1048500081B097000C9C0D460A9EA5223946206B1C
:10486000FBF7FAFC206B3F1FC019C008C000009086
:10487000400701D072B6FEE7274640370021002DE1
:104880000CD0002023182A5C20331A752A5C002AD9
:1048900002D0401C1028F5D3F97001E034200155F6
:1048A000382E00D33726E662E6640D46201D2165CA
:1048B00000F0DFFA2046183000F0DBFA24613820DF
:1048C000801B6462A06165653D76049A0199009839
:1048D00000F03AFA20600B98002800D0046005B080
:1048E000F0BD000030B5114900E011460A6882426F
:1048F000FBD34B685C18844203D1406818184860A9
:10490000084643681C18944209D1084C183C246896
:10491000A24209D052689A1842600A68126802607E
:10492000814200D0086030BD0460F9E7A800002093
:1049300070B5002441600B4D0061914206D8D11A38
:104940008269914206D2011D286907E09A4203D28A
:10495000994201D3012403E0011DE86800F08CFABC
:10496000204670BD7800002010B5044600F0A8FA7B
:10497000A06B002804D0002400F0AEFA204610BD41
:104980000124F9E7F0B587B00125374E63E00198BF
:10499000002806DA029A04990398904701980028A3
:1049A00059DB039C6069002802D0201D00F02CFA1E
:1049B00005A800F0BFF8024601980300FFF7C8FA07
:1049C0000A060606282E3F0606282E4B27462037C5
:1049D000387A284338720298A16903464118204664
:1049E000FFF7A6FF002836D0216A20468847387A8C
:1049F000400730D5002000900298A169002342189A
:104A00001946204600F0C6FF002824D172B6FEE702
:104A10002034207A4008400020721CE020462030DC
:104A2000017A294301720298A061002805D08118FB
:104A300013462046FFF77CFF0DE072B6FEE72046E6
:104A40002030017A8A0703D4204600F053FA02E0AE
:104A5000490849000172002201A9306800F041FDB7
:104A6000002894D107B0F0BD78000020FEB50E46B6
:104A7000044600F0AFFB01A800F05CF80546019881
:104A8000002802D000F002FFFEBD214F002E10D002
:104A900038690068002838D00026611B3246386823
:104AA00000F07EFA00F0F2FE0028EDD100F05AFA94
:104AB000FEBDAC42F1D800F0E9FEF8682E46C068B1
:104AC000C568281D00F0A0F929462031087A420760
:104AD00014D5A8692346011932462846FFF728FF56
:104AE00000280ED0002003460146009022462846AA
:104AF00000F050FF002804D172B6FEE740084000E5
:104B00000872296A28468847FEBD0126C5E70000CD
:104B1000780000200648416B0968002905D0416BE8
:104B2000C968C9684968816270470021C943FAE7CA
:104B30003C00002070B5054600F0DEFD064E044640
:104B4000B068844203D200F009F8012000E00020A0
:104B500028602046B46070BD78000020F8B5174D7D
:104B600021E0C068C4680668201D00F04DF9216A84
:104B7000204688472820005D400714D5A069801989
:104B8000B04206D924616060211DE86800F074F924
:104B900009E000200346014600903246204600F01E
:104BA000F9FE002807D0E86801680029D9D12969F1
:104BB000E9602861F8BD72B6FEE7000078000020C9
:104BC00003480068401C72B600D0FEE7FEE7000014
:104BD000B0000020074CE0680168002907D0C068D9
:104BE00000210068FFF742FFFFF7CCFEF3E7012149
:104BF0000020F7E778000020F8B5044600F060F9DF
:104C0000254640350526AE57274624370BE0606A17
:104C100000280AD0384600F007FE002801D000F036
:104C20002FFA761E76B2002EF1DC0027FF436F715B
:104C300000F052F900F044F90426AE572046103037
:104C400000900BE0206900280AD0009800F0ECFDED
:104C5000002801D000F014FA761E76B2002EF1DCA6
:104C60002F7100F039F9F8BD70B50325C41D2D0270
:104C7000FD34401909E08D5C8688355585886D1CAA
:104C8000ED05ED0D8580521C92B29A42F3D370BDB2
:104C9000F8B50546002700F09DFA2A4E3068002836
:104CA00001D1FFF77BFD7069054242D1002D40D054
:104CB0000835680708D06807400F0821081A451909
:104CC000680701D072B6FEE7002D32D070688542C9
:104CD0002FD81C48183001460C6801E020460C46CD
:104CE0006168A94202D221680029F7D131688C425B
:104CF0001FD007682168016060680837411B1029D0
:104D000008D96019420701D072B6FEE741606560BC
:104D1000FFF7E8FD61687068401A7060B268904201
:104D200000D2B06070690143002003C4F068401CE9
:104D3000F06000F0ABFD780701D072B6FEE73846B0
:104D4000F8BD00009000002010B50124031F2406C8
:104D50001C601B1F1960191F024B0B60143940386F
:104D60000A6010BDC14B00080A4610B50146322347
:104D70000148FDF7CDFA10BD000F00201CB502233D
:104D80006A461370802210436A4650709170032166
:104D90006846FFF7DFFA6A46D070000A10710521F5
:104DA0006846FFF7E1FF1CBD70B50C46064600F0F3
:104DB00087F8144D2868406D00280AD12868012121
:104DC00040300176002C04D02046FFF7D1FB00F0E4
:104DD000C9F800F081F800F073F82868446D0020ED
:104DE000002C07D0002E02D02968486502E02A680E
:104DF000611E516529684031087600F06DF8204643
:104E000070BD00003C0000204368826801699A6020
:104E1000836842685A604A68824201D182684A6067
:104E2000002202610868401E0860086870470000A0
:104E3000034B036018465C300860802010607047A8
:104E400088180020044B036018465C300860FF207F
:104E50000130106070470000E41A0020014608315C
:104E600000224160D243C160826001610021016083
:104E7000704700210161704730B50B685A1C02D0A1
:104E80000246083202E0026904E0224654682568BE
:104E90009D42FAD953684B6099608A6051600861FD
:104EA0000168491C016030BD42684A6093688B60AC
:104EB00093685960916008610168491C01607047FE
:104EC00072B604480168491C0160BFF34F8FBFF3FD
:104ED0006F8F7047B000002005490868002804D093
:104EE000401E086000D162B6704772B6FEE700004F
:104EF000B000002070B500281DD004460E4D083CBF
:104F000060686969084201D172B6FEE72268002A2A
:104F100001D072B6FEE78843606000F05BF960681C
:104F20006968401868602046FFF7DCFC2869401C6F
:104F3000286100F0ABFC70BD9000002010B5074C5C
:104F400000202061A06106487D21C9000068FBF7B0
:104F500009F9401E60610720206110BD00E000E0FB
:104F6000380000200120044900074860BFF34F8F3C
:104F7000BFF36F8F7047000000ED00E010B5074BE6
:104F80000022D4001C59002C03D0521C082AF8D34C
:104F900010BDD2009950D118486010BD6C1200208D
:104FA00070B515460E460446FFF78AFF204640308E
:104FB000042282560021521C00D101710522825622
:104FC000521C00D14171FFF787FFA06B002805D16B
:104FD00020462A463146243000F0B0F82046FFF73C
:104FE0000BFE70BD10B502000FD00948006B002801
:104FF00001D072B6FEE700F0EDF800211046FFF791
:10500000B7FA00F043FC002801D1FFF7ABFF10BD59
:105010003C00002070B50D46040007D0002D07D0DD
:10502000124A106B002805D072B6FEE772B6FEE792
:1050300072B6FEE700F0CEF8D268236859199342A1
:1050400004D98B420AD9914202D807E08B42FAD99F
:10505000881A21600021FFF78BFA00E0216000F040
:1050600015FC002801D1FFF77DFF70BD3C0000203A
:1050700002490A6A0260C968416070473C0000202A
:1050800001490120C86170473C000020F8B50E4678
:1050900000280ED00446FBF72FF807462046403084
:1050A000017E02220276606D401C6065012902D0FB
:1050B00027E072B6FEE7A06A002801D072B6FEE7CC
:1050C000124D286B002803D02146183110480CE0FF
:1050D000201DFFF799FEE06A2969884200D92861FE
:1050E000142148430B494018211DFFF7DDFEE06AFB
:1050F0002968C96A884204D90120002E00D0306096
:10510000E8613846FAF7FCFFF8BD00003C000020DB
:1051100034170020AC12002010B50C46002809D02E
:10512000054909681831FFF7A7FE01212046FFF75E
:105130001FFA10BD72B6FEE73C00002070B51446A1
:105140000D4600280DD0084909681831FFF7ACFE5C
:10515000002C01D00025ED4321462846FFF708FA30
:1051600070BD72B6FEE700003C00002030B587B08D
:105170000024039405AA04A903A80494FFF758FE89
:105180000499039800940191029000230DA10F4807
:10519000059A00F07EFA0E4D0028E86210D000F06B
:1051A000CDFB012803D0401C0AD172B6FEE772B6CF
:1051B0000020C043A86201206861EC6000F03EF866
:1051C00007B030BD49444C4500000000E1470008ED
:1051D0003C0000200248016B491C0163704700003D
:1051E0003C00002010B51348016B002902D00121BA
:1051F000C16110BD0021C16101690F4A02E00029AF
:1052000015D0491E14234B43D358002BF7D0142339
:105210004B439A18536814465B6808345360A342A2
:1052200001D15B685360DA680260016110BD72B63B
:10523000FEE700003C000020AC12002010B5094839
:10524000016AFF22120411430162016A1202114332
:105250000162FFF773FE044900200860FAF738FF87
:10526000002010BD00ED00E0B000002010B5FAF7FE
:1052700043FF044600F046FA002803D0012003490A
:10528000000748602046FAF73BFF10BD00ED00E044
:10529000F8B5069D002806D0002B06D0002A08D0BD
:1052A000002904D009E072B6FEE772B6FEE772B6D6
:1052B000FEE7002901D072B6FEE750241C46012605
:1052C00040339E712B460094FFF7B0FA2046F8BD9C
:1052D00070B50D46040025D0FFF7F2FD216CE06BA0
:1052E000484321684118A1600021A16321686160E1
:1052F000E06B216C401E484321684118E1600021A9
:10530000C94320464030017141713038002D0BD027
:10531000FFF7A4FD20462430FFF7A0FDFFF7DCFDDA
:10532000012070BD72B6FEE721690029F6D000F0B9
:105330007BFA0028F2D0FFF715FEEFE7FFB5002655
:1053400083B01D46040003D00498002802D006E074
:1053500072B6FEE7206C002801D072B6FEE7022D7F
:1053600004D1E06B012801D072B6FEE700F0B4F979
:105370000027002804D10598002801D072B6FEE766
:10538000FFF79EFDA06BE16B884207D3022D05D08D
:105390000598002817D0002E18D01BE02A4620467A
:1053A0000499FFF7B0F9616A002903D02046243040
:1053B00000F03AFA002801D0FFF7D4FDFFF78CFD8A
:1053C000012007B0F0BDFFF787FD22E06846FFF738
:1053D0004FFE0126FFF780FDFFF7FCFEFFF770FD93
:1053E0002046403004214156491C00D10771052157
:1053F0004156491C00D14771FFF76EFD05A968466B
:1054000000F0F0F8002806D02046FFF7F5FB00F08A
:105410003DFA0020D5E7FFF753FDA06BE16B884212
:1054200010D1FFF759FD204610300599FFF774FEA3
:105430002046FFF7E1FB00F029FA0028A0D1FFF792
:1054400091FD9DE7FFF748FD2046FFF7D5FB00F0F3
:105450001DFA95E7FFB581B01E46040003D00298FF
:10546000002802D006E072B6FEE7206C002801D0CA
:1054700072B6FEE7022E04D1E06B012801D072B6AD
:10548000FEE7FAF739FE0090A06BE16B884208D383
:10549000022E06D000240098FAF732FE204605B00E
:1054A000F0BD20464030052545570746A06B3246E3
:1054B00020460299FFF727F9681C03D06D1C7D7107
:1054C0000124E8E7606A0028FAD02046243000F082
:1054D000ABF90028F4D003980028F1D00121016035
:1054E000EEE7F7B5002582B0040003D0039800284A
:1054F00002D006E072B6FEE7206C002801D072B63A
:10550000FEE700F0E9F80026002804D104980028FE
:1055100001D072B6FEE7FFF7D3FCA76B002F15D0C2
:1055200020460399FFF7DCF87F1EA7632069002857
:1055300007D02046103000F077F9002801D0FFF79F
:1055400011FDFFF7C9FC012005B0F0BD049800284B
:1055500002D0002D03D006E0FFF7BEFC27E068462E
:10556000FFF786FD0125FFF7B7FCFFF733FEFFF7D6
:10557000A7FC2046403004214156491C00D1067149
:1055800005214156491C00D14671FFF7A5FC04A92D
:10559000684600F027F8002820460AD0FFF72CFBC9
:1055A00000F074F92046FFF7DFF90028B3D000209F
:1055B000CAE7FFF7D9F900280ED020462430049915
:1055C000FFF7AAFD2046FFF717FB00F05FF9002860
:1055D000A1D1FFF7C7FC9EE72046FFF70DFB00F0C7
:1055E00055F998E7F8B50C46050012D0002C12D0FA
:1055F000FFF766FC114BDA686E682068911B471C48
:105600000BD02F681B6A9F420CD096420AD8012407
:1056100004E072B6FEE772B6FEE70024FFF75CFC1A
:105620002046F8BD884205D9401A20602846FFF779
:105630001FFDF2E700202060E9E700003C000020A9
:10564000FFB585B0164690000F9FFFF721FB0500C0
:105650001CD05C20FFF71CFB040014D00020592153
:10566000256308550E9900910390019702943246E4
:10567000089B06990598FFF7EAF82046FEF7A4FF75
:10568000012009B0F0BD2846FFF734FC0020C043DC
:10569000F7E7F0B585B007460B9D0C9C0A98002DE6
:1056A00015D0002C15D05C262563022559263555CA
:1056B000002504AE00900196039502943846FFF74A
:1056C000C6F82046FEF780FF049805B0F0BD72B61C
:1056D000FEE772B6FEE7000006484169002904D0E3
:1056E000006B002803D00020704701207047022083
:1056F000704700003C0000200148C068704700006F
:105700003C000020F8B52C4C0027206B002804D06A
:10571000A069401CA0613846F8BDE668761CE660CA
:105720000ED1606B0068002801D072B6FEE7606B96
:10573000A16B6163A063206A401C2062FFF7EAF955
:10574000A06A86420AD3606B0068002814D0606BA0
:10575000C068C5686868864211D2A06220681421BA
:10576000C06A484315490858012800D90127E06953
:105770000028D0D00127CEE70020C043EDE7281D48
:10578000FFF742FBA86A002803D028461830FFF72D
:105790003BFBE86A2169884200D920611421484313
:1057A00006494018291DFFF77FFBE86A2168C96A8E
:1057B0008842C8D30127C6E73C000020AC12002075
:1057C00070B500210446002828D0154D2868844271
:1057D00001D072B6FEE7206D002808D0401E20657B
:1057E000E36CE26A9A4219D0002802D016E072B641
:1057F000FEE7201DFFF708FBE06C3821E062081A85
:10580000A061E06A2969884200D9286114214843CF
:1058100004494018211DFFF747FB0121084670BDD0
:105820003C000020AC12002070B5C068C468002C99
:105830000BD0204618300646FFF7E6FA104D286BCD
:10584000002804D031460F480EE072B6FEE7201D56
:10585000FFF7DAFAE06A2969884200D92861142141
:10586000484309494018211DFFF71EFBE06A2968DB
:10587000C96A884202D90120E86170BD002070BD6C
:105880003C00002034170020AC120020F8B5284C52
:105890000025206B2E46002808D0FFF711FB206B57
:1058A000401E2063206B002802D03CE072B6FEE769
:1058B000A168204F00291CD135E0F868C56828464A
:1058C0001830FFF7A1FA281DFFF79EFAE86A216950
:1058D000884200D920611421484317494018291DE6
:1058E000FFF7E2FAE86A2168C96A884201D3012019
:1058F000E06138680028E0D1002D01D0FFF70AF9F7
:10590000A569002D09D00127FFF7FCFE002800D073
:10591000E7616D1EF8D10020A061E069002802D087
:105920000126FFF71FFBFFF7D7FA3046F8BD00004E
:105930003C00002034170020AC12002010B586B0C7
:10594000FEF7A0FE0F4C2068002819D0002003901D
:10595000049005AA04A903A8FFF774FA0220039A89
:105960000499009002920191002307A10848059A2A
:10597000FFF78FFE6060002802D0012006B010BD46
:1059800072B6FEE778000020546D722053766300F3
:10599000D54B0008F0B51D4685B0034600200A9E91
:1059A000002B13D00F4C2768002F0DD068460EC077
:1059B000062910DAFFF790FE022809D000231A46C4
:1059C00069462068FFF7BAFC05B0F0BD72B6FEE785
:1059D00000233246F4E700232A4669463846FFF79B
:1059E00039FDF1E778000020F05B000800000000BE
:1059F00000000000000000000000000000040000A3
:105A0000180000000000000000000000FC5B00081F
:105A10000000000000000000000000000000000086
:105A2000000400001800000000000000000000005A
:105A3000085C0008000000000000000000000000FA
:105A4000000000000004000018000000000000003A
:105A500000000000145C00080000000000000000CE
:105A6000000000000000000000040000180000001A
:105A70000000000000000000E45B000800000000DF
:105A80000000000000000000000000000004000012
:105A9000180000000000000000000000205C00086A
:105AA00000000000000000000000000000000000F6
:105AB00000040000180000000000000000000000CA
:105AC000A000000000A00100020004000600080081
:105AD0000A000C00100020004000800000010000BF
